:100000000C94BD0A0C94EA0A0C94EA0A0C94EA0ACD
:100010000C94EA0A0C94EA0A0C94EA0A0C94EA0A90
:100020000C94EA0A0C94EA0A0C94EA0A0C94EA0A80
:100030000C94EA0A0C94EA0A0C94EA0A0C94EA0A70
:100040000C94EA0A0C9486140C94EA0A0C94EA0ABA
:100050000C94EA0A0C94EA0A0C94F06B0C945091FC
:100060000C94EA0A0C941B1D0C94EA0A0C94EA0AFC
:100070000C94EA0A0C94EA0A0C94EA0A0C94EA0A30
:100080000C94EA0A0C94EA0A0C94EA0A0C94EA0A20
:100090000C94EA0A0C94EA0A0C94EA0A0C94A98FCC
:1000A0000C94EA0A0C94EA0A0C94EA0A0C94EA0A00
:1000B0000C94EA0A0C94EA0A0C94EA0A0C94EA0AF0
:1000C0000C94EA0A0C94EA0A0C94EA0A0C94EA0AE0
:1000D0000C94EA0A0C94EA0A0C94EA0A0C94EA0AD0
:1000E0000C94EA0A084AD73B3BCE016E84BCBFFDA4
:1000F000C12F3D6C74319ABD56833DDA3D00C77FF8
:1001000011BED9E4BB4C3E916BAAAABE0000008090
:100110003F05A84CCDB2D44EB93836A9020C50B91F
:10012000918688083CA6AAAA2ABE000000803F4506
:10013000313A200045303A20005A3A2000593A20FE
:1001400000583A20004D53312C4D53322050696EE7
:10015000730A0024F404D9201BC40C5C0E9804C458
:10016000095F0265077101F405F900FB04B300485B
:10017000048700C10369005803550003034500BE0E
:10018000023A008402310053022A002902250004A9
:10019000022000E4011C00C8011900AF01170098FB
:1001A000011400840113007101100061011000515D
:1001B000010E0043010D0036010B002B010B002046
:1001C000010B00150109000C01090003010800FBE7
:1001D000000800F3000800EB000700E4000600DE62
:1001E000000600D8000600D2000600CC000500C7BB
:1001F000000500C2000500BD000400B9000400B500
:10020000000400B1000400AD000400A9000400A532
:10021000000300A20003009F0004009B000300985D
:100220000003009500020093000300900003008D7E
:100230000002008B00030088000200860002008498
:10024000000300810002007F0002007D0002007BAD
:1002500000020079000200770001007600020074BD
:1002600000020072000100710002006F0002006DC8
:100270000001006C0002006A0001006900020067D2
:1002800000010066000100650001006400020062D8
:1002900000010061000100600001005F0002005DDC
:1002A0000001005C0001005B0001005A00010059E0
:1002B00000010058000100570001005600010055E0
:1002C00000010054000100530000005300010052DF
:1002D00000010051000100500001004F0001004EDC
:1002E0000000004E0001004D0001004C0001004BD9
:1002F0000000004B0001004A0001004900010048D5
:1003000000000048000100470001004600000046D0
:1003100000010045000000450001004400010043C9
:1003200000000043000100420000004200010041C3
:1003300000000041000100400001003F0000003FBC
:100340000001003E0000003E0001003D0000003DB5
:100350000001003C0000003C0000003C0001003BAC
:100360000000003B0001003A0000003A00010039A3
:10037000000000390001003800000038000000389B
:100380000001003700000037000100360000003691
:100390000000003600010035000000350000003587
:1003A000000100340000003400000034000100337C
:1003B0000000003300000033000100320000003272
:1003C0000000003200010031000000310000003167
:1003D0000001003000000030000000300001002F5C
:1003E0000000002F0000002F0000002F0001002E51
:1003F0000000002E0000002E0001002D0000002D46
:100400000000002D0000002D0001002C0000002C39
:100410000000002C0000002C0001002B0000002B2D
:100420000000002B0000002B0001002A0000002A21
:100430000000002A0000002A000100290000002915
:100440000000002900000029000000290001002808
:1004500000000028000000280000002800000028FC
:1004600000010027000000270000002700000027EF
:1004700000000027000100260000002600000026E2
:1004800000000026000000260001002500000025D5
:1004900000000025000000250000002500000025C8
:1004A00000010024000000240000002400000024BB
:1004B00000000024000100230000002300000023AE
:1004C00000000023000000230000002300000023A0
:1004D0000001002200000022000000220000002293
:1004E0000000002200000022000100210000002185
:1004F0000000002100000021000000210000002178
:100500000000002100010020000000200000002069
:10051000000000200000002000000020000000205B
:10052000000000200001001F0000001F0000001F4D
:100530000000001F0000001F0000001F0000001F3F
:100540000001001E0000001E0000001E0000001E32
:1005500000000024F4D43050C38E20C2A240178281
:100560008B7011127A910D816CD90AA861E108C7CC
:10057000586607615143061E4B5D05C145A7041A25
:10058000411104093D9803713931034036DB02659E
:10059000339102D4305402802E1D02632CEE01757B
:1005A0002AC501B028A001102781018F2564012BE5
:1005B000244B01E0223401AC211F018D200D01806C
:1005C0001FFC00841EED00971DDF00B81CD200E662
:1005D0001BC600201BBC00641AB200B219A8000A96
:1005E00019A0006A189900D117910040178B00B527
:1005F00016840031167E00B31579003A157300C7D2
:10060000146F0058146A00EE136600881363002507
:10061000135E00C7125B006C12570015125400C124
:1006200011510070114F0021114B00D61049008D5F
:100630001047004610440002104200C00F400080E6
:100640000F3E00420F3C00060F3B00CB0E380093DC
:100650000E37005C0E3500270E3400F30D3200C15A
:100660000D3100900D3000600D2E00320D2D000573
:100670000D2C00D90C2B00AE0C2900850C29005C38
:100680000C2700350C27000E0C2600E80B2400C4B4
:100690000B2400A00B23007D0B23005A0B210039F3
:1006A0000B2100180B2000F80A1F00D90A1E00BBFE
:1006B0000A1E009D0A1D00800A1D00630A1C0047D7
:1006C0000A1B002C0A1B00110A1A00F7091A00DD88
:1006D000091900C4091900AB091900920917007B18
:1006E000091800630917004C091600360916002086
:1006F0000916000A091500F5081500E0081400CCD9
:10070000081400B8081400A4081400900813007D11
:100710000812006B08130058081200460812003433
:10072000081100230811001208110001081100F03F
:10073000071000E0071000D0071000C0071000B03D
:10074000070F00A107100091070E0083070F007428
:10075000070F0065070E0057070E0049070E003B04
:10076000070D002E070E0020070D0013070D0006D1
:10077000070D00F9060C00ED060D00E0060C00D494
:10078000060C00C8060C00BC060C00B0060C00A449
:10079000060B0099060C008D060B0082060B0077F5
:1007A000060B006C060B0061060A0057060B004C96
:1007B000060A0042060A0038060A002E060A00242D
:1007C000060A001A060A001006090007060A00FDBC
:1007D000050900F4050900EB050900E2050900D947
:1007E000050900D0050900C7050900BE050900B5C7
:1007F000050800AD050800A50509009C0508009442
:100800000508008C050800840508007C05080074B4
:100810000508006C050700650508005D0507005622
:100820000508004E05070047050700400508003889
:10083000050700310507002A050700230507001CEE
:10084000050600160507000F05070008050600024B
:10085000050700FB040600F5040700EE040600E8A7
:10086000040600E2040700DB040600D5040600CFFE
:10087000040600C9040600C3040600BD040600B750
:10088000040600B1040500AC040600A6040600A09E
:100890000405009B04060095040500900406008AE8
:1008A00004050085040500800406007A040500752F
:1008B000040500700405006B040500660405006172
:1008C0000405005C04050057040500520405004DB2
:1008D00004050048040500430405003E0404003AF2
:1008E00004050035040500300404002C040500272D
:1008F000040400230405001E0404001A0404001666
:10090000040500110404000D04040009040500049A
:1009100004040000040400FC030400F8030400F4D1
:10092000030400F0030400EC030400E8030400E403
:10093000030400E0030400DC030400D8030400D433
:10094000030400D0030400CC030400C8030300C563
:10095000030300205A3A0020593A0020583A006513
:100960006E6473746F7073206869743A2000486114
:100970007264636F6465642044656661756C74209D
:1009800053657474696E6773204C6F6164656400AD
:1009900053746F7265642073657474696E67732035
:1009A00072657472696576656400204400204900B0
:1009B0002020204D333031205000504944207365B1
:1009C0007474696E67733A00205A00205900202021
:1009D0004D323036205800486F6D65206F66667363
:1009E000657420286D6D293A00204500205A0020AA
:1009F000580020420020540020204D323035205332
:100A000000416476616E636564207661726961623B
:100A10006C65733A20533D4D696E2066656564725E
:100A200061746520286D6D2F73292C20543D4D690C
:100A30006E2074726176656C20666565647261749F
:100A40006520286D6D2F73292C20423D6D696E69DC
:100A50006D756D207365676D656E742074696D6565
:100A600020286D73292C20583D6D6178696D756D56
:100A7000205859206A65726B20286D6D2F73292CC0
:100A800020205A3D6D6178696D756D205A206A6528
:100A9000726B20286D6D2F73292C2020453D6D61D0
:100AA00078696D756D2045206A65726B20286D6DC3
:100AB0002F73290020540020204D32303420530061
:100AC000416363656C65726174696F6E3A20533D72
:100AD000616363656C65726174696F6E2C20543D4F
:100AE0007265747261637420616363656C657261C1
:100AF00074696F6E00204500205A002059002020A4
:100B00004D3230312058004D6178696D756D20414E
:100B10006363656C65726174696F6E20286D6D2FFB
:100B20007332293A00204500205A00205900202025
:100B30004D3230332058004D6178696D756D2066F7
:100B4000656564726174657320286D6D2F73293A31
:100B500000204500205A0020590020204D39322025
:100B6000580053746570732070657220756E6974D7
:100B70003A0053657474696E67732053746F7265BD
:100B800064004572726F723A006563686F3A005094
:100B900072696E7465722073746F7070656420641E
:100BA000756520746F206572726F72732E204669AE
:100BB0007820746865206572726F7220616E64209F
:100BC000757365204D39393920746F2072657374DF
:100BD0006172742E202854656D706572617475722F
:100BE000652069732072657365742E2053657420C7
:100BF00069742061667465722072657374617274C1
:100C0000696E6729005072696E7465722068616C44
:100C10007465642E206B696C6C28292063616C6C90
:100C2000656421006F6B00526573656E643A200045
:100C30002200556E6B6E6F776E20636F6D6D616E07
:100C4000643A2022005A204F6666736574203A2069
:100C5000007A5F6D61783A20007A5F6D696E3A20A4
:100C6000005A204F6666736574005A204F6666739B
:100C70006574206F6B007A5F6D61783A20007A5F4F
:100C80006D696E3A2000795F6D61783A2000795F76
:100C90006D696E3A2000785F6D61783A2000785F68
:100CA0006D696E3A2000205A3A0020593A002043DC
:100CB0006F756E7420583A200020453A00205A3A49
:100CC0000020593A00583A004649524D5741524582
:100CD0005F4E414D453A4D61726C696E2056312E22
:100CE000302E322E323B20537072696E7465722F33
:100CF0006772626C206D617368757020666F722018
:100D000067656E36204649524D574152455F5552F0
:100D10004C3A68747470733A2F2F636F64652E6158
:100D20006C6570686F626A656374732E636F6D2F94
:100D3000646966667573696F6E2F4D41524C494EFA
:100D40002F7265706F7369746F72792F466F786751
:100D50006C6F76652F2050524F544F434F4C5F5667
:100D6000455253494F4E3A312E30204D4143484968
:100D70004E455F545950453A4C756C7A426F742019
:100D80004D696E692045585452554445525F434F52
:100D9000554E543A310A0020423A0020453A005458
:100DA0003A0020573A0020453A00543A0020424089
:100DB0003A0020403A00202F003A00205400202F13
:100DC0000020423A00202F006F6B20543A00256922
:100DD000206D696E2C20256920736563000A002050
:100DE0005A3A200020593A200020583A2000426503
:100DF000640050726F62696E6720646F6E652100D7
:100E000020643A200020623A200045716E20636F12
:100E1000656666696369656E74733A20613A20009D
:100E2000486F6D6520582F59206265666F72652086
:100E30005A00FFFF01000025430000394300001F56
:100E400043000000000000000000001F43000000FD
:100E500000000000000000000000002543000039F1
:100E60004300001F430000A0400000A0400000001D
:100E7000400A00207A3A200020793A200020783A6F
:100E80002000426564005072696E7465722073744C
:100E90006F707065642064756520746F2065727270
:100EA0006F72732E204669782074686520657272AF
:100EB0006F7220616E6420757365204D3939392059
:100EC000746F20726573746172742E202854656D7E
:100ED00070657261747572652069732072657365DF
:100EE000742E2053657420697420616674657220C5
:100EF00072657374617274696E6729004E6F204C5D
:100F0000696E65204E756D62657220776974682020
:100F1000636865636B73756D2C204C617374204C32
:100F2000696E653A20004E6F20436865636B737588
:100F30006D2077697468206C696E65206E756D62CE
:100F400065722C204C617374204C696E653A2000E8
:100F5000636865636B73756D206D69736D61746330
:100F6000682C204C617374204C696E653A20004CEB
:100F7000696E65204E756D626572206973206E6FB3
:100F800074204C617374204C696E65204E756D62DF
:100F900065722B312C204C617374204C696E653A5C
:100FA00020004D313130002020506C616E6E657232
:100FB00042756666657242797465733A2000204610
:100FC000726565204D656D6F72793A20004D6172D2
:100FD000202033203230313600436F6D70696C65EC
:100FE000643A2000286E6F6E652C2064656661751A
:100FF0006C7420636F6E6669672900207C204175E0
:1010000074686F723A20004D6172202033203230B4
:1010100031362031343A34383A303100204C617363
:101020007420557064617465643A2000312E302E4E
:1010300032004D61726C696E0020536F6674776187
:10104000726520526573657400205761746368642B
:101050006F67205265736574002042726F776E204F
:101060006F757420526573657400204578746572DD
:101070006E616C20526573657400506F77657255B0
:1010800070007374617274002200656E7175656919
:101090006E672022002200656E717565696E67209B
:1010A000220054656D7065726174757265206865A3
:1010B0006174656420626564207377697463686530
:1010C00064206F66662E204D415854454D50207463
:1010D0007269676765726564202121003A2045784E
:1010E00074727564657220737769746368656420CF
:1010F0006F66662E204D494E54454D5020747269DE
:101100006767657265642021003A204578747275BE
:10111000646572207377697463686564206F6666BE
:101120002E204D415854454D5020747269676765B3
:10113000726564202100202D20496E76616C6964FF
:10114000206578747275646572206E756D62657263
:101150002021001000C90210012C01400122017061
:10116000011801B0010E01F00104015002FA00B0B3
:1011700002F0003003E600D003DC009004D20070DF
:1011800005C800A006BE000008B400B009AA00D03F
:101190000BA000600E960060118C000015820020EC
:1011A000197800C01D6E00A0226400B0275A00907C
:1011B0002C500000314600E0343C001038320090E2
:1011C0003A2800603C1E00A03D1400803E0A00202A
:1011D0003F00001000AD0330016A0150022B017086
:1011E000030A019004F500B005E500D006D800F030
:1011F00007CE001009C500300ABE00500BB70070C2
:101200000CB100900DAB00B00EA600D00FA200F004
:10121000109D001012990030139500501492007028
:10122000158E0090168B00B0178700D0188400F040
:10123000198100101B7E00301C7B00501D7900704E
:101240001E7600901F7300B0207000D0216E00F059
:10125000226B001024690030256600502663007060
:1012600027610090285E00B0295C00D02A5900F068
:101270002B5600102D5400302E5100502F4E007070
:10128000304B0090314800B0324500D0334200F07E
:10129000343E0010363B0030373700503833007092
:1012A000392E00903A2900B03B2300D03C1B00F0BF
:1012B0003D1100103F0100F03F0000504944204123
:1012C00075746F74756E652066696E6973686564A0
:1012D000212050757420746865206C617374204BF4
:1012E000702C204B6920616E64204B6420636F6E0C
:1012F0007374616E74732066726F6D2061626F76B5
:101300006520696E746F20436F6E666967757261E0
:1013100074696F6E2E6800504944204175746F7473
:10132000756E65206661696C6564212074696D6500
:101330006F75740020403A006F6B20543A006F6B59
:1013400020423A00504944204175746F74756E65AF
:10135000206661696C6564212054656D70657261F9
:101360007475726520746F6F206869676800204B20
:10137000643A2000204B693A2000204B703A20004C
:1013800020436C61737369632050494420002054EA
:10139000753A2000204B753A2000206D61783A2084
:1013A00000206D696E3A200020643A2000206269B6
:1013B00061733A20000A0020000A00207A3A2000D7
:1013C00020793A200020783A200020746F6F206C3A
:1013D0006F6E6720657874727573696F6E207072B6
:1013E0006576656E7465640020636F6C6420657853
:1013F00074727573696F6E2070726576656E746550
:10140000640000002100240027002A002D00300085
:10141000330001010000040107010A01000022005D
:10142000250028002B002E003100340002010000AE
:10143000050108010B0100002000230026002900FF
:101440002C002F00320000010000030106010901F9
:1014500005050505070508080808020202020A0A30
:10146000080804040404010101010101010103034E
:10147000030303030303040707070C0C0C0C0C0CF9
:101480000C0C0202020206060606060606060B0BF6
:101490000B0B0B0B0B0B07070A0A0A0A0A0A0505B6
:1014A0000504010210202008081020401020408070
:1014B0000201020108040201010204081020408018
:1014C00080402010080402018004020180402010A6
:1014D00008040201080402010102040810204080EF
:1014E00001020408102040801008040880102040E9
:1014F000044080100000090A02080B0C0D070603C7
:1015000004010000000000000000000000000000D6
:1015100000000000000000000000000000000000CB
:1015200011100F000000000000000000000000008B
:1015300000000000000000000000494E46494E49EE
:1015400054594E414ECDCCCC3D0AD7233C17B7D190
:101550003877CC2B329595E6241FB14F0A00002036
:10156000410000C84200401C4620BCBE4CCA1B0EB5
:101570005AAEC59D7400AF1D188F11241FBECFEF4A
:10158000D1E2DEBFCDBF00E00CBF14E0A0E0B2E0CE
:10159000E4E7F3E301E00BBF02C007900D92A83728
:1015A000B107D9F71BBE1DE0A8E7B4E001C01D924A
:1015B000A83EB107E1F715E1CAE7D5E104C02297DB
:1015C000FE010E947299C637D107C9F70E94539451
:1015D0000C94B8990C940000CF93DF93BC01823037
:1015E000910510F462E070E0A091E40DB091E50D7A
:1015F000ED0140E050E0E0E0F0E021C08881998119
:101600008617970769F48A819B81309719F0938335
:10161000828304C09093E50D8093E40DFE0134C0F5
:101620006817790738F44115510519F084179507A3
:1016300008F4AC01FE018A819B819C01E90120979D
:10164000E9F641155105A9F1CA01861B970B0497CC
:1016500008F4BA01E0E0F0E02AC08D919C91119766
:1016600084179507F9F46417750781F412968D9124
:101670009C911397309719F09383828304C09093C1
:10168000E50D8093E40DFD0132964CC0CA01861B26
:10169000970BFD01E80FF91F6193719302978D93EA
:1016A0009C9340C0FD01828193819C01D9011097D8
:1016B000A1F68091E20D9091E30D892B41F4809188
:1016C0005D0390915E039093E30D8093E20D409152
:1016D0005F03509160034115510541F44DB75EB76A
:1016E00080915B0390915C03481B590B2091E20DA4
:1016F0003091E30DCA01821B930B8617970780F088
:10170000AB014E5F5F4F8417950750F0420F531F98
:101710005093E30D4093E20DF9016193719302C080
:10172000E0E0F0E0CF01DF91CF910895CF93DF9318
:10173000009709F450C0EC0122971B821A82A091F5
:10174000E40DB091E50D109709F140E050E0AC17C1
:10175000BD0708F1BB83AA83FE0121913191E20FFD
:10176000F31FAE17BF0779F48D919C911197280F45
:10177000391F2E5F3F4F3983288312968D919C919C
:1017800013979B838A834115510571F4D093E50D1E
:10179000C093E40D20C012968D919C911397AD01DA
:1017A000009711F0DC01D3CFFA01D383C2832191DA
:1017B0003191E20FF31FCE17DF0769F48881998119
:1017C000280F391F2E5F3F4FFA01318320838A8112
:1017D0009B8193838283DF91CF910895A0E0B0E055
:1017E000E4EFFBE00C948799EC015B016115710556
:1017F00019F0FB0191838083F9908F2D90E00E9476
:101800007699892BC9F7FDE2FF1621F4F990EE24B1
:10181000E39405C02BE2F21609F4F990EE248E0150
:1018200001501040C8016AE375E143E050E062D224
:10183000892BF9F48E010E5F1F4FC8016DE375E12E
:1018400045E050E057D2892B19F48E01095F1F4FF4
:10185000A114B10419F0F50111830083E0FC04C068
:1018600070E090E080E813C070E090E080E86FEFF7
:1018700007C1C80162E475E143E050E03BD2892B27
:1018800069F4A114B10429F470E090E080EC6FE7F2
:10189000F7C02296F501D183C083F6CF882499241E
:1018A00040E050E060E070E0EF2DE053EA30A0F55A
:1018B000F2E0EF2A8E2D90E09C0128703070E2FE5D
:1018C00006C0232B79F50894811C911C2BC0232B77
:1018D00019F0089481089108DB01CA0112E0880F11
:1018E000991FAA1FBB1F1A95D1F7480F591F6A1FCE
:1018F0007B1F440F551F661F771F4E0F511D611D23
:10190000711D483929E9520729E9620729E172075F
:1019100048F084E0E82A06C0EE3F31F4E3FC39C029
:1019200098E0E92AF990C0CFE53311F0E53189F567
:1019300029912D3219F4E0E1EE2A05C02B3219F07D
:1019400081E090E003C0299182E090E0E22FE05333
:10195000EA3018F0C81BD90B1CC020E030E0FCE0D6
:1019600020383F075CF4C901880F991F880F991F21
:10197000280F391F220F331F2E0F311DE991E0531D
:10198000EA3068F3E4FE03C0309521953F4F820EA4
:10199000931ECE2CDD24E1FE07C0A114B10421F07A
:1019A0002197F501D183C083CB01BA010E94DB9559
:1019B0007B018C01F3E0CF22DD2423E0C216D104A9
:1019C00021F417FB109517F9109557016801C8010C
:1019D000B70120E030E040E050E00E943B958823D2
:1019E00009F44AC097FE0DC029E5E22E25E1F22E4A
:1019F0009094819491089394C0E2D0E000E010E0CC
:101A000012C091E7E92E95E1F92EF6CFF701259165
:101A1000359145915491C601B5010E941B985B0117
:101A20006C018C1A9D0A8C169D0684F7D595C79576
:101A30000F5F1F4F0630110529F08CEF9FEFE80E66
:101A4000F91EF1CFC501D6017C018D018C2D880FC7
:101A50008D2D881F8F3F51F0C601B50120E030E089
:101A600040E050E00E943B95882331F482E290E010
:101A70009093E70D8093E60D7E2D9F2D802F612F93
:101A8000272F392F482F562FB901CA01CDB7DEB7FE
:101A9000ECE00C94A3992F923F925F926F927F9209
:101AA0008F929F92AF92BF92CF92DF92EF92FF926E
:101AB0000F931F93CF93DF938C011B01EA016115F4
:101AC000710519F0FB0191838083209749F0CE01C5
:101AD0000297839728F020E030E040E050E0F6C025
:101AE000F801A1908F018A2D90E00E947699892BB0
:101AF000B9F7FDE2AF1631F4F801A1908F0155243A
:101B0000539407C0FBE2AF1619F4F801A1908F01BE
:101B10005524209719F0C031D105C1F4F0E3AF1678
:101B200079F4F8018081883711F0883549F4F8019B
:101B3000A1800E5F1F4FF2E05F2AC0E1D0E006C037
:101B4000209721F480E3A816E9F427C0C830D10516
:101B500031F1C930D10524F4C230D10531F50CC0C2
:101B6000CA30D10589F0C031D105F9F4C12CD12C8E
:101B7000E12CB8E0FB2E28C0C12CD12CE12CA0E434
:101B8000FA2E22C0CAE0D0E0FCECCF2EFCECDF2E17
:101B9000FCECEF2EFCE0FF2E17C0C8E0D0E0C12C1B
:101BA000D12CE12CE0E1FE2E0FC09E01442737FD31
:101BB0004095542F60E070E080E090E80E943399F7
:101BC000C901DA016C017D0120E030E040E050E025
:101BD00060E03E01882477FC8094982C70EDB72E4D
:101BE000BA0CE9E0EB1570F48A2D81548A3118F4AF
:101BF00099ECB92E06C08A2D81568A3150F589EAB2
:101C0000B82EBA0C8B2D90E08C179D0714F56F3F02
:101C1000E1F0C216D306E406F506B0F0CA01B90138
:101C2000A40193010E94ED989B01AC012B0D311D85
:101C3000411D511D2130F0E03F07F0E04F07F0E873
:101C40005F0710F461E001C06FEFF801A1908F0110
:101C5000C5CF2114310481F0662331F001501040CA
:101C6000F1011183008308C051FE1AC002501040D8
:101C7000F1011183008314C067FF12C050FC05C03E
:101C80002FEF3FEF4FEF5FE704C020E030E040E090
:101C900050E882E290E09093E70D8093E60D16C045
:101CA00050FE08C050954095309521953F4F4F4FBD
:101CB0005F4F0CC057FF0AC082E290E09093E70D9F
:101CC0008093E60D2FEF3FEF4FEF5FE7B901CA01B9
:101CD000DF91CF911F910F91FF90EF90DF90CF9008
:101CE000BF90AF909F908F907F906F905F903F904C
:101CF0002F900895FB01DC014150504088F08D91F8
:101D000081341CF08B350CF4805E659161341CF0DD
:101D10006B350CF4605E861B611171F3990B0895AD
:101D2000881BFCCFFB0155915523A9F0BF01DC01B5
:101D30004D9145174111E1F759F4CD01059000206F
:101D400049F04D9140154111C9F3FB014111EFCF0D
:101D500081E090E001970895FC018191861721F0C0
:101D60008823D9F7992708953197CF010895FB016A
:101D7000DC018D91019080190110D9F3990B089520
:101D8000FB01DC014150504030F08D9101908019F1
:101D900019F40020B9F7881B990B0895AEE0B0E064
:101DA000E4EDFEE00C948F990E891F898EE08C8300
:101DB0001A8309838FEF9FE79E838D839E01265EA2
:101DC0003F4FCE010196688D798DA9010AD02F81F0
:101DD0003885020F131FF80110822E96E4E00C9450
:101DE000AB99ABE0B0E0E7EFFEE00C9481993C01E9
:101DF0002B015A01FC0117821682838181FD03C0E9
:101E00006FEF7FEFB9C19AE0892E1E010894211C63
:101E1000311CF3012381F20123FD859123FF819180
:101E20002F01882309F4A5C1853239F423FD85915A
:101E300023FF81912F01853221F490E0B301B7D1C6
:101E4000E8CF982FFF24EE249924FFE1FF15D0F06E
:101E50009B3269F09C3228F4903259F0933291F41D
:101E60000EC09D3249F0903369F441E024C052E045
:101E7000F52A84E0F82A28C098E0F92A25C0E0E194
:101E8000FE2A22C0F7FC29C0892F80538A3070F4C3
:101E9000F6FE05C0989C902C1124980E15C0E89C65
:101EA000E02C1124E80EF0E2FF2A0EC09E3229F445
:101EB000F6FC5FC140E4F42A07C09C3619F450E8F0
:101EC000F52A02C0983649F4F20123FD959123FFCB
:101ED00091912F01992309F0B8CF892F8554833030
:101EE00018F08052833038F444E050E0A40EB51E60
:101EF0005FE359830FC0933631F0933779F0933510
:101F000009F052C01FC0F5018081898342E050E092
:101F1000A40EB51E610101E010E011C0F501C08002
:101F2000D180F6FC03C06FEF7FEF02C0692D70E037
:101F300042E050E0A40EB51EC6012ED18C015FE731
:101F4000F52213C0F501C080D180F6FC03C06FEF0D
:101F50007FEF02C0692D70E042E050E0A40EB51E94
:101F6000C6010FD18C0150E8F52AF3FE06C018C057
:101F700080E290E0B3011BD1EA948E2D90E0081727
:101F80001907B0F30DC0F601F7FC8591F7FE8191BA
:101F90006F0190E0B3010BD1E110EA9401501040C1
:101FA0000115110581F7E2C0943611F0993661F5FB
:101FB000F7FE08C0F501208131814281538184E020
:101FC00090E00AC0F501808191819C01442737FD92
:101FD0004095542F82E090E0A80EB91E9FE6F922AA
:101FE00057FF09C050954095309521953F4F4F4F71
:101FF0005F4FE0E8FE2ACA01B901A1012AE030E002
:1020000002D1D82ED2183FC0953729F41F2D1F7E3C
:102010002AE030E01DC01F2D197F9F3661F09037F8
:1020200020F4983509F0A5C00FC0903739F09837E3
:1020300009F09FC004C028E030E00AC0106114FD20
:10204000146020E130E004C014FD166020E132E0AD
:1020500017FF08C0F501608171818281938144E09E
:1020600050E008C0F50180819181BC0180E090E0E2
:1020700042E050E0A40EB51EA101C5D0D82ED21862
:102080008FE7F82EF122F6FE0BC05EEFF522D91491
:1020900038F4F4FE07C0F2FC05C08FEEF82202C04F
:1020A0001D2D01C0192DF4FE0DC0FE01ED0DF11D19
:1020B0008081803319F499EEF92208C01F5FF2FE87
:1020C00005C003C08F2D867809F01F5F0F2DF3FC2C
:1020D00013C0F0FE0EC01E1510F09D2C0AC09D2CE2
:1020E0009E0C911A1E2D05C080E290E0B3015FD0D6
:1020F0001F5F1E15C8F304C01E1510F4E11A01C0BD
:10210000EE2404FF0EC080E390E0B30150D002FF44
:102110001BC001FD03C088E790E00EC088E590E099
:102120000BC0802F867881F001FF02C08BE201C0D6
:1021300080E2F7FC8DE290E0B30139D005C080E386
:1021400090E0B30134D09A94D914C8F3DA94F10131
:10215000ED0DF11D808190E0B30129D0DD20B1F7B4
:1021600005C080E290E0B30122D0EA94EE20C9F7E6
:1021700050CEF30166817781CB012B96E2E10C947E
:102180009D99FC010590615070400110D8F7809531
:1021900090958E0F9F1F0895FC0161507040019033
:1021A0000110D8F7809590958E0F9F1F08950F937B
:1021B0001F93CF93DF938C01EB018B8181FF1BC0B9
:1021C00082FF0DC02E813F818C819D8128173907A8
:1021D00064F4E881F9810193F983E88306C0E88516
:1021E000F985802F1995892B31F48E819F81019675
:1021F0009F838E8302C00FEF1FEFC801DF91CF9145
:102200001F910F910895FA01AA27283051F120312A
:1022100081F1E8946F936E7F6E5F7F4F8F4F9F4F7A
:10222000AF4FB1E03ED0B4E03CD0670F781F891FBC
:102230009A1FA11D680F791F8A1F911DA11D6A0F8A
:10224000711D811D911DA11D20D009F468943F913D
:102250002AE0269F11243019305D3193DEF6CF013C
:102260000895462F4770405D4193B3E00FD0C9F702
:10227000F6CF462F4F70405D4A3318F0495D31FD6F
:102280004052419302D0A9F7EACFB4E0A6959795C2
:10229000879577956795BA95C9F700976105710598
:1022A00008959B01AC010A2E0694579547953795E2
:1022B0002795BA95C9F7620F731F841F951FA01D3C
:1022C00008951092AE041092B5041092BC040895C3
:1022D00080936D030895EFE6F0E080818260808353
:1022E00008951F93FC011FB7F89480819181A2810A
:1022F000B3818093860490938704A0938804B0935D
:102300008904FB0180819181A281B38180938A0439
:1023100090938B04A0938C04B0938D04FA01808178
:102320009181A281B38180938E0490938F04A093B6
:102330009004B0939104F90180819181A281B381CD
:102340008093920490939304A0939404B093950483
:102350001FBF1F910895FC012FB7F89480819181D0
:10236000A281B3818093920490939304A0939404E8
:10237000B09395042FBF0895E82F8FB7F894F0E03D
:10238000EE0FFF1FEE0FFF1FEA57FB4F2081318139
:10239000428153818FBFB901CA010895CF93DF9362
:1023A0002FB7F894C82FD0E0CC0FDD1FCC0FDD1F66
:1023B000FE01EA57FB4F60817181828193812FBFBB
:1023C0000E94DD95C153D84F288139814A815B81B4
:1023D0000E944295DF91CF910895E5E4F1E0949158
:1023E00008C08091C00085FFFCCF9093C600319655
:1023F00094919923B1F7E1E4F1E0949108C08091C0
:10240000C00085FFFCCF9093C6003196949199232C
:10241000B1F788E20E942494BC0183E595E04AE08C
:1024200050E00E94971E89E20E942494BC0183E53B
:1024300095E04AE050E00E94971E8091C00085FF21
:10244000FCCF8AE08093C600EDE3F1E0949108C0F0
:102450008091C00085FFFCCF9093C6003196949187
:102460009923B1F785E40E942494BC0183E595E0AB
:102470004AE050E00E94971E87E20E942494BC012B
:1024800083E595E04AE050E00E94971E8091C000ED
:1024900085FFFCCF8AE08093C600E9E3F1E09491E8
:1024A00008C08091C00085FFFCCF9093C600319694
:1024B00094919923B1F784E40E942494BC0183E5AC
:1024C00095E04AE050E00E94971E83E40E94249425
:1024D000BC0183E595E04AE050E00E94971E8091A0
:1024E000C00085FFFCCF8AE08093C600E4E3F1E002
:1024F000949108C08091C00085FFFCCF9093C600E6
:10250000319694919923B1F781E40E942494BC01FF
:1025100083E595E04AE050E00E94971E82E40E9425
:102520002494BC0183E595E04AE050E00E94971EA8
:102530008091C00085FFFCCF8AE08093C600EFE267
:10254000F1E0949108C08091C00085FFFCCF90938A
:10255000C600319694919923B1F78FE30E94249499
:10256000BC0183E595E04AE050E00E94971E80E4BC
:102570000E942494BC0183E595E04AE050E00E946B
:10258000971E8091C00085FFFCCF8AE08093C60033
:1025900008950F931F93182F042F67FD19C08230E1
:1025A00081F0833028F4882341F0813089F407C01A
:1025B000833049F0843061F408C088E207C085E4C4
:1025C00005C084E403C081E401C08FE30E94F2935C
:1025D00007FD1AC0123081F0133028F4112341F0A6
:1025E000113091F407C0133049F0143069F408C079
:1025F00089E207C087E205C083E403C082E401C02A
:1026000080E4602F0E94F2931F910F91089564302F
:1026100089F0653028F4613041F0623099F407C0E8
:10262000683051F0603171F40AC060E001C061E0CF
:1026300040E004C060E001C061E041E0AACF61E099
:1026400041E0A7CF08950F931F93182F062F86E21E
:1026500060E00E94F2931EBD0DB407FEFDCF8EB563
:102660000EBD0DB407FEFDCF8EB586E261E00E947F
:10267000F2931F910F910895CF93DF938FE361E061
:102680000E943F9380E461E00E943F9388E261E012
:102690000E943F9389E261E00E943F9385E461E0FC
:1026A0000E943F9387E261E00E943F9384E461E0EF
:1026B0000E943F9383E461E00E943F9381E461E0E4
:1026C0000E943F9382E461E00E943F93C0E0D0E02B
:1026D000FE01E451FC4F8C2F608199DF2196C530BB
:1026E000D105B1F7DF91CF9108951F93CF93DF9379
:1026F000182FEB01E82FF0E0EF50FC4F808190E0C5
:10270000A2DF112399F4BE01882777FD8095982FC9
:102710002FEF30E040E050E00E94ED9820ED37E0F0
:1027200040E050E00E9455998CE229C0113099F4A4
:10273000BE01882777FD8095982F2FEF30E040E08D
:1027400050E00E94ED9820ED37E040E050E00E941C
:1027500055998DE214C01230A9F4BE01882777FD87
:102760008095982F2FEF30E040E050E00E94ED98E8
:1027700020ED37E040E050E00E9455998EE2B9012B
:102780000E946192DF91CF911F910895CF93DF93C3
:102790000E943E9186E261E00E943F93C0E0D0E05B
:1027A000FE01EA50FC4F60818C2F70E09EDF219685
:1027B000C530D105A9F78CE261E00E943F938DE21C
:1027C00061E00E943F938EE261E00E943F9360913E
:1027D00061037091620380E088DF60916303709110
:1027E000640381E082DF609165037091660382E09B
:1027F0007CDF80912101887F816080932101DF91BE
:10280000CF910895C3DF38DFEAE0F1E08081826094
:1028100080838081816080838081846080838081E7
:10282000806480838081806880830F9A179A0E9AD3
:10283000169A0D9A159A0C9A149A0B9A139A26982E
:102840002E9A25982D9A24982C9A3F98479A0A9860
:10285000129A0998119A389A4098179A10928305FB
:10286000399A4198169A109284053A9A4298159A84
:10287000109285053B9A4398149A3C9A4498A1E893
:10288000B0E08C918F7E8C938C9188608C93E0E883
:10289000F0E080818D7F808380818E7F8083808146
:1028A0008F73808380818F7C80838C91887F82600E
:1028B0008C9380E090E4909389008093880010923C
:1028C000850010928400EFE6F0E0808182608083D2
:1028D00081E080936D037894089505C00E94166F7F
:1028E00080E00E94104A9091FC0C8091FD0C98179A
:1028F000A9F70895F2DF179A10928305169A10929D
:102900008405159A10928505149A08951F920F92C6
:102910000FB60F920BB60F921124AF92BF92CF92C7
:10292000DF92EF92FF920F931F932F933F934F935A
:102930005F936F937F938F939F93AF93BF93CF9347
:10294000DF93EF93FF938091780490917904892B22
:1029500009F099C19091FC0C8091FD0C981719F425
:10296000E0E0F0E014C08091FD0C90E02DE430E058
:10297000829FF001839FF00D929FF00D1124E45D82
:10298000F74FE45BFF4F81E08083EC54F040F0931D
:102990007904E0937804309709F46FC1E45BFF4F4A
:1029A00081E080831092C7041092C8041092C90479
:1029B0001092CA04E0917804F091790460AD71AD91
:1029C0002CE96134720718F060E47CE904C03EE44D
:1029D0006132730730F0769567957695679584E058
:1029E00007C047E26131740730F07695679582E061
:1029F0008093C00407C08093C0046032710510F456
:102A000060E270E06052704058E060307507E8F0B6
:102A1000472F50E0440F551F440F551F4D5A5E4F2E
:102A20009A012E5F3F4FF901859194919C01AA274D
:102A3000639FC001629F810D9A1F06948A1F9A1F8F
:102A40001124FA01459154911EC0CB0196958795AA
:102A50008C7F8D5A9A4FFC0145915491FC0132961E
:102A600025913491862F90E087709070FC012E9F05
:102A7000C0012F9F900D3E9F900D112403E096956D
:102A800087950A95E1F7481B590B44365105A8F480
:102A9000E0E0F2E007C08091C00085FFFCCF3196F6
:102AA0009093C60090819923B1F783E595E04AE0C1
:102AB00050E00E94BE1E44E650E05093CC04409388
:102AC000CB048091C004992787FD90959093CE0404
:102AD0008093CD04E0917804F091790464AD75ADF4
:102AE0007093C6046093C504FCE961347F0718F055
:102AF00060E47CE904C02EE46132720730F0769520
:102B000067957695679584E007C037E26131730772
:102B100030F07695679582E08093C00408C081E02C
:102B20008093C0046032710510F460E270E060527E
:102B3000704048E060307407E8F0472F50E0440FE1
:102B4000551F440F551F4D5A5E4F9A012E5F3F4F40
:102B5000F901859194919C01AA27639FC001629F0E
:102B6000810D9A1F06948A1F9A1F1124FA0145911C
:102B700054911EC0CB01969587958C7F8D5A9A4FA4
:102B8000FC0145915491FC01329625913491862F98
:102B900090E087709070FC012E9FC0012F9F900DD8
:102BA0003E9F900D1124E3E096958795EA95E1F715
:102BB000481B590B44365105A8F4E0E0F2E007C089
:102BC0008091C00085FFFCCF31969093C600908124
:102BD0009923B1F783E595E04AE050E00E94BE1EDC
:102BE00044E650E0CA01A0E0B0E08093C1049093B5
:102BF000C204A093C304B093C404509389004093CB
:102C00008800E0917804F091790480899189A28903
:102C1000B389B695A79597958795B095A09590950A
:102C200081959F4FAF4FBF4F809396049093970429
:102C3000A0939804B093990480939A0490939B0472
:102C4000A0939C04B0939D0480939E0490939F0452
:102C5000A093A004B093A1048093A2049093A30432
:102C6000A093A404B093A5041092A6041092A70404
:102C70001092A8041092A90406C080ED97E09093EA
:102C8000890080938800E0917804F091790430976E
:102C900009F416C680A18093AA0480FF0AC08FB7EA
:102CA000F89490910B019D7F90930B018FBF8FEF54
:102CB00009C08FB7F89490910B01926090930B012B
:102CC0008FBF81E0809369038091AA0481FF0AC0CD
:102CD0008FB7F89490910B01916090930B018FBF87
:102CE0008FEF09C08FB7F89490910B019E7F90935E
:102CF0000B018FBF81E080936A038091AA04209129
:102D00006D0380FF56C0222309F4A8C01E994AC053
:102D10008091AB04882309F441C0E0917804F091DC
:102D2000790480819181A281B381181619061A064F
:102D30001B0654F52091AC043091AD0480916703DB
:102D40009091680382179307F8F48091860490911C
:102D50008704A0918804B091890480937A049093A9
:102D60007B04A0937C04B0937D0481E08093AE0447
:102D700080899189A289B3898093A6049093A7043E
:102D8000A093A804B093A9048091AC049091AD04E1
:102D900001969093AD048093AC0460C081E0809371
:102DA000AB045CC01092AB041092AD041092AC0462
:102DB00055C0222309F452C037994AC08091AF040C
:102DC000882309F441C0E0917804F091790480816E
:102DD0009181A281B381181619061A061B0654F5B3
:102DE0002091B0043091B104809167039091680301
:102DF00082179307F8F48091860490918704A0913C
:102E00008804B091890480937A0490937B04A09302
:102E10007C04B0937D0481E08093AE048089918925
:102E2000A289B3898093A6049093A704A093A804D1
:102E3000B093A9048091B0049091B104019690934D
:102E4000B1048093B0040AC081E08093AF0406C04F
:102E50001092AF041092B1041092B0048091AA04B1
:102E600020916D0381FF56C0222309F4A8C01D994B
:102E70004AC08091B204882309F441C0E0917804EB
:102E8000F091790484819581A681B781181619067D
:102E90001A061B0654F52091B3043091B4048091B6
:102EA00067039091680382179307F8F480918A046E
:102EB00090918B04A0918C04B0918D0480937E043A
:102EC00090937F04A0938004B093810481E0809369
:102ED000B50480899189A289B3898093A6049093CF
:102EE000A704A093A804B093A9048091B30490917F
:102EF000B40401969093B4048093B30460C081E05D
:102F00008093B2045CC01092B2041092B404109288
:102F1000B30455C0222309F452C002994AC08091DB
:102F2000B604882309F441C0E0917804F091790453
:102F300084819581A681B781181619061A061B0689
:102F400054F52091B7043091B804809167039091B3
:102F5000680382179307F8F480918A0490918B0498
:102F6000A0918C04B0918D0480937E0490937F0493
:102F7000A0938004B093810481E08093B50480899C
:102F80009189A289B3898093A6049093A704A09302
:102F9000A804B093A9048091B7049091B804019655
:102FA0009093B8048093B7040AC081E08093B6047C
:102FB00006C01092B6041092B8041092B704809123
:102FC000AA0420916D0382FF61C08FB7F89490919D
:102FD0000B019B7F90930B018FBF8FEF80936B034F
:102FE000222309F4B1C01C994AC08091B9048823F6
:102FF00009F441C0E0917804F091790480859185CD
:10300000A285B385181619061A061B0654F52091D9
:10301000BA043091BB0480916703909168038217D2
:103020009307F8F480918E0490918F04A0919004FE
:10303000B09191048093820490938304A0938404BC
:10304000B093850481E08093BC0480899189A28932
:10305000B3898093A6049093A704A093A804B09387
:10306000A9048091BA049091BB0401969093BB048B
:103070008093BA0469C081E08093B90465C010925E
:10308000B9041092BB041092BA045EC09FB7F894C2
:1030900080910B01846080930B019FBF41E04093BE
:1030A0006B03222309F450C0019948C08091BD04EC
:1030B000882309F440C0E0917804F0917904808578
:1030C0009185A285B385181619061A061B064CF5BC
:1030D0002091BE043091BF048091670390916803F2
:1030E00082179307F0F480918E0490918F04A09141
:1030F0009004B09191048093820490938304A093F0
:103100008404B09385044093BC0480899189A2898A
:10311000B3898093A6049093A704A093A804B093C6
:10312000A9048091BE049091BF0401969093BF04BE
:103130008093BE0409C04093BD0406C01092BD0434
:103140001092BF041092BE048091AA0483FF0AC0AB
:103150008FB7F89490910B01906490930B018FBFFF
:103160008FEF09C08FB7F89490910B019F7B9093DC
:103170000B018FBF81E080936C0360E07EC1809182
:10318000C00087FF19C04091C600E0914F05F09143
:10319000500531969F012F773070319780915105FE
:1031A000909152052817390739F0E153FB4F4083BE
:1031B0003093500520934F05E0917804F091790405
:1031C00020813181428153818091960490919704AE
:1031D000A0919804B0919904280F391F4A1F5B1FD2
:1031E0002093960430939704409398045093990445
:1031F00012161306140615066CF5409A80899189FB
:10320000A289B389281B390B4A0B5B0B20939604C8
:103210003093970440939804509399042091860426
:10322000309187044091880450918904809169030A
:10323000992787FD9095A92FB92F820F931FA41F5F
:10324000B51F8093860490938704A0938804B0935D
:1032500089044098E0917804F091790424813581C3
:103260004681578180919A0490919B04A0919C047F
:10327000B0919D04280F391F4A1F5B1F20939A04A9
:1032800030939B0440939C0450939D0412161306A4
:10329000140615066CF5419A80899189A289B38933
:1032A000281B390B4A0B5B0B20939A0430939B0429
:1032B00040939C0450939D0420918A0430918B0488
:1032C00040918C0450918D0480916A03992787FD69
:1032D0009095A92FB92F820F931FA41FB51F80931C
:1032E0008A0490938B04A0938C04B0938D0441982E
:1032F000E0917804F09179042085318542855385E9
:1033000080919E0490919F04A091A004B091A1048B
:10331000280F391F4A1F5B1F20939E0430939F0480
:103320004093A0045093A104121613061406150628
:103330006CF5429A80899189A289B389281B390B3F
:103340004A0B5B0B20939E0430939F044093A00490
:103350005093A10420918E0430918F0440919004E9
:103360005091910480916B03992787FD9095A92F27
:10337000B92F820F931FA41FB51F80938E049093C3
:103380008F04A0939004B09391044298E091780444
:10339000F091790424853585468557858091A2046E
:1033A0009091A304A091A404B091A504280F391F03
:1033B0004A1F5B1F2093A2043093A3044093A404EC
:1033C0005093A50412161306140615066CF5439ABD
:1033D00080899189A289B389281B390B4A0B5B0B21
:1033E0002093A2043093A3044093A4045093A50413
:1033F000209192043091930440919404509195044B
:1034000080916C03992787FD9095A92FB92F820F82
:10341000931FA41FB51F8093920490939304A093CD
:103420009404B093950443988091A6049091A704C6
:10343000A091A804B091A9040196A11DB11D80938B
:10344000A6049093A704A093A804B093A904209184
:10345000A6043091A7044091A8045091A904E091DA
:103460007804F091790480899189A289B389281719
:1034700039074A075B0730F46F5F8091C004681713
:103480000CF47DCE2091A6043091A7044091A804AD
:103490005091A904E0917804F09179048489958988
:1034A000A689B78982179307A407B50708F4E2C075
:1034B000E090C104F090C2040091C3041091C404D0
:1034C000A48CB58CC68CD78CA8019701C601B50118
:1034D000AA27279FB12D389FE001489FD00D479F15
:1034E000C00DD11D289FB00DC11DDA1F379FB00D33
:1034F000C11DDA1F469FB00DC11DDA1F369FB10DE9
:10350000CA1FDA1FB695CA1FDA1F112484AD95AD04
:103510008C0F9D1F9093C6048093C50420AD31ADE0
:1035200042AD53ADA0E0B0E0281739074A075B076A
:1035300020F43093C6042093C5046091C5047091B3
:10354000C6048CE96134780718F060E47CE904C0B3
:103550009EE46132790730F07695679576956795A8
:1035600084E007C0E7E261317E0730F07695679529
:1035700082E08093C00408C081E08093C004603280
:10358000710510F460E270E060527040F8E0603065
:103590007F07E8F0472F50E0440F551F440F551F99
:1035A0004D5A5E4F9A012E5F3F4FF90185919491DC
:1035B0009C01AA27639FC001629F810D9A1F0694F8
:1035C0008A1F9A1F1124FA01459154911EC0CB0104
:1035D000969587958C7F8D5A9A4FFC014591549111
:1035E000FC01329625913491862F90E0877090707F
:1035F000FC012E9FC0012F9F900D3E9F900D112426
:1036000003E0969587950A95E1F7481B590B4436D8
:103610005105A0F4E0E0F2E007C08091C00085FF12
:10362000FCCF31969093C60090819923B1F783E542
:1036300095E04AE050E0A2D344E650E05093890080
:10364000409388009A0140E050E08091C10490913D
:10365000C204A091C304B091C404820F931FA41F9D
:10366000B51F8093C1049093C204A093C304B09388
:10367000C40401C12091A6043091A7044091A8047C
:103680005091A904808D918DA28DB38D82179307DF
:10369000A407B50708F0E3C06091C7047091C8049F
:1036A0008091C9049091CA04248D358D468D578D23
:1036B000AA27639FB12D749FE001849FD00D839F43
:1036C000C00DD11D649FB00DC11DDA1F739FB00DD9
:1036D000C11DDA1F829FB00DC11DDA1F729FB10D8F
:1036E000CA1FDA1FB695CA1FDA1F11248091C504BC
:1036F0009091C6048C179D0738F4E05CFF4F608101
:103700007181E054F04003C0BC016C1B7D0BE05C98
:10371000FF4F2081318142815381CB01A0E0B0E095
:1037200082179307A407B50708F4B901FCE96134CF
:103730007F0718F060E47CE904C02EE46132720770
:1037400030F0769567957695679584E007C037E207
:103750006131730730F07695679582E08093C004FD
:1037600008C081E08093C0046032710510F460E20B
:1037700070E06052704048E060307407E8F0472F16
:1037800050E0440F551F440F551F4D5A5E4F9A018C
:103790002E5F3F4FF901859194919C01AA27639F69
:1037A000C001629F810D9A1F06948A1F9A1F1124DF
:1037B000FA01459154911EC0CB01969587958C7F57
:1037C0008D5A9A4FFC0145915491FC0132962591F6
:1037D0003491862F90E087709070FC012E9FC0017D
:1037E0002F9F900D3E9F900D1124E3E096958795B5
:1037F000EA95E1F7481B590B44365105A0F4E0E087
:10380000F2E007C08091C00085FFFCCF3196909315
:10381000C60090819923B1F783E595E04AE050E036
:10382000ADD244E650E050938900409388009A015D
:1038300040E050E08091C7049091C804A091C90471
:10384000B091CA04820F931FA41FB51F8093C704B1
:103850009093C804A093C904B093CA040CC080918B
:10386000CB049091CC049093890080938800809140
:10387000CD048093C0042091A6043091A704409108
:10388000A8045091A904E0917804F091790480890A
:103890009189A289B389281739074A075B0780F005
:1038A00010927904109278049091FC0C8091FD0C98
:1038B000981731F08091FD0C8F5F8F708093FD0C15
:1038C000FF91EF91DF91CF91BF91AF919F918F9138
:1038D0007F916F915F914F913F912F911F910F9128
:1038E000FF90EF90DF90CF90BF90AF900F900BBE06
:1038F0000F900FBE0F901F9018958091AE048823F3
:1039000049F48091B504882329F48091BC0488236C
:1039100009F490C0E9E8FBE0949108C08091C000F0
:1039200085FFFCCF9093C600319694919923B1F70F
:10393000EFE5F9E0949108C08091C00085FFFCCFCD
:103940009093C600319694919923B1F78091AE047B
:103950008823D1F060917A0470917B0480917C047B
:1039600090917D040E94DD952091CF073091D00782
:103970004091D1075091D2070E944295AB01BC0102
:103980008BE599E00E94EB438091B5048823D1F048
:1039900060917E0470917F048091800490918104F5
:1039A0000E94DD952091D3073091D4074091D5072F
:1039B0005091D6070E944295AB01BC0187E599E082
:1039C0000E94EB438091BC048823D1F06091820473
:1039D0007091830480918404909185040E94DD9508
:1039E0002091D7073091D8074091D9075091DA0735
:1039F0000E944295AB01BC0183E599E00E94EB4334
:103A0000E4E1F2E007C08091C00085FFFCCF319671
:103A10009093C60090819923B1F78091C00085FFF3
:103A2000FCCF8AE08093C6001092AE041092B504D9
:103A30001092BC0408951F920F920FB60F920BB60E
:103A40000F9211242F933F934F938F939F93EF9354
:103A5000FF934091C600E0914F05F09150053196DB
:103A60009F012F77307031978091510590915205C9
:103A70002817390739F0E153FB4F40833093500545
:103A800020934F05FF91EF919F918F914F913F911F
:103A90002F910F900BBE0F900FBE0F901F90189597
:103AA0009A01AB01203081EE380780E0480780E0C2
:103AB000580749F182E08093C00060E079E08DE32F
:103AC00090E00E9455992150304040405040CA013A
:103AD000B90122E030E040E050E00E945599309377
:103AE000C5002093C4008091C10080618093C10013
:103AF0008091C10088608093C1008091C10080687E
:103B00008093C10008951092C00020E130E0E7CF1B
:103B1000209151053091520580914F0590915005AB
:103B20008217930719F42FEF3FEF0EC0F901E1530D
:103B3000FB4F80812F5F3F4F2F77307030935205BE
:103B400020935105282F30E0C90108958091510537
:103B5000909152059093500580934F0508950895D4
:103B60002F923F924F925F926F927F928F929F928D
:103B7000AF92BF92CF92DF92EF92FF920F931F937B
:103B8000DF93CF93CDB7DEB7A0970FB6F894DEBF23
:103B90000FBECDBF1C016A017B01411551056105B6
:103BA000710541F440E350E060E070E020E030E077
:103BB0008BD055C0882499245401422E5524662464
:103BC000772401E010E00C0F1D1F080D191DC7011F
:103BD000B601A30192010E943399F8016083089411
:103BE000811C911CA11CB11CC701B601A30192014B
:103BF0000E943399C901DA016C017D01C114D1041D
:103C0000E104F104F1F681E0E82EF12CEC0EFD1E4A
:103C1000E80CF91C3E010894611C711CD501C4011B
:103C20000197A109B1096C01C818D90815C0F6019E
:103C3000EE0DFF1D40814A3010F4405D01C0495C2B
:103C4000552747FD5095652F752FC10120E030E0C5
:103C50003BD00894E108F1086E147F0441F7A09668
:103C60000FB6F894DEBF0FBECDBFCF91DF911F918D
:103C70000F91FF90EF90DF90CF90BF90AF909F900B
:103C80008F907F906F905F904F903F902F9008950E
:103C90002115310539F48091C00085FFFCCF409398
:103CA000C60008955DCFEF92FF920F931F939A0184
:103CB000E62EFF2400E010E0B801A701E9DF1F9124
:103CC0000F91FF90EF900895EF92FF920F931F9343
:103CD000CF93DF93EC017A018B012115310539F483
:103CE0008091C00085FFFCCFE092C60019C02A3049
:103CF0003105A9F477FF0FC04DE250E060E070E0BD
:103D000020E030E0E1DF10950095F094E094E11CB4
:103D1000F11C011D111DCE01B801A7012AE020DF11
:103D2000DF91CF911F910F91FF90EF900895EF9247
:103D3000FF920F931F937B019A010027F7FC0095D8
:103D4000102FB801A701C0DF1F910F91FF90EF90D6
:103D500008950F931F938C014DE050E060E070E0F8
:103D600020E030E0B1DFC8014AE050E060E070E000
:103D700020E030E0A9DF1F910F910895CF92DF92EC
:103D8000EF92FF920F931F938C019A016B01EE2427
:103D9000FF24B701A6017CDFC801DBDF1F910F9173
:103DA000FF90EF90DF90CF9008959F92AF92BF92D7
:103DB000CF92DF92EF92FF920F931F93CF93DF93F7
:103DC000EC017A018B01922ECB01BA0120E030E0A8
:103DD00040E050E00E943B95882364F4CE014DE220
:103DE00050E060E070E020E030E06EDF17FB1095FF
:103DF00017F9109520E030E040E05FE3AA240BC003
:103E0000CA01B90120E030E040E251E40E9442954D
:103E10009B01AC01A394A91498F3C801B7010E94B7
:103E200062947B018C010E94AF955B016C010E9442
:103E3000DB959B01AC01C801B7010E9461947B0135
:103E40008C01CE01B601A5012AE030E021DF9920E6
:103E500099F1E5E1F2E007C08091C00085FFFCCF59
:103E600031969093C60090819923B1F725C0C8017F
:103E7000B70120E030E040E251E40E941B987B0152
:103E80008C010E94AA955B016C01CC24B7FCC09404
:103E9000DC2CCE01B601A5012AE030E015DFC60119
:103EA000B5010E94DD959B01AC01C801B7010E94DC
:103EB00061947B018C019A949920C9F6DF91CF918E
:103EC0001F910F91FF90EF90DF90CF90BF90AF9038
:103ED0009F9008956ACF08952F923F924F925F92DC
:103EE0006F927F928F929F92AF92BF92CF92DF920A
:103EF000EF92FF920F931F93DF93CF9300D000D0E8
:103F0000CDB7DEB71C017C836B836A01FA01E080C8
:103F1000F18002811381C801B70120E030E040E068
:103F200050E00E94499787FF04C017FB109517F9CE
:103F30001095C101880F991F880F991F9A83898353
:103F400026016624772443C0F401A080B180C2809A
:103F5000D380C601B50120E030E040E050E00E948F
:103F6000499788231CF0A601950103C0A60195017D
:103F70005058C801B7010E943B9588239CF4C601A4
:103F8000B50120E030E040E050E00E9449978823EE
:103F90001CF08601750106C08601750117FB10959E
:103FA00017F910958D819E8101969E838D83E4E0A3
:103FB000F0E08E0E9F1E8D819E818215930524F266
:103FC0000894611C711CE981FA814E0E5F1E8B8181
:103FD0009C816816790624F442011E821D82EBCF73
:103FE000B701C80126960FB6F894DEBF0FBECDBF4D
:103FF000CF91DF911F910F91FF90EF90DF90CF90C5
:10400000BF90AF909F908F907F906F905F904F90F8
:104010003F902F9008952F923F924F925F926F9210
:104020007F928F929F92AF92BF92CF92DF92EF9248
:10403000FF920F931F93DF93CF93CDB7DEB72A97ED
:104040000FB6F894DEBF0FBECDBF98878F834A01AD
:104050005B013901181619060CF063C1CB01BA01D6
:1040600020E030E040E050E00E943B95882309F4D6
:1040700058C10130110529F421E0C216D10419F408
:1040800060C017FD03C020E030E00DC081E090E08B
:104090004F815885841B950B089F9001099F300D17
:1040A000189F300D1124D7FC03C060E070E00DC0F4
:1040B00081E090E0EF81F8858E1B9F0BC89EB001D8
:1040C000C99E700DD89E700D1124CC0CDD1CCC0C3B
:1040D000DD1C1B01220C331C220C331C2E0C3F1C3C
:1040E0002801440C551C440C551C7901EE0CFF1C96
:1040F000EE0CFF1CE60CF71C00E010E0C501B4015B
:10410000F70120813181428153810E941B989B01DC
:10411000AC01F10160817181828193810E9462947E
:10412000F10160837183828393830F5F1F4F2C0C97
:104130003D1CE40CF51C2F81388502171307F4F29F
:10414000F0C00F81188503701070670123012224CD
:1041500033241CC0C501B401F20121913191419178
:1041600051912F010E941B989B01AC01F6016081C7
:104170007181828193810E946294F60161937193AF
:10418000819391936F010894211C311C20163106F4
:104190000CF3C801880F991F880F991F1701280E6B
:1041A000391E9301280F391F3E832D830F5F1F4F48
:1041B000C801880F991F880F991F2701480E591EA3
:1041C000A301480F591F5C834B830F5F1F4FC8012A
:1041D000880F991F880F991F6701C80ED91EF30118
:1041E000E80FF91FFA83E9830F5F1F4FC801880F9B
:1041F000991F880F991F035010409701280F391FEE
:104200003A8729877301E80EF91E85C0C501B401FC
:10421000ED81FE8120813181428153810E941B9872
:104220009B01AC01F10160817181828193810E94C7
:104230006294F1016083718382839383C501B40129
:10424000EB81FC8120813181428153810E941B9846
:104250009B01AC01F20160817181828193810E9496
:104260006294F2016083718382839383C501B401F8
:10427000E981FA8120813181428153810E941B981A
:104280009B01AC01F60160817181828193810E9462
:104290006294F6016083718382839383C501B401C4
:1042A000F70120813181428153810E941B989B013B
:1042B000AC01E985FA8560817181828193810E94D8
:1042C0006294E985FA8560837183828393830C5FAE
:1042D0001F4F20E130E0220E331E4D815E81405F92
:1042E0005F4F5E834D83420E531E8B819C814096AF
:1042F0009C838B83C20ED31EE981FA817096FA8368
:10430000E98329853A85205F3F4F3A87298740E135
:1043100050E0E40EF51E8F819885081719070CF4FC
:1043200075CF2A960FB6F894DEBF0FBECDBFCF91E2
:10433000DF911F910F91FF90EF90DF90CF90BF9092
:10434000AF909F908F907F906F905F904F903F9035
:104350002F9008952F923F924F925F926F927F928B
:104360008F929F92AF92BF92CF92DF92EF92FF9285
:104370000F931F93DF93CF93CDB7DEB72E970FB672
:10438000F894DEBF0FBECDBF9E878D874B013901EC
:10439000F801181619065CF00F2EF0E0CF2EF0E0B1
:1043A000DF2EF0E0EF2EF0E0FF2EF02D93C1413034
:1043B000510521F40130110519F469C057FD03C0FE
:1043C00060E070E00DC081E090E02D853E85821BAD
:1043D000930B489FB001499F700D589F700D112499
:1043E000F7FD03C020E030E00DC081E090E0AD8536
:1043F000BE858A1B9B0BE89F9001E99F300DF89FBB
:10440000300D11242A01440C551C440C551C8B0101
:10441000000F111F000F111F080D191D4F01880CEF
:10442000991C880C991C1901220C331C220C331C7A
:10443000260C371C0F2EF0E0CF2EF0E0DF2EF0E040
:10444000EF2EF0E0FF2EF02DAA24BB24F8016081AE
:10445000718182819381D1012D913D914D915C912A
:104460000E941B989B01AC01C701B6010E94629497
:104470006B017C010894A11CB11C040D151D280CB6
:10448000391CED85FE85AE16BF0604F323C18D856C
:104490009E8565E070E00E9420998C010F2EF0E06F
:1044A000CF2EF0E0DF2EF0E0EF2EF0E0FF2EF02D2B
:1044B000AA24BB24442455241FC0F401E40DF51D97
:1044C000D301A40DB51D60817181828193812D91ED
:1044D0003D914D915C910E941B989B01AC01C701DD
:1044E000B6010E9462946B017C010894A11CB11C6E
:1044F00024E030E0420E531EA016B106F4F2C801CB
:10450000880F991F880F991FD401A80FB91FBC8766
:10451000AB87F301E80FF91FFA87E9870F5F1F4F99
:10452000C801880F991F880F991F9401280F391F00
:1045300038872F83D301A80FB91FBE83AD830F5FC8
:104540001F4FC801880F991F880F991FF401E80FAA
:10455000F91FFC83EB839301280F391F3A832983CA
:104560000F5F1F4FC801880F991F880F991F1401F3
:10457000280E391E2301480E591E0F5F1F4FC80118
:10458000880F991F880F991F04501040880E991E9C
:104590005301A80EB91E380197C0AB85BC856D913B
:1045A0007D918D919C91E985FA85208131814281AF
:1045B00053810E941B989B01AC01C701B6010E9468
:1045C00062947B018C01AF81B8856D917D918D9155
:1045D0009C91ED81FE8120813181428153810E9435
:1045E0001B989B01AC01C801B7010E9462947B013A
:1045F0008C01AB81BC816D917D918D919C91E98104
:10460000FA8120813181428153810E941B989B0154
:10461000AC01C801B7010E9462947B018C01D101F9
:104620006D917D918D919C91F2012081318142812A
:1046300053810E941B989B01AC01C801B7010E94E5
:1046400062947B018C01D4016D917D918D919C913F
:10465000F50120813181428153810E941B989B0189
:10466000AC01C801B7010E9462946B017C0125E096
:1046700030E0620E731E8B859C8544969C878B87E9
:10468000A985BA855496BA87A987EF81F88574966B
:10469000F887EF832D813E812C5E3F4F3E832D8333
:1046A0008B819C8144969C838B83A981BA8154968B
:1046B000BA83A983E4E1F0E02E0E3F1E4E0E5F1E8A
:1046C0008E0E9F1EAE0EBF1E2D853E856216730692
:1046D0000CF463CFB601C7012E960FB6F894DEBF77
:1046E0000FBECDBFCF91DF911F910F91FF90EF9043
:1046F000DF90CF90BF90AF909F908F907F906F9002
:104700005F904F903F902F9008952F923F924F923D
:104710005F926F927F928F929F92AF92BF92CF9251
:10472000DF92EF92FF920F931F93DF93CF93CDB75A
:10473000DEB7EC970FB6F894DEBF0FBECDBF9CA7D7
:104740008BA77EA76DA758AB4FA73AAB29AB1CAB85
:104750000BAB37017601BEAAADAA98AE8FAA6896B8
:10476000EEADFFAD689700E010E0CF01815F984D9E
:104770008F519E4410F001E010E0CF0160E177E23C
:104780000E9420999AAF89AF892B21F061E070E0F7
:104790007AAF69AF1AA619A6CF0168EE73E00E943E
:1047A00020998D599F4F873C910520F081E090E042
:1047B0009AA789A718A61FA2CF0164E670E00E94FD
:1047C00020990996439720F0A1E0B0E0B8A7AFA3E5
:1047D000CF016AE070E00E9420999CAF8BAF892BDB
:1047E00021F0E1E0F0E0FCAFEBAF8FA598A90197D5
:1047F00029A93AA93A8329838217930714F49A8343
:10480000898369817A81672B09F068C0012B51F097
:10481000F30180819181A281B381F701808391832B
:10482000A283B38329AD3AAD232B59F0F3018081E4
:104830009181A281B381EDA9FEA980839183A28396
:10484000B3832BAD3CAD232B69F0F30180819181C3
:10485000A281B3816696EEADFFAD669780839183AA
:10486000A283B38329A53AA5232B21F1ABA5BCA52F
:10487000ED90FD900D911C91C801B70120E030E052
:1048800040E050E00E943B95882329F4E1E0F0E00D
:10489000FEA3EDA311C0D3016D917D918D919C91EB
:1048A000A80197010E944295EFA9F8AD608371833A
:1048B000828393831EA21DA22FA138A5232B09F466
:1048C000F9C380E090E0A0E0B0E06496EEADFFAD0B
:1048D000649780839183A283B383ECC30115110590
:1048E000E9F061E070E040E050E013C09701240F70
:1048F000351FF301E40FF51F80819181A281B381FF
:10490000F90180839183A283B3836F5F7F4F4C5FF4
:104910005F4F2FA538A92617370744F769AD7AAD41
:10492000672BF1F061E070E040E050E014C02DA989
:104930003EA9240F351FF301E40FF51F80819181FB
:10494000A281B381F90180839183A283B3836F5FD6
:104950007F4F4C5F5F4F2FA538A9261737073CF7CD
:10496000012B09F4C7C021E030E069817A81261B60
:10497000370BA901440F551F440F551F5095419502
:104980005F4F8BA99CA9840F951F9C8B8B8BADA52A
:10499000BEA5A095B095AA0FBB1FAA0FBB1FBA8BCF
:1049A000A98B615070408DA59EA50196689F20013E
:1049B000699F500C789F500C1124440C551C440CDA
:1049C000551CEBA5FCA54E0E5F1EAFA5B8A9119610
:1049D000B8ABAFA7E981FA81AE1BBF0BB88BAF872D
:1049E000AFA5B8A91197B8ABAFA7880F991F880FCB
:1049F000991FEE27FF27E81BF90BFE87ED878DA592
:104A00009EA5689F3001699F700C789F700C1124DF
:104A1000621A730A660C771C660C771CABA5BCA5E2
:104A20006A0E7B1E1701240E351EE1E0F0E0FAA3AA
:104A3000E9A358C0AB89BC89ED90FD900D911C9104
:104A4000C801B70120E030E040E050E00E943B9513
:104A5000882361F1F20180809180A280B380D2012D
:104A6000ED92FD920D931C9313978F859889B30156
:104A700041E050E0910101E010E06CDC9058F2015F
:104A800020813181428153810E944295AB01BC015A
:104A90008F85988993017101E1E0CE2ED12CBBDA8C
:104AA000D2018D929D92AD92BC921397E9A1FAA189
:104AB0003196FAA3E9A32B893C89245030403C8BE2
:104AC0002B8B69897A89460E571E8F8598890196A6
:104AD000988B8F87AD85BE856A0E7B1EECEFFFEF4E
:104AE0002E0E3F1E29A13AA169817A8162177307B0
:104AF0000CF0A0CF89AD9AAD892B09F489C0ADA582
:104B0000BEA51196BEA7ADA7AA0FBB1FAA0FBB1FBC
:104B1000BE8BAD8BEDA5FEA53197FEA7EDA72BA40F
:104B20003CA44FA458A8CF0180959095880F991F59
:104B3000880F991F22273327281B390B3C832B838F
:104B4000310161E070E07CA36BA3188E1F8A58C00E
:104B5000EBA9FCA98F89988DE80FF91FE080F180FF
:104B600002811381C801B70120E030E040E050E04D
:104B70000E943B95882369F1D1018D909D90AD9065
:104B8000BC90F101E082F18202831383EDA8FEA8BC
:104B90002F89388DE20EF31EC201B30141E050E0CF
:104BA000970101E010E0D6DB9058D1012D913D91A5
:104BB0004D915C910E944295AB01BC01C2019301F1
:104BC000E1E0CE2ED12C27DAF10180829182A282FF
:104BD000B3822BA13CA12F5F3F4F3CA32BA36F8936
:104BE000788D6C5F7F4F788F6F8B8D899E89280EB3
:104BF000391E089441085108AB81BC816A0E7B1EA6
:104C0000EBA1FCA129813A812E173F070CF0A0CF20
:104C100069A57AA5672BF9F061E070E040E050E00B
:104C200015C02FA938AD240F351FEDA9FEA9E40F3B
:104C3000F51F80819181A281B381F90180839183E5
:104C4000A283B3836F5F7F4F4C5F5F4F29A93AA95F
:104C50002617370734F76BAD7CAD672B09F161E0A0
:104C600070E040E050E017C066962EAD3FAD66970D
:104C7000240F351FEDA9FEA9E40FF51F8081918156
:104C8000A281B381F90180839183A283B3836F5F93
:104C90007F4F4C5F5F4F29A93AA92617370724F7A2
:104CA0006FA178A5672B41F189A99AA9AFA5B8A9E9
:104CB0008A179B070CF59C01880F991F880F991F75
:104CC0004DA95EA9480F591F6496EEADFFAD6497DC
:104CD000E80FF91F0AC0DA01ED90FD900D911D91CA
:104CE000AD01E192F192019311932F5F3F4F6FA5B8
:104CF00078A9621773077CF78BAD9CAD892B11F1F6
:104D0000A9A9BAA9EFA5F8A9AE17BF07DCF4CD0190
:104D1000FD01EE0FFF1FEE0FFF1F66962EAD3FAD9C
:104D20006697E20FF31F20E030E040E050E004C05F
:104D3000219331934193519301966FA578A96817F8
:104D40007907B4F78FA198A5892BA9F06496EEADE9
:104D5000FFAD649781E090E020E030E040E050E07B
:104D600005C021933193419351930196A9A9BAA902
:104D7000A817B907B4F7E9A5FAA5EF2B09F49EC067
:104D800069A87AA8089461087108660C771C660CFB
:104D9000771C2FA938AD620E731E8DA59EA5880FB6
:104DA000991F880F991F66277727681B790B7A8FC1
:104DB000698F89A99AA90197ADA5BEA58A9F4001CF
:104DC0008B9F900C9A9F900C1124880C991C880C36
:104DD000991CEBA5FCA58E0E9F1EA095B095AA0F61
:104DE000BB1FAA0FBB1FBE83AD832DA53EA52F5FA2
:104DF0003F4F829F5001839FB00C929FB00C1124B3
:104E0000215030403EA72DA7AA0CBB1CAA0CBB1CEE
:104E1000AE0EBF1E29A83AA8F1E04F2E512C48C073
:104E2000C9A8DAA8C418D508D501ED90FD900D9158
:104E30001C91C801B70120E030E040E050E00E9442
:104E40003B95882319F43EA22DA23AC0F30160815C
:104E5000718182819381A80197010E944295D301BB
:104E60006D937D938D939C931397B1E02B16310432
:104E700069F0AB01BC017058C601940101E010E07B
:104E8000EFA8F8ACE1E0CE2ED12CC5D80894411C97
:104E9000511CECEFFFEF6E0E7F1E089421083108C5
:104EA000298D3A8D820E931E6D817E81A60EB71ECE
:104EB00089A99AA9841595050CF0B2CF1EA21DA24E
:104EC000AFA1B8A5AB2B09F466C041E050E0E98181
:104ED000FA814E1B5F0B9A01220F331F220F331FE3
:104EE000309521953F4F6BA97CA9620F731F78A362
:104EF0006F8F8DA59EA580959095880F991F880F1F
:104F0000991F9E8F8D8FBF01615070408DA59EA50A
:104F10000196689F3001699F700C789F700C112476
:104F2000660C771C660C771CABA5BCA56A0E7B1EB5
:104F30008FA498A80894811C911C8E1A9F0A880F30
:104F4000991F880F991FEE27FF27E81BF90BFC8F8D
:104F5000EB8F8DA59EA5689F5001699FB00C789F2F
:104F6000B00C1124A41AB50AAA0CBB1CAA0CBB1CB9
:104F7000AA0EBB1E66962EAC3FAC6697220E331E61
:104F800064964EAC5FAC6497420E531EA1E0B0E055
:104F9000BC87AB8787C0EBADFCADEF2B09F095CF9D
:104FA00089C0AF8DB8A1ED90FD900D911C91C80105
:104FB000B70120E030E040E050E00E943B958823BC
:104FC00009F454C0D3016D917D918D919C916F83B3
:104FD000788789879A87F301E082F18202831383BD
:104FE0002FA138A5232BD1F0C401B50141E050E039
:104FF000920101E010E0AED99058D3012D913D917E
:105000004D915C910E944295AB01BC01C401950198
:105010007201F1E0CF2ED12C0E940B20EBADFCAD44
:10502000EF2BD1F0C401B50141E050E0910101E066
:1050300010E090D99058D3012D913D914D915C9104
:105040000E944295AB01BC01C40195017101E1E0F0
:10505000CE2ED12C0E940B206F81788589859A8570
:10506000D3016D937D938D939C931397EB85FC8572
:105070003196FC87EB872F8D38A12450304038A320
:105080002F8F6D8D7E8D660E771E0894811C911C6E
:105090008B8D9C8DA80EB91EACEFBFEF2A0E3B1E68
:1050A0004A0E5B1EEB85FC8529813A812E173F074E
:1050B0000CF077CF8DA19EA1EC960FB6F894DEBFD1
:1050C0000FBECDBFCF91DF911F910F91FF90EF9059
:1050D000DF90CF90BF90AF909F908F907F906F9018
:1050E0005F904F903F902F9008952F923F924F9254
:1050F0005F926F927F928F929F92AF92BF92CF9268
:10510000DF92EF92FF920F931F93DF93CF9300D024
:105110000F92CDB7DEB79C838B833A832983380106
:10512000260114010115110509F100D000D0EDB7D9
:10513000FEB73196ADB7BEB71296BC92AE9211973C
:10514000B382A2828EE690E0958384838B819C81DA
:1051500098010A8D1B8D65014201D7DAEDB7FEB7C4
:1051600036960FB6F894FEBF0FBEEDBF6101F10198
:1051700020E030E009C080819181909581959F4F1A
:10518000819391932F5F3F4F89819A812817390727
:1051900094F3F301EE0FFF1FEE0FFF1FE40DF51D5B
:1051A000830180E090E0A0E0B0E006C0819391939D
:1051B000A193B1930F5F1F4F29813A810217130703
:1051C000ACF3720101E010E0F1E0AF2EB12C46C06B
:1051D000D6018D919C91119718161906ACF12227D2
:1051E0003327281B390B2D933C932BC0F7014081AB
:1051F000518162817381C501821B930B9C01880FD1
:10520000991F880F991FF201E81BF90B60807180CC
:1052100082809380D7016D927D928D929C9213979C
:105220004083518362837383220F331FF101E21B9A
:10523000F30B8081918122273327281B390B31837F
:1052400020832017310791F60F5F1F4FE2E0F0E057
:10525000CE0EDF1E24E030E0E20EF31E89819A813B
:10526000801791070CF0B4CF0F900F900F900F9014
:10527000CF91DF911F910F91FF90EF90DF90CF9032
:10528000BF90AF909F908F907F906F905F904F9066
:105290003F902F9008952F923F924F925F926F927E
:1052A0007F928F929F92AF92BF92CF92DF92EF92B6
:1052B000FF920F931F93DF93CF9300D00F92CDB740
:1052C000DEB79A8389833A014B0129011816190622
:1052D0000CF0EAC00130110509F0AFC065E070E0E4
:1052E0000E9420998C017901CC24DD2412C0F701A1
:1052F0006081718182819381A40193010E941B9836
:10530000F70161937193819391937F010894C11C7C
:10531000D11CC016D1065CF31801220C331C220CE0
:10532000331C240C351C58010894A11CB11CAA0C78
:10533000BB1CAA0CBB1CA40CB51C42E0C42ED12C77
:10534000C00ED11ECC0CDD1CCC0CDD1CC40CD51C3D
:1053500023E0E22EF12CE00EF11EEE0CFF1CEE0C11
:10536000FF1CE40CF51C98012C5F3F4F220F331FEC
:10537000220F331F240D351D3C832B8357C0F101B1
:105380006081718182819381A40193010E941B98A5
:10539000F1016083718382839383F5016081718160
:1053A00082819381A40193010E941B98F50160837F
:1053B000718382839383F6016081718182819381FD
:1053C000A40193010E941B98F6016083718382837C
:1053D0009383F7016081718182819381A40193019C
:1053E0000E941B98F7016083718382839383EB8112
:1053F000FC816081718182819381A40193010E946B
:105400001B98EB81FC8160837183828393830B5FA4
:105410001F4F24E130E0220E331EA20EB31EC20E37
:10542000D31EE20EF31E7496FC83EB8389819A816E
:10543000081719070CF4A3CF37C017FD03C060E0AD
:1054400070E00DC081E090E0E981FA818E1B9F0B36
:10545000089FB001099F700D189F700D11247801ED
:10546000EE0CFF1CEE0CFF1C6B01CC0CDD1CCC0CFD
:10547000DD1CC40CD51C00E010E0F60160817181D8
:1054800082819381A40193010E941B98F60160839D
:105490007183828393830F5F1F4FCE0CDF1C2981A2
:1054A0003A81021713074CF30F900F900F900F9053
:1054B000CF91DF911F910F91FF90EF90DF90CF90F0
:1054C000BF90AF909F908F907F906F905F904F9024
:1054D0003F902F9008954F925F926F927F928F929C
:1054E0009F92AF92BF92CF92DF92EF92FF920F9373
:1054F0001F93CF93DF932C014B0139011816190626
:105500000CF0F2C04130510509F09CC0013011058A
:1055100009F09AC063E070E00E942099BC01840108
:10552000E901E0E0F0E014C0D8012D913D914D91EA
:105530005C911397C880D980EA80FB80CD92DD9280
:10554000ED92FD928D0129933993499359933196A8
:10555000E617F7074CF3CB01880F991F880F991FA7
:105560005401A80EB91E6301C80ED91E6F5F7F4F8C
:10557000CB01880F991F880F991F7401E80EF91E3F
:105580008301080F191F6F5F7F4FCB01880F991F91
:10559000880F991F62507040E401C80FD91FF301B2
:1055A000E80FF91F4AC0D5012D913D914D915C91B5
:1055B000D6016D907D908D909C90D5016D927D92DD
:1055C0008D929C921397D6012D933D934D935C93AE
:1055D0001397D7012D913D914D915C91D8016D901C
:1055E0007D908D909C90D7016D927D928D929C9232
:1055F0001397D8012D933D934D935C931397288176
:1056000039814A815B8180819181A281B3818883C4
:105610009983AA83BB8320833183428353836D5F45
:105620007F4F8CE090E0A80EB91EC80ED91EE80E80
:10563000F91E045F1F4F2C963C96641575050CF4FB
:10564000B2CF52C057FD03C020E030E00BC081E074
:1056500090E084199509489F9001499F300D589F0B
:10566000300D112417FD03C060E070E00BC081E035
:1056700090E084199509089FB001099F700D189F4B
:10568000700D11247A01EE0CFF1CEE0CFF1CE901D9
:10569000CC0FDD1FCC0FDD1FC80DD91D000F111F52
:1056A000000F111FFB01EE0FFF1FEE0FFF1FE60D96
:1056B000F71D60E070E0288139814A815B8180813B
:1056C0009181A281B38188839983AA83BB8320833C
:1056D0003183428353836F5F7F4FCE0DDF1DE00F19
:1056E000F11F641575053CF3DF91CF911F910F9168
:1056F000FF90EF90DF90CF90BF90AF909F908F90F2
:105700007F906F905F904F9008952F923F924F92AD
:105710005F926F927F928F929F92AF92BF92CF9241
:10572000DF92EF92FF920F931F93CF93DF937C0151
:105730005B014A016E9DC0016F9D900D7E9D900D95
:105740001124880F991F880F991F0E94EC0A792E47
:10575000482F592F682E6701CC0CDD1CCC0CDD1CAA
:10576000E0E0F0E060E070E012C0D8012D903D90E4
:105770004D905D908D0129923992499259922F5FF7
:105780003F4F2E153F058CF331966C0D7D1DEA15AC
:10579000FB054CF48401060F171FEA01C60FD71F43
:1057A00020E030E0EECFC301DF91CF911F910F9148
:1057B000FF90EF90DF90CF90BF90AF909F908F9031
:1057C0007F906F905F904F903F902F9008952F9211
:1057D0003F924F925F926F927F928F929F92AF9281
:1057E000BF92CF92DF92EF92FF920F931F93DF93BE
:1057F000CF9300D00F92CDB7DEB71C01FB01181676
:1058000019060CF0A8C0141615060CF0A4C081E00F
:105810002816310499F4E080F18002811381C801D7
:10582000B70120E030E040E050E00E94499787FF58
:105830009CC017FB109517F9109597C0DA01AA0FB5
:10584000BB1FAA0FBB1FBA83A9832B011C821B821B
:105850000F2EF0E0EF2EF0E0FF2EF0E00F2FF0E043
:105860001F2FF02D0F2EF0E06F2EF0E07F2EF0E8CE
:105870008F2EFFE39F2EF02DF201A080B180C28019
:10588000D380C601B50120E030E040E050E00E9446
:105890003B95882309F445C0C601B50120E030E0FE
:1058A00040E050E00E94499787FF04C0D7FAD094A7
:1058B000D7F8D094C801B701A60195010E943B9585
:1058C0008823ECF4C801B701A60195010E94429516
:1058D0007B018C01C401B301A80197010E941B98B0
:1058E000A80197010E941B9820E030E040E85FE3A8
:1058F0000E9462943B014C018601750112C0C601F1
:10590000B501A80197010E9442959B01AC010E943C
:105910001B989B01AC01C401B3010E9462943B013E
:105920004C018B819C8101969C838B83A981BA81D8
:105930004A0E5B1E821593050CF49ECFC401B30181
:105940000E9488989B01AC01C801B7010E941B9876
:105950007B018C010AC00F2EF0E0EF2EF0E0FF2E4D
:10596000F0E00F2FF0E01F2FF02DB701C8010F90CE
:105970000F900F900F90CF91DF911F910F91FF909B
:10598000EF90DF90CF90BF90AF909F908F907F90DF
:105990006F905F904F903F902F9008952F923F927D
:1059A0004F925F926F927F928F929F92AF92BF922F
:1059B000CF92DF92EF92FF920F931F93DF93CF93DB
:1059C000CDB7DEB7C254D0400FB6F894DEBF0FBEDD
:1059D000CDBF98AB8FA77AAB69AB5CAB4BAB3EABA3
:1059E0002DAB18AF0FABFAAEE9AEDCAECBAEAB2849
:1059F00031F431E0432E512C22243324E7C0E9ACAA
:105A0000FAACAFA4B8A821E0622E712C91E0492E27
:105A1000512CCC24CA94DC2C81E0882E912C52C0CD
:105A2000D7018D919C91119797FF03C0CD92DC9285
:105A300003C0F7017182608218161906ACF5641470
:105A40007504F9F008944108510829A93AA9429E21
:105A5000B001439E700D529E700D11240894411C9C
:105A6000511C660F771F660F771F4FA558A9640F4B
:105A7000751F8BA99CA941E050E0950101E010E061
:105A80002ADDF201E819F909EE0FFF1F89AD9AAD81
:105A9000E80FF91F80819181D7018D939C937182CA
:105AA00060820894411C511C0894611C711CE2E046
:105AB000F0E0EE0EFF1E24E030E0A20EB31E0894CC
:105AC000C108D1084DA95EA9461557050CF0A8CF0D
:105AD0004A01089481089108880C991C89AD9AADF7
:105AE000880E991E89A99AA9880F991F880F991F56
:105AF000AA24BB24A81AB90A41505040A9A9BAA99E
:105B00004A9F70014B9FF00C5A9FF00C11244F5F7D
:105B10005F4F5EAB4DABEE0CFF1CEE0CFF1CEFA518
:105B2000F8A9EE0EFF1E6A011A014CC0D4012D9196
:105B30003C91119737FF3DC088279927821B930B13
:105B40008D939C93C214D30489F1089421083108E1
:105B5000E9A9FAA92E9EB0012F9E700D3E9E700DF0
:105B600011240894211C311C660F771F660F771FC4
:105B70002FA538A9620F731F8BA99CA941E050E0A3
:105B8000970101E010E0A7DCF1013197EE0FFF1F54
:105B900049AD5AADE40FF51F20813181D4018D91BB
:105BA0009C911197918380832D933C9308942108B5
:105BB00031080894C108D108EEEFFFEF8E0E9F1E4A
:105BC000EA0CFB1C1C141D040CF4B0CF29A93AA943
:105BD000220F331F220F331F3E872D870894410861
:105BE000510849A95AA9449E8001459E100D549E12
:105BF000100D1124000F111F000F111F8FA598A960
:105C0000080F191FA0E0B0E04A0E5B1E5201AA0C5B
:105C1000BB1CAA0CBB1C0894411C511CEFA8F8AC7F
:105C2000EA0CFB1C320167014901909481949108B0
:105C3000939411C0B801680D791D8BA99CA941E00E
:105C400050E0C5DDF60161937193819391936F01EB
:105C50000894611C711C2D853E85020F131F2614AC
:105C6000370444F7EBADFCADEA0DFB1D92010CC00F
:105C7000D7014D915D916D917D917D01419351933E
:105C8000619371932F5F3F4F221633068CF7EDA976
:105C9000FEA9FAA7E9A72BA93CA92E173F0714F4E0
:105CA0003AA729A74FA958AD5C8F4B8F89A99AA90C
:105CB00080959095880F991F880F991FAA27BB2759
:105CC000A81BB90BB88FAF8BEFA5F8A9FA8BE98B9E
:105CD00029A93AA92F5F3F4F3AAB29AB220F331FB7
:105CE000220F331F3E8B2D8B49A95AA9415050409A
:105CF0005AAB49ABCF01AD85BE858A0F9B1F9CA3D4
:105D00008BA3EBADFCADFC8BEB8B4FA558A9420FE1
:105D1000531F5A83498389AD9AAD988B8F87ABA95E
:105D2000BCA9BA8FA98FEFA5F8A9F887EF832BA19B
:105D30003CA13C832B83FE83ED8341E050E05CA7D4
:105D40004BA7AFC28BA59CA5841595050CF4A2C0EA
:105D5000821593050CF09EC07C0123969FAF8EAFF9
:105D600023970B8D1C8D8824AA24CC24DD24D801F4
:105D70006C9011967C90119712969C9012971396A6
:105D8000BC90682D7A2DC6019301492D5B2D0E9490
:105D90003B9588232CF42396FFAEEEAE239704C0E8
:105DA000682C7A2C9C2CBD2C0894E11CF11C0C5FF7
:105DB0001F4F2E143F042CF0862CA72CC92CDB2C53
:105DC000D6CF2396EEADFFAD23972BA53CA5E217CA
:105DD000F30709F45FC0319749A95AA9E49F9001DC
:105DE000E59F300DF49F300D112431962396FFAFBF
:105DF000EEAF2397220F331F220F331F8FA598A9D1
:105E0000280F391F8BA99CA96D817E8141E050E04C
:105E100001E010E060DB21E030E02396AEADBFADE5
:105E200023972A1B3B0BF901EE0FFF1FEE0FFF1FFD
:105E3000F095E195FF4F4FA958AD4E0F5F1FAB8D09
:105E4000BC8DED90FD900D911C91DA01ED92FD92CB
:105E50000D931C9313974BAD5CADE40FF51FAB890D
:105E6000BC894D915D916D917C914083518362839A
:105E70007383220F331FE9ADFAADE21BF30B2081D0
:105E80003181AF85B8898D919C91119791838083E1
:105E90002D933C9320E030E040E050E0AB8DBC8D92
:105EA0002D933D934D935C931397EBA5FCA52BA9E4
:105EB0003CA9E217F30709F4ADC12E1B3F0B3EA727
:105EC0002DA7398D3FAF4A8D21964FAF21975F8126
:105ED0005DAF88858EAF832F942F652F788541E045
:105EE00050E075DC6DA37EA38FA398A720E030E07F
:105EF00040E050E00E943B95882309F48BC1A989BA
:105F0000BA89ED90FD900D911C91C801B70120E078
:105F100030E040E050E00E943B958823E9F0C80162
:105F2000B70120E030E040E050E00E943B9587FD63
:105F300005C020E030E040E85FE304C020E030E04E
:105F400040E85FEB6DA17EA18FA198A50E941B98F0
:105F50006DA37EA38FA398A760E070E080E89FE325
:105F60002DA13EA14FA158A50E944295AB01BC01B5
:105F70008FAD21969FAD21972DAD3EAD01E010E094
:105F80008AD9E989FA89608171818281938120E0CF
:105F900030E040E85FE30E946294A989BA896D937A
:105FA0007D938D939C931397EBA5FCA53196FC876D
:105FB000EB872B8D3C8D2C5F3F4F3AA329A34B8958
:105FC0005C894C5F5F4F5E8F4D8F8B819C812396E8
:105FD0009FAF8EAF2397A981BA81B8A3AF8FEBA1F2
:105FE000FCA1FA87E987F7C08FAD21969FAD219775
:105FF0006DAD7EAD41E050E022962FAD2297239605
:106000003FAD239701E010E00E94AA219058A98992
:10601000BA892D913D914D915C910E944295AB01C1
:10602000BC018FAD21969FAD21972DAD3EAD22963F
:10603000EFAC22972396FFAC2397E1E0CE2ED12C34
:106040000E940B20EB85FC85E415F5050CF49AC045
:106050002E163F060CF496C0A9A1BAA16D907D90B2
:106060008D909C90C401B30120E030E040E050E00E
:106070000E943B95882309F485C0E985FA85E08074
:10608000F18002811381C801B70120E030E040E0D7
:1060900050E00E94499787FF04C017FB109517F93D
:1060A0001095C801B701A40193010E9442959B017C
:1060B000AC010E941B989B01AC0160E070E080E89D
:1060C0009FE30E9461945B016C0120E030E040E0BE
:1060D00050E00E944997181654F00F2EF0E0AF2EB2
:1060E000F0E0BF2EF0E0CF2EF0E0DF2EF02DC40167
:1060F000B301AD8DBE8D2D913D914D915C910E946E
:1061000042959B01AC010E941B987B018C01C6014A
:10611000B5012DEC3CEC4CE45DE30E941B98A8011A
:1061200097010E941B9820E030E040E85FE30E9466
:10613000629420E030E040E85FE30E943B958823D2
:1061400069F0C601B5010E9488989B01AC01C401A9
:10615000B3010E941B98E9A1FAA110C08DA59EA5CC
:106160006F8D78A141E050E032DBA9A1BAA16D9317
:106170007D938D939C931397ED8DFE8D608371833A
:10618000828393832B853C852F5F3F4F3C872B87F2
:1061900023964EAD5FAD23978D859E85480F591F81
:1061A00023965FAF4EAF2397A9A1BAA11496BAA3C5
:1061B000A9A3EF8DF8A1E80FF91FF8A3EF8F2D8D9C
:1061C0003E8D2C5F3F4F3E8F2D8F49855A85480F5E
:1061D000591F5A8749878B859C85ADA9BEA9A817E9
:1061E000B9070CF001CFE989FA8980819181A281F8
:1061F000B381EB8DFC8D80839183A283B3838DA1CA
:106200009EA1AFA1B8A5B058E989FA89808391838E
:10621000A283B3832BA53CA52F5F3F4F3CA72BA7A1
:106220004B8D5C8D4C5F5F4F5C8F4B8F898D9A8D52
:1062300001979A8F898FAF81B885EF89F88DAE0F5E
:10624000BF1FB887AF8329893A894D895E89240F9A
:10625000351F3A8B298B8BA19CA1840F951F9CA382
:106260008BA3AB89BC891496BC8BAB8BE981FA817B
:10627000E40FF51FFA83E9832B813C814F89588D08
:10628000240F351F3C832B838D819E81AD85BE8578
:106290008A0F9B1F9E838D83EF85F8893296F88B3A
:1062A000EF872BA53CA549A55AA5421753070CF02B
:1062B00049CDCE5BDF4F0FB6F894DEBF0FBECDBF2A
:1062C000CF91DF911F910F91FF90EF90DF90CF90D2
:1062D000BF90AF909F908F907F906F905F904F9006
:1062E0003F902F9008952F923F924F925F926F921E
:1062F0007F928F929F92AF92BF92CF92DF92EF9256
:10630000FF920F931F93DF93CF93CDB7DEB72C97F8
:106310000FB6F894DEBF0FBECDBF9A8389837C830E
:106320006B832A013901ED82FE820F831887DA869A
:10633000C986F50180E090E003C0119211920196A8
:1063400086159705D4F3C301880F991F880F991FED
:106350000E94EC0A8B879C8789819A816B817C8162
:10636000A201930184017501CB84DC84E1E0AE2EAF
:10637000B12C14DBE985FA851182108213014614D1
:1063800057040CF412014B805C800894411C511C92
:10639000440C551C440C551C69807A80882499242F
:1063A00040C0F301A080B180C280D380C601B50196
:1063B00020E030E040E050E00E94499787FF04C0B1
:1063C000D7FAD094D7F8D094E981FA81E080F180AF
:1063D00002811381C801B70120E030E040E050E0C5
:1063E0000E94499787FF04C017FB109517F9109575
:1063F000640C751C6D817E818F819885A801970141
:106400000E941B989B01AC01C601B5010E943B95FF
:1064100018167CF40894811C911CE985FA859182F8
:106420008082821493040CF4BCCF8B859C850E94DF
:10643000960B2C960FB6F894DEBF0FBECDBFCF9152
:10644000DF911F910F91FF90EF90DF90CF90BF9061
:10645000AF909F908F907F906F905F904F903F9004
:106460002F9008952F923F924F925F926F927F925A
:106470008F929F92AF92BF92CF92DF92EF92FF9254
:106480000F931F93DF93CF93CDB7DEB728970FB647
:10649000F894DEBF0FBECDBF9A8389833B012A01EA
:1064A0001901DC82CB82BE82AD8298868F828CA15C
:1064B0009DA1641775071CF42FEF3FEF36C012162D
:1064C00013061CF02EEF3FEF30C0181619061CF013
:1064D0002DEF3FEF2AC0019749F489819A81CB8043
:1064E000DC80A8A0B9A08AA09BA0FDDE0F920F922D
:1064F000EB81FC81008111818AA19BA1EDB7FEB7E0
:106500009283818389819A81B301A2019101ED80F7
:10651000FE80CF80D884AE8CBF8C88A099A00E94CA
:10652000752820E030E00F900F90C90128960FB633
:10653000F894DEBF0FBECDBFCF91DF911F910F91B9
:10654000FF90EF90DF90CF90BF90AF909F908F9093
:106550007F906F905F904F903F902F9008952F9273
:106560003F924F925F926F927F928F929F92AF92E3
:10657000BF92CF92DF92EF92FF920F931F93DF9320
:10658000CF93CDB7DEB72C970FB6F894DEBF0FBE12
:10659000CDBF4C016B837C835901B7D81C01C4016A
:1065A0006B817C81A1010E946C1F2B013C010B813E
:1065B0001C817801EE0CFF1CEE0CFF1CC7010E9431
:1065C000EC0A8D839E83C801880F991F0E94EC0AF4
:1065D0008F839887C7010E94EC0A89879A87C40134
:1065E000880F991F880F991F0E94EC0A8B879C8740
:1065F0008DB79EB708970FB6F8949EBF0FBE8DBF9C
:10660000CDB6DEB60894C11CD11C60E070E080E815
:1066100095E2A30192010E9442957B018C018B853A
:10662000F60180839C8591838F81828398859383F3
:10663000898584839A85958381E090E0978386831A
:10664000C101B401A4012B813C816E010894C11CDD
:10665000D11C8D809E8006DFEDB7FEB738960FB651
:10666000F894FEBF0FBEEDBFC1010E94960B8F8153
:1066700098850E94960B89859A850E94960B8B853A
:106680009C850E94960B8D819E812C960FB6F89466
:10669000DEBF0FBECDBFCF91DF911F910F91FF9055
:1066A000EF90DF90CF90BF90AF909F908F907F90B2
:1066B0006F905F904F903F902F900895DF93CF930E
:1066C000CDB7DEB766970FB6F894DEBF0FBECDBF6D
:1066D0008091170290911802A0911902B0911A02AC
:1066E0008F87988BA98BBA8BFE013F9644E650E0CA
:1066F0008081F999FECF1FBA52BD41BD80BD0FB652
:10670000F894FA9AF99A0FBE4F5F5F4F48365105D9
:1067100011F03196EDCFEFECF7E08081F999FECFE3
:106720001FBA52BD41BD80BD0FB6F894FA9AF99ACE
:106730000FBE4F5F5F4F4837510511F03196EDCFD7
:10674000EFEBF7E08081F999FECF1FBA52BD41BD52
:1067500080BD0FB6F894FA9AF99A0FBE4F5F5F4F5B
:106760004838510511F03196EDCFEFEDF7E080811B
:10677000F999FECF1FBA52BD41BD80BD0FB6F89446
:10678000FA9AF99A0FBE4F5F5F4F4839510511F0E1
:106790003196EDCFE3EFF7E08081F999FECF1FBA94
:1067A00052BD41BD80BD0FB6F894FA9AF99A0FBE5A
:1067B0004F5F5F4F4C39510511F03196EDCFE7EF48
:1067C000F7E08081F999FECF1FBA52BD41BD80BD6F
:1067D0000FB6F894FA9AF99A0FBE4F5F5F4F403A9E
:1067E000510511F03196EDCFEFEEF7E08081F99988
:1067F000FECF1FBA52BD41BD80BD0FB6F894FA9AC4
:10680000F99A0FBE4F5F5F4F443A510511F0319630
:10681000EDCFE7E0F8E08081F999FECF1FBA52BDD5
:1068200041BD80BD0FB6F894FA9AF99A0FBE4F5F3A
:106830005F4F483A510511F03196EDCFEBEBF7E0A1
:106840008081F999FECF1FBA52BD41BD80BD0FB600
:10685000F894FA9AF99A0FBE4F5F5F4F4C3A510580
:1068600011F03196EDCFEBEFF7E08081F999FECF93
:106870001FBA52BD41BD80BD0FB6F894FA9AF99A7D
:106880000FBE4F5F5F4F403B510511F03196EDCF8A
:10689000EFEFF7E08081F999FECF1FBA52BD41BDFD
:1068A00080BD0FB6F894FA9AF99A0FBE4F5F5F4F0A
:1068B000443B510511F03196EDCFE3E0F8E08081E3
:1068C000F999FECF1FBA52BD41BD80BD0FB6F894F5
:1068D000FA9AF99A0FBE4F5F5F4F483B510511F08E
:1068E0003196EDCFEBE6F5E08081F999FECF1FBA46
:1068F00052BD41BD80BD0FB6F894FA9AF99A0FBE09
:106900004F5F5F4F443C510511F03196EDCF84EB62
:1069100090E09A83898386E490E09C838B832FEFB9
:1069200030E03E832D8380EF90E098878F8384E66C
:1069300090E09A8789873C872B87FE01319680817A
:10694000F999FECF1FBA52BD41BD80BD0FB6F89474
:10695000FA9AF99A0FBE4F5F5F4F463C510571F7A7
:10696000FE0133968081F999FECF1FBA52BD41BD19
:1069700080BD0FB6F894FA9AF99A0FBE4F5F5F4F39
:10698000483C510511F03196EDCFFE0135968081DE
:10699000F999FECF1FBA52BD41BD80BD0FB6F89424
:1069A000FA9AF99A0FBE4F5F5F4F4A3C510511F0BA
:1069B0003196EDCFFE0137968081F999FECF1FBA4F
:1069C00052BD41BD80BD0FB6F894FA9AF99A0FBE38
:1069D0004F5F5F4F4C3C510511F03196EDCFFE01FA
:1069E00039968081F999FECF1FBA52BD41BD80BD55
:1069F0000FB6F894FA9AF99A0FBE4F5F5F4F4E3C6C
:106A0000510511F03196EDCFFE013B968081F99949
:106A1000FECF1FBA52BD41BD80BD0FB6F894FA9AA1
:106A2000F99A0FBE4F5F5F4F403D510511F031960F
:106A3000EDCFE6E8F5E08081F999FECF1FBA52BDAF
:106A400041BD80BD0FB6F894FA9AF99A0FBE4F5F18
:106A50005F4F443D510511F03196EDCFE2EAF3E08E
:106A60008081F999FECF1FBA52BD41BD80BD0FB6DE
:106A7000F894FA9AF99A0FBE4F5F5F4F483D51055F
:106A800011F03196EDCFE6EAF3E08081F999FECF7F
:106A90001FBA52BD41BD80BD0FB6F894FA9AF99A5B
:106AA0000FBE4F5F5F4F4C3D510511F03196EDCF5A
:106AB000EAEAF3E08081F999FECF1FBA52BD41BDE9
:106AC00080BD0FB6F894FA9AF99A0FBE4F5F5F4FE8
:106AD000403E510511F03196EDCF80E290E09E8767
:106AE0008D87FE013D968081F999FECF1FBA52BD78
:106AF00041BD80BD0FB6F894FA9AF99A0FBE413E97
:106B0000510521F0319641EE50E0EDCF20915A052C
:106B1000F999FECF1FBA82EE90E092BD81BD20BDF3
:106B20000FB6F894FA9AF99A0FBEE4E8F3E083EE10
:106B300090E02081F999FECF1FBA92BD81BD20BDA2
:106B40000FB6F894FA9AF99A0FBE863E910519F09D
:106B500001963196EECF80911B0290911C02A0917C
:106B60001D02B0911E028B8B9C8BAD8BBE8BFE01E8
:106B7000739684E690E02081F999FECF1FBA92BD0A
:106B800081BD20BD0FB6F894FA9AF99A0FBE8736E8
:106B9000910519F001963196EECFE9E8FBE094916A
:106BA00008C08091C00085FFFCCF9093C60031964D
:106BB00094919923B1F7E2E7FBE0949108C08091AA
:106BC000C00085FFFCCF9093C60031969491992325
:106BD000B1F78091C00085FFFCCF8AE08093C600AA
:106BE00066960FB6F894DEBF0FBECDBFCF91DF9192
:106BF0000895DF93CF93CDB7DEB7E0970FB6F89443
:106C0000DEBF0FBECDBFDE011196EBE1F4E080E107
:106C100001900D928150E1F7DE015196EBE0F4E036
:106C200080E101900D928150E1F7DE019196EBEF4A
:106C3000F3E080E101900D928150E1F789819A8122
:106C4000AB81BC818093CF079093D007A093D107ED
:106C5000B093D20789899A89AB89BC898093BF0791
:106C60009093C007A093C107B093C20789A19AA1CE
:106C7000ABA1BCA18093DF079093E007A093E1074D
:106C8000B093E2078D819E81AF81B8858093D30751
:106C90009093D407A093D507B093D6078D899E898A
:106CA000AF89B88D8093C3079093C407A093C5079D
:106CB000B093C6078DA19EA1AFA1B8A58093E307AD
:106CC0009093E407A093E507B093E60789859A853A
:106CD000AB85BC858093D7079093D807A093D9073D
:106CE000B093DA07898D9A8DAB8DBC8D8093C707E1
:106CF0009093C807A093C907B093CA0789A59AA51E
:106D0000ABA5BCA58093E7079093E807A093E9079C
:106D1000B093EA078D859E85AF85B8898093DB07A0
:106D20009093DC07A093DD07B093DE078D8D9E8DD9
:106D3000AF8DB8A18093CB079093CC07A093CD07DC
:106D4000B093CE078DA59EA5AFA5B8A98093EB07FC
:106D50009093EC07A093ED07B093EE070E94817B20
:106D600080E090E0AAEFB4E48093F3079093F407F7
:106D7000A093F507B093F60780E090E8ABE3B5E4A5
:106D80008093F7079093F807A093F907B093FA0759
:106D900020E030E040E050E02093EF073093F00730
:106DA0004093F1075093F20780E29EE4A0E0B0E048
:106DB0008093BB079093BC07A093BD07B093BE0719
:106DC00020930708309308084093090850930A0855
:106DD00080E090E0A0E4B1E48093FB079093FC078F
:106DE000A093FD07B093FE078DEC9CECACECBEE3EA
:106DF0008093FF0790930008A0930108B0930208C6
:106E000080E090E0A0E2B1E480930308909304084E
:106E1000A0930508B093060820937305309374057A
:106E2000409375055093760520936F053093700558
:106E3000409371055093720520936B0530936C0558
:106E400040936D0550936E058DE39AE0A7EBBFE389
:106E50008093860590938705A0938805B093890554
:106E60008CEE91E5A6EEB1E48093A2039093A30388
:106E7000A093A403B093A50361EE7AE784EF9FE3A8
:106E80000E94346B6093A6037093A7038093A803BA
:106E90009093A9036FE175E089ED92E40E94406B45
:106EA0006093AA037093AB038093AC039093AD03FC
:106EB0000E94526A80E090E0A0E8BFE38093AE03B6
:106EC0009093AF03A093B003B093B10310925A050F
:106ED00080E090E0A0E4B0E4809384039093850385
:106EE000A0938603B0938703FED5E9E8FBE0949175
:106EF00008C08091C00085FFFCCF9093C6003196FA
:106F000094919923B1F7EEE6F9E0949108C080914D
:106F1000C00085FFFCCF9093C600319694919923D1
:106F2000B1F78091C00085FFFCCF8AE08093C60056
:106F3000E0960FB6F894DEBF0FBECDBFCF91DF91C4
:106F40000895CF93DF93C9E8DBE0FE01949108C078
:106F50008091C00085FFFCCF9093C600319694913C
:106F60009923B1F7E2E6FBE0949108C08091C0005C
:106F700085FFFCCF9093C600319694919923B1F789
:106F80008091C00085FFFCCF8AE08093C600FE019F
:106F90009491E9E8FBE008C08091C00085FFFCCF38
:106FA0009093C600319694919923B1F74091CF0701
:106FB0005091D0076091D1077091D2078AE59BE08C
:106FC0000E94EB434091D3075091D4076091D507BD
:106FD0007091D60787E59BE00E94EB434091D7076D
:106FE0005091D8076091D9077091DA0784E59BE04A
:106FF0000E94EB434091DB075091DC076091DD0775
:107000007091DE0781E59BE00E94EB43EFE1F2E047
:1070100007C08091C00085FFFCCF31969093C600D9
:1070200090819923B1F78091C00085FFFCCF8AE061
:107030008093C600FE019491E9E8FBE008C08091CE
:10704000C00085FFFCCF9093C600319694919923A0
:10705000B1F7E7E3FBE0949108C08091C00085FFA1
:10706000FCCF9093C600319694919923B1F780910B
:10707000C00085FFFCCF8AE08093C600FE0194919A
:10708000E9E8FBE008C08091C00085FFFCCF909349
:10709000C600319694919923B1F74091BF07509162
:1070A000C0076091C1077091C2078EE29BE00E9409
:1070B000EB434091C3075091C4076091C50770919D
:1070C000C6078BE29BE00E94EB434091C7075091BB
:1070D000C8076091C9077091CA0788E29BE00E94C7
:1070E000EB434091CB075091CC076091CD07709155
:1070F000CE0785E29BE00E94EB43EFE1F2E007C0A0
:107100008091C00085FFFCCF31969093C60090819E
:107110009923B1F78091C00085FFFCCF8AE080936E
:10712000C600FE019491E9E8FBE008C08091C00030
:1071300085FFFCCF9093C600319694919923B1F7C7
:10714000E7E0FBE0949108C08091C00085FFFCCF90
:107150009093C600319694919923B1F78091C00025
:1071600085FFFCCF8AE08093C600FE019491E9E898
:10717000FBE008C08091C00085FFFCCF9093C60063
:10718000319694919923B1F74091DF075091E00730
:107190006091E1077091E2078EEF9AE00E94FE4352
:1071A0004091E3075091E4076091E5077091E6078D
:1071B0008BEF9AE00E94FE434091E7075091E80769
:1071C0006091E9077091EA0788EF9AE00E94FE4318
:1071D0004091EB075091EC076091ED077091EE073D
:1071E00085EF9AE00E94FE43EFE1F2E007C0809154
:1071F000C00085FFFCCF31969093C6009081992303
:10720000B1F78091C00085FFFCCF8AE08093C60073
:10721000FE019491E9E8FBE008C08091C00085FF81
:10722000FCCF9093C600319694919923B1F7E0EC8E
:10723000FAE0949108C08091C00085FFFCCF909344
:10724000C600319694919923B1F78091C00085FFD3
:10725000FCCF8AE08093C600FE019491E9E8FBE050
:1072600008C08091C00085FFFCCF9093C600319686
:1072700094919923B1F74091F3075091F4076091ED
:10728000F5077091F60787EB9AE00E94EB43409177
:10729000F7075091F8076091F9077091FA0784EBAE
:1072A0009AE00E94EB43EFE1F2E007C08091C0005A
:1072B00085FFFCCF31969093C60090819923B1F75A
:1072C0008091C00085FFFCCF8AE08093C600FE015C
:1072D0009491E9E8FBE008C08091C00085FFFCCFF5
:1072E0009093C600319694919923B1F7E1E0FAE0CA
:1072F000949108C08091C00085FFFCCF9093C60098
:10730000319694919923B1F78091C00085FFFCCF0D
:107310008AE08093C600FE019491E9E8FBE008C092
:107320008091C00085FFFCCF9093C6003196949168
:107330009923B1F74091EF075091F0076091F10761
:107340007091F20788EF99E00E94EB4340910708A3
:10735000509108086091090870910A0885EF99E03A
:107360000E94EB434091BB075091BC076091BD0761
:107370007091BE0782EF99E00E94FE434091FB07A7
:107380005091FC076091FD077091FE078FEE99E028
:107390000E94EB434091FF07509100086091010863
:1073A000709102088CEE99E00E94EB434091030833
:1073B00050910408609105087091060889EE99E0E3
:1073C0000E94EB43EFE1F2E007C08091C00085FF2F
:1073D000FCCF31969093C60090819923B1F78091AC
:1073E000C00085FFFCCF8AE08093C600FE01949127
:1073F000E9E8FBE008C08091C00085FFFCCF9093D6
:10740000C600319694919923B1F7E7EDF9E0949194
:1074100008C08091C00085FFFCCF9093C6003196D4
:1074200094919923B1F78091C00085FFFCCF8AE049
:107430008093C600FE019491E9E8FBE008C08091CA
:10744000C00085FFFCCF9093C6003196949199239C
:10745000B1F740916B0550916C0560916D0570918D
:107460006E058EEC99E00E94EB4340916F055091C0
:10747000700560917105709172058BEC99E00E9426
:10748000EB434091730550917405609175057091BF
:10749000760588EC99E00E94EB43EFE1F2E007C04B
:1074A0008091C00085FFFCCF31969093C6009081FB
:1074B0009923B1F78091C00085FFFCCF8AE08093CB
:1074C000C600FE019491E9E8FBE008C08091C0008D
:1074D00085FFFCCF9093C600319694919923B1F724
:1074E000EAEBF9E0949108C08091C00085FFFCCFE1
:1074F0009093C600319694919923B1F78091C00082
:1075000085FFFCCF8AE08093C600FE019491E9E8F4
:10751000FBE008C08091C00085FFFCCF9093C600BF
:10752000319694919923B1F74091A2035091A3030E
:107530006091A4037091A50380EB99E00E94EB4356
:107540006091A6037091A7038091A8039091A9036D
:107550000E943A6BAB01BC018DEA99E00E94EB43BB
:107560006091AA037091AB038091AC039091AD033D
:107570000E94466BAB01BC018AEA99E00E94EB4392
:10758000EFE1F2E007C08091C00085FFFCCF3196AB
:107590009093C60090819923B1F78091C00085FF38
:1075A000FCCF8AE08093C600DF91CF9108950F93BE
:1075B0001F93DF93CF93CDB7DEB766970FB6F894DE
:1075C000DEBF0FBECDBF80911B0290911C02A09127
:1075D0001D02B0911E028B8B9C8BAD8BBE8BFE016E
:1075E0003F9604E610E0F999FECF12BD01BDF89A6E
:1075F00080B580830F5F1F4F0836110511F031965B
:10760000F2CFCE014396BE01615F7F4F43E050E071
:107610000E94C00E009709F0B3C1EFECF7E0F999B2
:10762000FECF12BD01BDF89A80B580830F5F1F4F5A
:107630000837110511F03196F2CFEFEBF7E0F99929
:10764000FECF12BD01BDF89A80B580830F5F1F4F3A
:107650000838110511F03196F2CFEFEDF7E0F99906
:10766000FECF12BD01BDF89A80B580830F5F1F4F1A
:107670000839110511F03196F2CF0E94817BE3EFBA
:10768000F7E0F999FECF12BD01BDF89A80B580836D
:107690000F5F1F4F0C39110511F03196F2CFE7EF54
:1076A000F7E0F999FECF12BD01BDF89A80B580834D
:1076B0000F5F1F4F003A110511F03196F2CFEFEE38
:1076C000F7E0F999FECF12BD01BDF89A80B580832D
:1076D0000F5F1F4F043A110511F03196F2CFE7E02A
:1076E000F8E0F999FECF12BD01BDF89A80B580830C
:1076F0000F5F1F4F083A110511F03196F2CFEBEBF7
:10770000F7E0F999FECF12BD01BDF89A80B58083EC
:107710000F5F1F4F0C3A110511F03196F2CFEBEFCE
:10772000F7E0F999FECF12BD01BDF89A80B58083CC
:107730000F5F1F4F003B110511F03196F2CFEFEFB5
:10774000F7E0F999FECF12BD01BDF89A80B58083AC
:107750000F5F1F4F043B110511F03196F2CFE3E0AC
:10776000F8E0F999FECF12BD01BDF89A80B580838B
:107770000F5F1F4F083B110511F03196F2CFEBE67A
:10778000F5E0F999FECF12BD01BDF89A80B580836E
:107790000F5F1F4F043C110511F03196F2CFFE012F
:1077A0003196F999FECF12BD01BDF89A80B580835C
:1077B0000F5F1F4F063C110599F7FE013396F999AB
:1077C000FECF12BD01BDF89A80B580830F5F1F4FB9
:1077D000083C110511F03196F2CFFE013596F9996A
:1077E000FECF12BD01BDF89A80B580830F5F1F4F99
:1077F0000A3C110511F03196F2CFFE013796F99946
:10780000FECF12BD01BDF89A80B580830F5F1F4F78
:107810000C3C110511F03196F2CFFE013996F99921
:10782000FECF12BD01BDF89A80B580830F5F1F4F58
:107830000E3C110511F03196F2CFFE013B96F999FD
:10784000FECF12BD01BDF89A80B580830F5F1F4F38
:10785000003D110511F03196F2CFE6E8F5E0F99917
:10786000FECF12BD01BDF89A80B580830F5F1F4F18
:10787000043D110511F03196F2CFE2EAF3E0F999F7
:10788000FECF12BD01BDF89A80B580830F5F1F4FF8
:10789000083D110511F03196F2CFE6EAF3E0F999CF
:1078A000FECF12BD01BDF89A80B580830F5F1F4FD8
:1078B0000C3D110511F03196F2CFEAEAF3E0F999A7
:1078C000FECF12BD01BDF89A80B580830F5F1F4FB8
:1078D000003E110511F03196F2CFFE013D96F99967
:1078E000FECF12BD01BDF89A80B58083013E11051F
:1078F00021F0319601EE10E0F2CFF999FECF82EE41
:1079000090E092BD81BDF89A80B580935A05E4E875
:10791000F3E023EE30E0F999FECF32BD21BDF89AB5
:1079200080B58083263E310521F02F5F3F4F319691
:10793000F2CFD9D00E94526AE9E8FBE0949108C0E6
:107940008091C00085FFFCCF9093C6003196949142
:107950009923B1F7E0E9F9E0949108C08091C00063
:1079600085FFFCCF9093C600319694919923B1F78F
:107970008091C00085FFFCCF8AE08093C60001C0E3
:1079800038D9DFDA66960FB6F894DEBF0FBECDBFEA
:10799000CF91DF911F910F910895089580919605E1
:1079A000089567707070E82FF0E0EC50FB4E849102
:1079B0008B3030F48830B0F4863008F456C007C0FD
:1079C0008E30D8F08F50833008F04FC044C0809183
:1079D000B100887F8093B1008091B100862B8093A5
:1079E000B100089580919100887F809391008091EB
:1079F0009100862B8093910008958091A100887F4B
:107A00008093A1008091A0008C7F8093A000809142
:107A1000A100877E8093A1008091A100862B809396
:107A2000A1008091A0008093A0008091A0008C7F95
:107A30008093A0008091A10080618093A10080913B
:107A4000A100877F8093A1008FEF9FEF9093A70005
:107A50008093A600089580912101887F8093210161
:107A600080912101862B809321010895EF92FF924E
:107A70000F931F939B01AC0180915A05882321F13C
:107A8000CA01B90120E030E040E05FE30E941B98AA
:107A90007B018C0120E030E040E050E00E943B950B
:107AA000882391F0C801B701A80197010E941B9893
:107AB0009B01AC01CA012BED3FE049E450E40E9478
:107AC0001B989B01AC0104C020E030E040E85FE37C
:107AD00060E070E080E89FE30E9442951F910F9163
:107AE000FF90EF90089560918403709185038091D9
:107AF000860390918703BADF6093880370938903AC
:107B000080938A0390938B0308950E94256B809144
:107B10009605882309F036C081E080939605809110
:107B2000A1059091A205A091A305B091A405809311
:107B3000A5059093A605A093A705B093A805E2E834
:107B4000FBE0949108C08091C00085FFFCCF90932A
:107B5000C600319694919923B1F7EFE8FBE0949138
:107B600008C08091C00085FFFCCF9093C60031967D
:107B700094919923B1F78091C00085FFFCCF8AE0F2
:107B80008093C6000895CF93DF93F8940E94256BED
:107B9000179A10928305169A10928405159A1092DE
:107BA0008505149A84E060E00E943F93E2E8FBE0E0
:107BB000949108C08091C00085FFFCCF9093C600CF
:107BC000319694919923B1F7E5E0FCE0949108C0D7
:107BD0008091C00085FFFCCF9093C60031969491B0
:107BE0009923B1F78091C00085FFFCCF8AE0809394
:107BF000C6007894C5E0D0E006C068EC70E080E094
:107C000090E00E94A69121978FEFCF3FD807A9F768
:107C1000F894FFCF0E9498916093AB057093AC05E8
:107C20008093AD059093AE05E4E2FCE0949108C02A
:107C30008091C00085FFFCCF9093C600319694914F
:107C40009923B1F78091C00085FFFCCF8AE0809333
:107C5000C60008950E94989120919C0530919D0541
:107C600040919E0550919F05621B730B840B950BF1
:107C7000645C79408040904008F44AC00E9498912A
:107C800060939C0570939D0580939E0590939F053E
:107C9000079B0AC0069B08C0059B06C080917A0717
:107CA000882311F404990AC00E9498916093980562
:107CB0007093990580939A0590939B050E949891E3
:107CC000209198053091990540919A0550919B0516
:107CD000621B730B840B950B60567A4E804090406C
:107CE00028F4211531054105510549F486E060E08D
:107CF0000E94F29386E060E070E00C94619286E06E
:107D00006AEC0E94F29386E06AEC76E70C9461924A
:107D100008956F927F928F929F92AF92BF92CF926F
:107D2000DF92EF92FF920F931F93F82E6091B305AD
:107D30007091B4058091B5059091B6052091B70575
:107D40003091B8054091B9055091BA050E945697F7
:107D50003B014C0100D000D00DB71EB70F5F1F4F85
:107D600060917E0370917F03882777FD8095982F1F
:107D70000E94DD9520919D0330919E0340919F03C9
:107D80005091A0030E941B9820E030E040E752E4AD
:107D90000E94429520E030E048EC52E40E94429577
:107DA0005B016C01F8016082718282829382F482AD
:107DB00080918A0585838BE595E06FEB75E043EB59
:107DC00055E020E001E032E0E32E0E945866809109
:107DD000BF059091C005A091C105B091C2058093E7
:107DE0005B0590935C05A0935D05B0935E05809163
:107DF000C3059091C405A091C505B091C6058093B7
:107E00005F0590936005A0936105B0936205809132
:107E1000C7059091C805A091C905B091CA05809386
:107E2000630590936405A0936505B0936605809102
:107E3000CB059091CC05A091CD05B091CE05809356
:107E4000670590936805A0936905B0936A058DB79F
:107E50009EB706960FB6F8949EBF0FBE8DBF0E94C8
:107E600098916093AB057093AC058093AD059093AA
:107E7000AE051F910F91FF90EF90DF90CF90BF90D4
:107E8000AF909F908F907F906F9008954F925F92E8
:107E90006F927F928F929F92AF92BF92CF92DF921A
:107EA000EF92FF920F931F93DF93CF9300D00F9227
:107EB000CDB7DEB70E9498916093AB057093AC0587
:107EC0008093AD059093AE058091BF059091C0055C
:107ED000A091C105B091C20589839A83AB83BC830D
:107EE00060915B0570915C0580915D0590915E05E8
:107EF00029813A814B815C810E943B95882309F05E
:107F00009EC04090C3055090C4056090C505709018
:107F1000C60560915F057091600580916105909143
:107F20006205A30192010E943B95882309F087C056
:107F30000F920F92CDB6DEB60894C11CD11CE09012
:107F4000C705F090C8050091C9051091CA05609158
:107F50009D0370919E0380919F039091A00320E068
:107F600030E040E752E40E9442954B015C018AE810
:107F700095E0D6018D939C9369817A818B819C8158
:107F8000A3019201EBECCE2EE5E0DE2E0E94F38100
:107F90000F900F908091BF059091C005A091C105F1
:107FA000B091C20580935B0590935C05A0935D053D
:107FB000B0935E058091C3059091C405A091C5055D
:107FC000B091C60580935F0590936005A09361050D
:107FD000B09362058091C7059091C805A091C9052D
:107FE000B091CA058093630590936405A0936505DD
:107FF000B09366058091CB059091CC05A091CD05FD
:10800000B091CE058093670590936805A0936905AC
:10801000B0936A050F900F900F900F90CF91DF9162
:108020001F910F91FF90EF90DF90CF90BF90AF9096
:108030009F908F907F906F905F904F9008950F92D8
:108040000F92CDB6DEB60894C11CD11C4090C3057A
:108050005090C4056090C5057090C605E090C705B6
:10806000F090C8050091C9051091CA0560917E0382
:1080700070917F03882777FD8095982F0E94DD956A
:1080800020919D0330919E0340919F035091A00346
:108090000E941B9820E030E040E752E40E944295A5
:1080A00020E030E048EC52E40E9442954B015C0134
:1080B0008AE895E0F601918380835ECF83E595E0C1
:1080C0000E94A61DE7E2FCE0949108C08091C000E8
:1080D00085FFFCCF9093C600319694919923B1F718
:1080E0004091A1055091A2056091A3057091A4054E
:1080F0004F5F5F4F6F4F7F4F83E595E02AE030E0A1
:108100000E94641E8091C00085FFFCCF8AE08093AE
:10811000C60080CD2F923F924F925F926F927F92D6
:108120008F929F92AF92BF92CF92DF92EF92FF9287
:108130000F931F93DF93CF93CDB7DEB762970FB640
:10814000F894DEBF0FBECDBF6D837E838F8398878B
:1081500029873A874B875C8720919D0330919E0346
:1081600040919F035091A00329833A834B835C8302
:1081700060917603709177038091780390917903F1
:1081800060939D0370939E0380939F039093A0033D
:10819000F3E62F2EF5E03F2EE0926305F0926405A2
:1081A00000936505109366050F920F92CDB6DEB66B
:1081B0000894C11CD11CABE5B5E02D913D914D91CA
:1081C0005C912D873E874F87588BF10172906290AA
:1081D00052904290FA8BE98B24E030E0220E331E5D
:1081E00020E030E040E752E40E9442954B015C0100
:1081F000EAE8F5E0D601ED93FC936D857E858F85E9
:108200009889A301920161010E94F3810F900F9060
:108210000E946D1480E090EAACE8B6E480939D0380
:1082200090939E03A0939F03B093A0032D813E8162
:108230004F815885ABE5B5E02D933D934D935C930D
:10824000139729853A854B855C85A989BA892D9331
:108250003D934D935C9313970F920F92E0906305BB
:10826000F090640500916505109166052AE835E0F7
:10827000EDB7FEB7328321836D817E818F81988532
:1082800029853A854B855C850F2EF0E08F2EF0E036
:108290009F2EF6E9AF2EF3E4BF2EF02D0E94F3815E
:1082A0000F900F900E946D1489819A81AB81BC81DF
:1082B00080939D0390939E03A0939F03B093A0038C
:1082C00062960FB6F894DEBF0FBECDBFCF91DF919F
:1082D0001F910F91FF90EF90DF90CF90BF90AF90E4
:1082E0009F908F907F906F905F904F903F902F90D6
:1082F000089580919D0390919E03A0919F03B0915A
:10830000A0038093D4059093D505A093D605B09390
:10831000D70580917E0390917F03909359058093B8
:10832000580584E690E090937F0380937E030E943B
:1083300098916093AB057093AC058093AD059093D5
:10834000AE0581E00C9468112F923F924F925F929C
:108350006F927F928F929F92AF92BF92CF92DF9255
:10836000EF92FF920F931F93DF93CF93CDB7DEB7BA
:108370006C970FB6F894DEBF0FBECDBF9C8F8B8F6E
:108380008330910508F00EC2FC01EE5CF14FB49011
:108390001C01220C331C220C331C9101255A3A4F2C
:1083A0003E832D8380E090E0A0E0B0E0F90180837F
:1083B0009183A283B38360915B0570915C0580918A
:1083C0005D0590915E0520915F05309160054091BB
:1083D000610550916205E0906305F090640500919D
:1083E000650510916605B7E6CB2EB5E0DB2E0E9441
:1083F000C97BF101EB5CF14FE590F590059114918B
:108400006B2D772767FD7095882777FD8095982FCE
:108410000E94DD9569837A838B839C83910121542B
:108420003A4F38872F83C801B70120E030E040EC95
:108430005FE30E941B9829813A814B815C810E94F5
:108440001B98AF81B8856D937D938D939C93139703
:10845000F101E259FC4FFA87E987608171818281DD
:10846000938160939D0370939E0380939F039093E9
:10847000A0030F920F92CDB6DEB60894C11CD11C9A
:108480004090BF055090C0056090C1057090C20536
:108490002091C3053091C4054091C5055091C60592
:1084A0002B873C874D875E87E090C705F090C80515
:1084B0000091C9051091CA0520E030E040E752E480
:1084C0000E9442954B015C01EAE8F5E0D601ED938C
:1084D000FC93C301B2012B853C854D855E85ABECD9
:1084E000CA2EA5E0DA2E0E94F3810F900F900E9411
:1084F0006D1420E030E040E050E0AD81BE812D936E
:108500003D934D935C93139760915B0570915C056F
:1085100080915D0590915E0520915F053091600529
:108520004091610550916205E0906305F09064050B
:108530000091650510916605F7E6CF2EF5E0DF2E78
:108540000E94C97BF101EB59F14F45905590659020
:108550007490C301B201905829813A814B815C81AA
:108560000E941B98EF81F8856083718382839383D7
:108570000F920F92CDB6DEB60894C11CD11C20918B
:10858000BF053091C0054091C1055091C2052F87AC
:10859000388B498B5A8B8091C3059091C405A0916B
:1085A000C505B091C6058B8B9C8BAD8BBE8BE090C7
:1085B000C705F090C8050091C9051091CA056091E2
:1085C0009D0370919E0380919F039091A00320E0F2
:1085D00030E040E752E40E9442954B015C01EAE83A
:1085E000F5E0D601ED93FC936F85788989899A89A6
:1085F0002B893C894D895E89EBECCE2EE5E0DE2EA1
:108600000E94F3810F900F900E946D14C301B2017C
:10861000A30192010E94629429813A814B815C817D
:108620000E941B98AF81B8856D937D938D939C9329
:108630001397E985FA85608171818281938120E0B9
:1086400030E040E05FE30E941B9860939D037093CD
:108650009E0380939F039093A0030F920F92CDB639
:10866000DEB60894C11CD11C4090BF055090C005D7
:108670006090C1057090C2052091C3053091C4057A
:108680004091C5055091C6052F8B388F498F5A8F61
:10869000E090C705F090C8050091C9051091CA0582
:1086A00020E030E040E752E40E9442954B015C013B
:1086B000EAE8F5E0D601ED93FC93C301B2012F89FE
:1086C000388D498D5A8DBBECCB2EB5E0DB2E0E9448
:1086D000F3810F900F900E946D14F101EF5BF14F49
:1086E0006591759185919491F101E559FA4FA080BA
:1086F000B180C280D380A60195010E9462947B0163
:108700008C01CB01D801ED81FE8180839183A2830E
:10871000B383F101E35BF14F65917591859194917C
:10872000A7E78A2EA5E09A2E820C931CA60195013C
:108730000E946294D4016D937D938D939C931397C3
:10874000F101E75AF14F6591759185919491ECE8AB
:10875000F3E02E0E3F1EA60195010E946294D10106
:108760006D937D938D939C931397C701D801EF81EF
:10877000F88580839183A283B38320E030E040E0DA
:1087800050E020939D0330939E0340939F035093AA
:10879000A0030E9461114B8D5C8D4D575A4F81E0B3
:1087A000DA018C936C960FB6F894DEBF0FBECDBF86
:1087B000CF91DF911F910F91FF90EF90DF90CF90BD
:1087C000BF90AF909F908F907F906F905F904F90F1
:1087D0003F902F900895FC01949108C08091C000B3
:1087E00085FFFCCF9093C600319694919923B1F701
:1087F00083E595E022E030E00C946A1FFC0194913F
:1088000008C08091C00085FFFCCF9093C6003196D0
:1088100094919923B1F783E595E02AE030E00C9438
:10882000481E4091DA055091DB0520E630E0B901A1
:10883000469F9001479F300D569F300D1124682FA1
:10884000772767FD7095C90184529A4F0E94AC0E3C
:108850009C019093D9058093D80580E0232B09F0E3
:1088600081E008952F923F924F925F926F927F9294
:108870008F929F92AF92BF92CF92DF92EF92FF9230
:108880000F931F93DF93CF93CDB7DEB72E970FB61D
:10889000F894DEBF0FBECDBF88EB93E00E94147743
:1088A00060917603709177038091780390917903BA
:1088B00060939D0370939E0380939F039093A00306
:1088C0000F920F92CDB6DEB60894C11CD11CE09079
:1088D0005B05F0905C0500915D0510915E05409090
:1088E0005F0550906005609061057090620527E615
:1088F000222E25E0322E20E030E040E752E40E94B4
:1089000042954B015C01EAE8F5E0D601ED93FC935A
:10891000C801B701A30192010F2EF0E0EF2EF0E0A5
:10892000FF2EF0E20F2FF1EC1F2FF02D61010E94BE
:10893000F3810F900F900E946D1482E00E94CE117F
:108940004B015C0160915B0570915C0580915D0558
:1089500090915E0520915F05309160054091610521
:1089600050916205850174010E94C97B2DE63EE0AD
:10897000F90185919591A591B49189839A83AB83EF
:10898000BC83C501B40129813A814B815C810E947D
:1089900062946D837E838F8398870F920F92CDB6FA
:1089A000DEB60894C11CD11CE0905B05F0905C051C
:1089B00000915D0510915E0540905F055090600547
:1089C000609061057090620560919D0370919E03B7
:1089D00080919F039091A00320E030E040E752E4B3
:1089E0000E9442954B015C01EAE8F5E0D601ED9367
:1089F000FC93C801B701A3019201ED80FE800F81B5
:108A0000188561010E94F3810F900F900E946D14F0
:108A10006091760370917703809178039091790348
:108A200020E030E040E252E40E9442955B016C019C
:108A300060939D0370939E0380939F039093A00384
:108A40000F920F928DB79EB701969E878D874090AB
:108A50005B0550905C0560905D0570905E058091AF
:108A60005F0590916005A0916105B09162058987CD
:108A70009A87AB87BC8769817A818B819C8120E052
:108A800030E040E050EC0E941B989B01AC016D81EE
:108A90007E818F8198850E9462947B018C01C60142
:108AA000B50120E030E040E752E40E9442954B01DE
:108AB0005C01EAE8F5E0AD85BE85ED93FC93C3016A
:108AC000B20129853A854B855C8561010E94F3815D
:108AD0000F900F900E946D1482E00E94CE117B01D6
:108AE0008C01609363057093640580936505909392
:108AF000660560915B0570915C0580915D059091C4
:108B00005E0520915F0530916005409161055091AF
:108B100062050E94C97B2E960FB6F894DEBF0FBE89
:108B2000CDBFCF91DF911F910F91FF90EF90DF901C
:108B3000CF90BF90AF909F908F907F906F905F90FD
:108B40004F903F902F9008956F927F928F929F92B7
:108B5000AF92BF92CF92DF92EF92FF920F931F934B
:108B60005B016C0139014A0160915B0570915C0504
:108B700080915D0590915E0520915F0530916005C3
:108B80004091610550916205C5DAE0906305F0906F
:108B900064050091650510916605C601B501A40143
:108BA0009301B8DA5FDE1091630500916405F090DF
:108BB0006505E0906605E2E8FEE0949108C08091CA
:108BC000C00085FFFCCF9093C60031969491992305
:108BD000B1F7EDE7FEE0949108C08091C00085FFF9
:108BE000FCCF9093C600319694919923B1F783E519
:108BF00095E0B601A50122E030E00E946A1FE8E797
:108C0000FEE0949108C08091C00085FFFCCF909356
:108C1000C600319694919923B1F783E595E0B401AC
:108C2000A30122E030E00E946A1FE3E7FEE0949196
:108C300008C08091C00085FFFCCF9093C60031969C
:108C400094919923B1F783E595E0212F302FEF2DF3
:108C5000FE2DA901BF0122E030E00E946A1FE1E77A
:108C6000FEE0949108C08091C00085FFFCCF9093F6
:108C7000C600319694919923B1F7212F302F4F2DB3
:108C80005E2DB901CA011F910F91FF90EF90DF9007
:108C9000CF90BF90AF909F908F907F906F900895EE
:108CA0008091D8059091D905019660E070E04AE086
:108CB00050E00C944B0D8091D8059091D905019608
:108CC00060E070E00C94EE0BCF93DF93EC018091A9
:108CD0008A058093A00584E5A4DD882309F481C07A
:108CE000EADF0E94AF95262F6093A005662309F462
:108CF00078C0E9E8FBE0949108C08091C00085FF4E
:108D0000FCCF9093C600319694919923B1F7CD365C
:108D1000D105C1F0CE36D10544F4C836D105C1F035
:108D2000C936D10509F04DC010C0CA3DD10539F092
:108D3000CD3DD10509F045C0E0E2F2E03FC0E7E3F8
:108D4000F2E031C0EEE4F2E023C0E5E6F2E015C067
:108D5000ECE7F2E007C08091C00085FFFCCF3196C0
:108D60009093C60090819923B1F72BC08091C000E9
:108D700085FFFCCF31969093C60090819923B1F77F
:108D800020C08091C00085FFFCCF31969093C60033
:108D900090819923B1F715C08091C00085FFFCCF69
:108DA00031969093C60090819923B1F70AC08091C3
:108DB000C00085FFFCCF31969093C6009081992327
:108DC000B1F783E595E0622F40E050E00E94531E2A
:108DD0008091C00085FFFCCF8AE08093C60081E0CF
:108DE00001C080E0DF91CF910895AF92BF92CF9202
:108DF000DF92EF92FF920F931F93CF93DF933BE5A8
:108E0000E32E35E0F32ECFEBD5E000E010E0F801E3
:108E1000E55DFB4F808105DD882331F14CDF5B018F
:108E20006C01F801EC5AFA4F8081882311F061E05F
:108E300002C06091CF0570E0882777FD8095982F5C
:108E40000E94DD95F70120813181428153810E948A
:108E50001B989B01AC01C601B5010E946294688316
:108E600079838A839B8309C0F70180819181A281E4
:108E7000B38188839983AA83BB830F5F1F4F84E0EC
:108E800090E0E80EF91E24960430110509F0BFCFDA
:108E900086E4C7DC8823D9F00EDF7B018C01609368
:108EA000D0057093D1058093D2059093D30520E02F
:108EB00030E040E050E00E944997181644F4E092F8
:108EC0009D03F0929E0300939F031093A003DF91F4
:108ED000CF911F910F91FF90EF90DF90CF90BF90B7
:108EE000AF90089582DF89E49CDC882351F0E3DEB3
:108EF0006093B3057093B4058093B5059093B60560
:108F00000CC080E090E0A0E0B0E08093B3059093C7
:108F1000B405A093B505B093B6058AE482DC882336
:108F200051F0C9DE6093B7057093B8058093B90519
:108F30009093BA05089580E090E0A0E0B0E08093BF
:108F4000B7059093B805A093B905B093BA050895F5
:108F50009F92AF92BF92CF92DF92EF92FF920F93C8
:108F60001F93CF93DF9350E6C52ED12CE6E8FEE0A9
:108F7000B4904AE0A42E992493940DC22D3071F040
:108F80002A3321F480915D07882341F080915E07A8
:108F900090915F078F3591050CF4D9C1E0915E0780
:108FA000F0915F07309719F410925D072DC2A091E0
:108FB0006007B0916107AC9D8001AD9D100DBC9D17
:108FC000100D1124E00FF11FE452FA4F108280912E
:108FD0005D07882309F0B6C110925D07AE59B84FFE
:108FE0001C92E801C452DA4FCE016EE470E00E9498
:108FF000AC0E9C01009709F4F7C09093D9058093BB
:10900000D8052F5F3F4F2C1B3D0B200F311FC9018F
:1090100084529A4F60E070E04AE050E00E944B0DAD
:10902000609366077093670780936807909369075A
:10903000E090A105F090A2050091A3051091A40570
:10904000A80197012F5F3F4F4F4F5F4F6217730784
:109050008407950709F4BEC180916007909161076C
:109060009C012C9DC0012D9D900D3C9D900D1124C7
:1090700084529A4F62EA7FE00E94920E892B09F097
:10908000A9C1E2E8FBE0949108C08091C00085FF8F
:10909000FCCF9093C600319694919923B1F7EFE6F7
:1090A000FFE0949108C08091C00085FFFCCF9093B1
:1090B000C600319694919923B1F783E595E0B80104
:1090C000A7012AE030E00E94641E8091C00085FF65
:1090D000FCCF73C01E274F5FFC01E40FF11DE4526B
:1090E000FA4FE081EA32B1F73093D9052093D805E1
:1090F000C901019660E070E00E94EE0B0E94AA9503
:10910000212F30E02617370709F45DC0E2E8FBE0C5
:10911000949108C08091C00085FFFCCF9093C60059
:10912000319694919923B1F7E0E5FFE0949108C05E
:109130008091C00085FFFCCF9093C600319694913A
:109140009923B1F74091A1055091A2056091A30523
:109150007091A40583E595E02AE030E00E94641E4A
:109160008091C00085FFFCCF28C0E2E8FBE094912D
:1091700008C08091C00085FFFCCF9093C600319657
:1091800094919923B1F7E6E2FFE0949108C08091B1
:10919000C00085FFFCCF9093C6003196949199232F
:1091A000B1F783E595E0B801A7012AE030E00E941D
:1091B000641E8091C00085FFFCCF8AE08093C600CA
:1091C0000E945E404AC08091660790916707A09117
:1091D0006807B09169078093A1059093A205A093B9
:1091E000A305B093A4053EC0CE016AE270E00E94E0
:1091F000AC0E009709F436C0E2E8FBE0949108C099
:109200008091C00085FFFCCF9093C6003196949169
:109210009923B1F7ECEFFEE0949108C08091C00073
:1092200085FFFCCF9093C600319694919923B1F7B6
:109230004091A1055091A2056091A3057091A405EC
:1092400083E595E02AE030E00E94641E8091C00032
:1092500085FFFCCF8AE08093C60010925F071092D2
:109260005E07D2C080916007909161078C9D80015C
:109270008D9D100D9C9D100D1124E801C452DA4FF4
:10928000CE0167E470E00E94AC0E9C01009771F182
:109290009093D9058093D8052F5F3F4F2C1B3D0B32
:1092A000200F311FC90184529A4F60E070E00E9484
:1092B000EE0B0E94AA9564307105C0F4809196056A
:1092C0008823A1F09B2DE6E8FEE008C08091C00055
:1092D00085FFFCCF9093C600319694919923B1F706
:1092E0008091C00085FFFCCFA092C60080916007EE
:1092F000909161079C012C9DC0012D9D900D3C9D7E
:10930000900D112484529A4F63E972E00E94B70EC7
:10931000009711F40E94C33D80916007909161070E
:10932000019664E070E00E94209990936107809319
:1093300060078091A9059091AA0501969093AA05CE
:109340008093A90510925F0710925E0724C02B330B
:1093500011F490925D0780915D078823E1F42091DC
:109360005E0730915F0780916007909161078C9D47
:10937000F0018D9DF00D9C9DF00D1124E20FF31F67
:10938000E452FA4F80915C0780832F5F3F4F309308
:109390005F0720935E0780914F05909150052091C3
:1093A000510530915205821B930B8F779070892B5A
:1093B00059F18091A9059091AA0504972CF583E5B0
:1093C00095E00E94881D282F80935C078A3009F061
:1093D000D5CDE4CD80916007909161078C9DE0012F
:1093E0008D9DD00D9C9DD00D1124CE0184529A4F9D
:1093F0006AE270E00E94AC0E9C01009709F4B5CEC1
:1094000010E040E0CE0168CEDF91CF911F910F9127
:10941000FF90EF90DF90CF90BF90AF909F90089516
:10942000DF92EF92FF920F931F93D82E8091A905A0
:109430009091AA0503970CF48BDD0E949891E0901F
:10944000AF05F090B0050091B1051091B2052091E3
:10945000AB053091AC054091AD055091AE05621B56
:10946000730B840B950BE616F7060807190738F4FB
:10947000E114F1040105110511F00E94C33D809132
:10948000990390919A03A0919B03B0919C0300973C
:10949000A105B10569F10E9498912091AB05309129
:1094A000AC054091AD055091AE05621B730B840B6A
:1094B000950B2091990330919A0340919B03509111
:1094C0009C03261737074807590790F49091FC0C26
:1094D0008091FD0C981761F4DD2051F4179A1092D9
:1094E0008305169A10928405159A10928505149A90
:1094F0000E942A3E0E94B67E1F910F91FF90EF902E
:10950000DF9008952F923F924F925F926F927F92D9
:109510008F929F92AF92BF92CF92DF92EF92FF9283
:109520000F931F93DF93CF93CDB7DEB7CB5CD040C3
:109530000FB6F894DEBF0FBECDBF87E472D9882383
:1095400011F40C94C153B7DB0E94AA956C317105DC
:1095500009F495C06D3171059CF462307105C9F153
:109560006330710524F477234CF50C94296463303F
:109570007105D9F16430710511F00C94296441C072
:109580006A35710511F40C9452536B35710554F41E
:109590006D31710509F481C46E31710511F00C94BF
:1095A0002964D6C76B35710511F40C9456536C358C
:1095B000710511F00C9429640C945B53809196050D
:1095C000882311F00C94296410DC0E94463F0C940F
:1095D000296480919605882311F00C94296482DC1B
:1095E00081E00E94893E0C9429648091960588232D
:1095F00011F00C94296476DC80E00E94893E0C9482
:10960000296480E50ED9882321F4EE24FF24870104
:1096100005C051DB0E94AF957B018C0183E501D928
:10962000882359F048DB20E030E04AE754E40E9408
:109630001B980E94AF957B018C010E946D140E94C3
:1096400098915B016C01AE0CBF1CC01ED11E0E9424
:1096500098916093AB057093AC058093AD059093A2
:10966000AE0504C00E94166F80E0DADE0E94989179
:109670006A157B058C059D05A8F30C94296488EB7D
:1096800093E00E94147784E190E0909368038093C4
:10969000670380919D0390919E03A0919F03B091D9
:1096A000A0038093D4059093D505A093D605B093DD
:1096B000D70580917E0390917F0390935905809305
:1096C000580584E690E090937F0380937E030E9488
:1096D00098916093AB057093AC058093AD05909322
:1096E000AE0581E00E94681180915B0590915C0558
:1096F000A0915D05B0915E058093BF059093C00574
:10970000A093C105B093C20580915F05909160055B
:10971000A0916105B09162058093C3059093C40543
:10972000A093C505B093C60580916305909164052B
:10973000A0916505B09166058093C7059093C80513
:10974000A093C905B093CA058091670590916805FB
:10975000A0916905B0916A058093CB059093CC05E3
:10976000A093CD05B093CE0580E090E0A0E0B0E0FE
:1097700080939D0390939E03A0939F03B093A003B7
:1097800088E54FD8882351F489E54BD8882331F4F4
:109790008AE547D8882311F481E001C080E08093F6
:1097A000A103882321F48AE53CD8882321F082E0B4
:1097B00090E00E94A4418091A103882351F488E5A0
:1097C00030D8882309F482C289E52BD8882309F48C
:1097D0007DC280E090E0A0E0B0E080935B059093D4
:1097E0005C05A0935D05B0935E0580935F05909343
:1097F0006005A0936105B0936205F2E36F2EFEE071
:109800007F2EF3018490E0906305F0906405009151
:10981000650510916605BC01CD019B01AC01E7E631
:10982000CE2EE5E0DE2E0E94C97BB5E34B2EBEE0D6
:109830005B2EF201659175918591949120E030E065
:1098400040EC5FE30E941B987B018C01992487FC0C
:109850009094AA2497FCA094BA2CC501B4010E944C
:10986000DD959B01AC01C801B7010E941B98609374
:10987000BF057093C0058093C1059093C205A4E015
:109880008A2E912C840C951CF4016591759185911B
:1098900094910894611C711CF301D49020E030E095
:1098A00040EC5FE30E941B987B018C016D2D7727B4
:1098B00067FD7095872F972F0E94DD959B01AC0166
:1098C000C801B7010E941B986093C3057093C4053B
:1098D0008093C5059093C60520916E0330916F0368
:1098E000409170035091710320939D0330939E0328
:1098F00040939F035093A003E0907203F090730392
:109900000091740310917503C801B7010E943B9543
:10991000882344F4E0929D03F0929E0300939F03FA
:109920001093A003F201A590B590C590D490F401D6
:10993000E590F59005911491C601B501A801970134
:109940000E94499718162CF4C801B701A601950189
:1099500004C0C601B501A80197010E9442959B0170
:10996000AC010E941B989B01AC01CA0120E030E0D1
:1099700040E85FE30E9462940E9488989B01AC01DA
:1099800060919D0370919E0380919F039091A0032D
:109990000E941B9860939D0370939E0380939F0386
:1099A0009093A0030F920F92CDB6DEB60894C11C1F
:1099B000D11C4090BF055090C0056090C1057090CB
:1099C000C2058091C3059091C405A091C505B091D1
:1099D000C605C054DF4F88839983AA83BB83C05CCC
:1099E000D040E090C705F090C8050091C9051091DE
:1099F000CA0560919D0370919E0380919F03909191
:109A0000A00320E030E040E752E40E9442954B0181
:109A10005C01FAE82F2EF5E03F2ED6012D923C9204
:109A2000C301B201C054DF4F288139814A815B8173
:109A3000C05CD040EBECCE2EE5E0DE2E0E94F38140
:109A40000F900F900E946D14E1E4FEE06591759116
:109A50008591949120916B0530916C0540916D0535
:109A600050916E050E9462943B014C0160935B052E
:109A700070935C0580935D0590935E05EDE4FEE0D8
:109A8000659175918591949120916B0530916C054C
:109A900040916D0550916E050E9462946093770528
:109AA000709378058093790590937A05E9E5FEE057
:109AB000659175918591949120916B0530916C051C
:109AC00040916D0550916E050E94629460938C03E5
:109AD00070938D0380938E0390938F03E5E4FEE0F3
:109AE000659175918591949120916F0530917005E4
:109AF00040917105509172050E9462945B016C0166
:109B000060935F0570936005809361059093620593
:109B1000E1E5FEE0659175918591949120916F0545
:109B20003091700540917105509172050E946294C8
:109B300060937B0570937C0580937D0590937E05F3
:109B4000EDE5FEE0659175918591949120916F0509
:109B50003091700540917105509172050E94629498
:109B60006093900370939103809392039093930377
:109B7000E0906305F090640500916505109166051D
:109B8000C401B301A6019501B7E6CB2EB5E0DB2EEB
:109B90000E94C97B80915B0590915C05A0915D0559
:109BA000B0915E05CC53DF4F88839983AA83BB8332
:109BB000C45CD0408093BF059093C005A093C105BD
:109BC000B093C20540905F055090600560906105BC
:109BD000709062054092C3055092C4056092C5051D
:109BE0007092C6050F920F92CDB6DEB60894C11CD6
:109BF000D11CE090C705F090C8050091C9051091EF
:109C0000CA0560919D0370919E0380919F0390917E
:109C1000A00320E030E040E752E40E9442954B016F
:109C20005C01D6012D923C92CC53DF4F6881798143
:109C30008A819B81C45CD040A3019201ABECCA2E07
:109C4000A5E0DA2E0E94F38180E090E0A0E0B0E091
:109C500080939D0390939E03A0939F03B093A003D2
:109C60000F900F900E946D140E9461118091BF05AA
:109C70009091C005A091C105B091C20580935B058C
:109C800090935C05A0935D05B0935E058091C3053C
:109C90009091C405A091C505B091C60580935F055C
:109CA00090936005A0936105B09362058091C7050C
:109CB0009091C805A091C905B091CA05809363052C
:109CC00090936405A0936505B09366058091A10308
:109CD000882329F488E50E941144882321F080E03C
:109CE00090E00E94A4418091A103882329F489E592
:109CF0000E941144882321F081E090E00E94A44159
:109D000088E50E9411448823D9F00E9450466115CD
:109D1000710581059105A1F00E945B4620916B05BC
:109D200030916C0540916D0550916E050E946294D2
:109D300060935B0570935C0580935D0590935E0571
:109D400089E50E9411448823D9F00E94504661158C
:109D5000710581059105A1F00E945B4620916F0578
:109D60003091700540917105509172050E94629486
:109D700060935F0570936005809361059093620521
:109D80008AE50E9411448823D9F00E94504661154B
:109D9000710581059105A1F00E945B462091730534
:109DA0003091740540917505509176050E9462943A
:109DB00060936305709364058093650590936605D1
:109DC0008091A103882329F48AE50E941144882305
:109DD000D1F0609163057091640580916505909163
:109DE0006605209186053091870540918805509140
:109DF00089050E9462946093630570936405809363
:109E000065059093660560915B0570915C05809196
:109E10005D0590915E0520915F0530916005409150
:109E2000610550916205E0906305F0906405009132
:109E3000650510916605F7E6CF2EF5E0DF2E0E944E
:109E4000C97B8091D4059091D505A091D605B0919C
:109E5000D70580939D0390939E03A0939F03B09397
:109E6000A003809158059091590590937F038093AA
:109E70007E030E9498916093AB057093AC0580932C
:109E8000AD059093AE050E94611182E390E090933E
:109E90006803809367030C94296484E190E09093B5
:109EA00068038093670380918305882321F0809164
:109EB0008405882329F5E9E8FBE0949108C08091A6
:109EC000C00085FFFCCF9093C600319694919923F2
:109ED000B1F7E0E2FEE0949108C08091C00085FFF8
:109EE000FCCF9093C600319694919923B1F780915D
:109EF000C00085FFFCCF8AE08093C6000C942964E3
:109F00000E946D1488EB93E00E941477CE010D96A9
:109F10000E94C47C6D857E858F85988960935B05E2
:109F200070935C0580935D0590935E0529893A895D
:109F30004B895C8920935F053093600540936105F0
:109F400050936205ED88FE880F89188DE0926305B5
:109F5000F09264050093650510936605E7E6CE2E42
:109F6000E5E0DE2E0E94C97B0E9479418091760354
:109F700090917703A0917803B091790380939D032A
:109F800090939E03A0939F03B093A003C354DF4F0D
:109F90001882CD5BD04022243324E0EAF0E0C7549D
:109FA000DF4FF983E883C95BD040C554DF4F198286
:109FB0001882CB5BD040C254DF4F19821882CE5B2F
:109FC000D04028C0C354DF4FF881CD5BD040FF2381
:109FD00091F421E0C354DF4F2883CD5BD04080EA69
:109FE000282E312C80E69FEFC754DF4F998388835A
:109FF000C95BD0400FC0C354DF4F1882CD5BD04047
:10A0000022243324A0EAB0E0C754DF4FB983A883E9
:10A01000C95BD040C254DF4F88819981CE5BD0406C
:10A02000880F991F880F991FE1E3F0E0EC0FFD1FE7
:10A03000E80FF91FCB54DF4FF983E883C55BD040AD
:10A040001FE5412E512C4C0E5D1E480E591EC25468
:10A05000DF4F28813981CE5BD040CD54DF4F39832B
:10A060002883C35BD040C954DF4F19821882C75B75
:10A07000D040C554DF4F88819981CB5BD040AA275F
:10A0800097FDA095BA2FC853DF4F88839983AA8381
:10A09000BB83C85CD040CD54DF4FA881B981C35B7E
:10A0A000D040AB2B29F4EE24FF2400EA10E410C0CA
:10A0B00060916305709164058091650590916605D6
:10A0C00020E030E040EA50E40E9462947B018C0181
:10A0D000B101882777FD8095982F0E94DD953B017F
:10A0E0004C01C853DF4F688179818A819B81C85CAC
:10A0F000D0400E94DD955B016C01C401B301A60153
:10A1000095010E94A445CB54DF4FE881F981C55BDE
:10A11000D0406193719381939193CB54DF4FF98336
:10A12000E883C55BD040D2016D927D928D929C9266
:10A130001397F201A08AB18AC28AD38A80E090E0A4
:10A14000A0E8BFE380A391A3A2A3B3A3CD54DF4FA4
:10A1500028813981C35BD0402F5F3F4FCD54DF4F03
:10A1600039832883C35BD040C954DF4F88819981EC
:10A17000C75BD0400196C954DF4F99838883C75B82
:10A18000D040A4E0B0E04A0E5B1E029749F0C754ED
:10A19000DF4FE881F981C95BD0402E0E3F1E7BCF97
:10A1A000C254DF4F28813981CE5BD0402E5F3F4FB4
:10A1B000C254DF4F39832883CE5BD040C554DF4F74
:10A1C00088819981CB5BD04080569F4FC554DF4F2B
:10A1D00099838883CB5BD0402430310509F0F2CEDF
:10A1E0008091D4059091D505A091D605B091D70561
:10A1F00080939D0390939E03A0939F03B093A0032D
:10A20000809158059091590590937F0380937E0328
:10A210000E9498916093AB057093AC058093AD0557
:10A220009093AE0584E090E063E070E0AE01415AA7
:10A230005F4F9E012F5C3F4F0E94AF324C01EAE01E
:10A24000FEE0949108C08091C00085FFFCCF909300
:10A25000C600319694919923B1F7D4014D915D9147
:10A260006D917C9183E595E022E030E00E946A1FC9
:10A27000E5E0FEE0949108C08091C00085FFFCCF2E
:10A280009093C600319694919923B1F7F4014481DB
:10A2900055816681778183E595E022E030E00E9478
:10A2A0006A1FE0E0FEE0949108C08091C00085FF45
:10A2B000FCCF9093C600319694919923B1F7D401C5
:10A2C00018964D915D916D917C911B9783E595E07A
:10A2D00022E030E00E946A1F8091C00085FFFCCF21
:10A2E0008AE08093C600B9E1AB2EB12CAC0EBD1E46
:10A2F000F40140815181628173817058048115811C
:10A30000268137813058C5010F2EF0E0CF2EF0E0C6
:10A31000DF2EF0E8EF2EFFE3FF2EF02D0E9499755F
:10A32000C50168E972E00E94DB77AFE8AA2EB12C84
:10A33000AC0EBD1EC501C98CDA8CEB8CFC8C0D8D6E
:10A340001E8D2F8D38A149A15AA16BA17CA10E941D
:10A35000EF78A8EBB3E0F50184E201900D92815013
:10A36000E1F7CE0185960E94C47C6DA17EA18FA1EC
:10A3700098A560935B0570935C0580935D05909351
:10A380005E0529A53AA54BA55CA520935F053093F2
:10A3900060054093610550936205E0908605F0905A
:10A3A00087050091880510918905E0926305F09278
:10A3B00064050093650510936605F7E6CF2EF5E07A
:10A3C000DF2E0E94C97BC4010E94960B0E946D146F
:10A3D00082E00E94BC110E94DD952091D707309148
:10A3E000D8074091D9075091DA070E9442957B0126
:10A3F0008C0160915B0570915C0580915D05909189
:10A400005E0520E030E040E050E00E946294698305
:10A410007A838B839C8360915F0570916005809146
:10A4200061059091620520E030E040E050E00E943C
:10A4300062946D837E838F8398878091630590916A
:10A440006405A0916505B091660589879A87AB87F9
:10A45000BC872DB73EB72A5230400FB6F8943EBFA6
:10A460000FBE2DBFEDB7FEB731969F0148EB53E00D
:10A4700084E2DA010D90AD01D9010D929D01815068
:10A48000C1F7CE01019695A384A3CE01059697A3AB
:10A4900086A3CE01099691A780A70E94A076698520
:10A4A0007A858B859C85A80197010E9461942091F3
:10A4B00063053091640540916505509166050E94E1
:10A4C00062947B018C01CB01D8018093630590934A
:10A4D0006405A0936505B0936605EDB7FEB7BA961F
:10A4E0000FB6F894FEBF0FBEEDBF60915B05709193
:10A4F0005C0580915D0590915E0520915F0530912E
:10A5000060054091610550916205E7E6CE2EE5E0D9
:10A51000DE2E0E94C97B82E390E0909368038093D3
:10A520006703E2EFFDE0949108C08091C00085FFD1
:10A53000FCCF9093C600319694919923B1F7809106
:10A54000C00085FFFCCF8AE08093C6000C9429648C
:10A550000E946D140E947941809176039091770357
:10A56000A0917803B091790380939D0390939E030B
:10A57000A0939F03B093A0030E943244EEEEFDE04F
:10A58000949108C08091C00085FFFCCF9093C600D5
:10A59000319694919923B1F7E9EEFDE0949108C0CA
:10A5A0008091C00085FFFCCF9093C60031969491B6
:10A5B0009923B1F740915B0550915C0560915D0571
:10A5C00070915E0583E595E022E030E00E946A1F0D
:10A5D000E4EEFDE0949108C08091C00085FFFCCFBF
:10A5E0009093C600319694919923B1F740915F05FD
:10A5F00050916005609161057091620583E595E079
:10A6000022E030E00E946A1FEFEDFDE0949108C067
:10A610008091C00085FFFCCF9093C6003196949145
:10A620009923B1F7409163055091640560916505E8
:10A630007091660583E595E022E030E00E946A1F94
:10A64000EDEDFDE0949108C08091C00085FFFCCF46
:10A650009093C600319694919923B1F78091D405D7
:10A660009091D505A091D605B091D70580939D0313
:10A6700090939E03A0939F03B093A00380915805ED
:10A680009091590590937F0380937E030E94989147
:10A690006093AB057093AC058093AD059093AE05C8
:10A6A0000C9429641092CF050C94296481E0809366
:10A6B000CF050C94296485E40E941144882311F489
:10A6C0000E946D141BE5812E15E0912EBBE66B2ECA
:10A6D000B5E07B2EAA24BB24F501E55DFB4F80810C
:10A6E0000E9411448823E9F1F3E0AF1669F40E9457
:10A6F0005B46D4016D937D938D939C93139787E66E
:10A7000095E00E94AC7B2DC00E945B46F301208146
:10A710003181428153810E946294D4016D937D9373
:10A720008D939C93139760915B0570915C0580916C
:10A730005D0590915E0520915F0530916005409127
:10A74000610550916205E0906305F0906405009109
:10A75000650510916605A7E6CA2EA5E0DA2E0E94CF
:10A76000C97B0894A11CB11CE4E0F0E08E0E9F1E92
:10A770006E0E7F1EF4E0AF16B10409F0ADCF0C945D
:10A7800029648DE40E941144882311F40C944B63D6
:10A790000E945B460E94AA956C38710509F458C264
:10A7A0006D3871050CF083C06836710509F42CC250
:10A7B00069367105ECF56135710509F4DBC6623562
:10A7C0007105DCF46F31710509F424C16032710543
:10A7D00054F46131710509F417C16231710511F04A
:10A7E0000C942964E5C66A32710509F4C3C1603569
:10A7F000710511F00C942964B9C66435710509F42A
:10A80000D7C66535710554F46235710509F4C7C6BC
:10A810006335710511F00C942964C5C66535710561
:10A8200009F41FC76C35710511F00C94296434C705
:10A830006237710509F4DAC763377105DCF46B36EA
:10A84000710509F48DC66C36710554F469367105CD
:10A8500009F40FC26A36710511F00C94296431C6EF
:10A860006D36710509F429C36037710511F00C9438
:10A870002964EAC16737710509F4C3C068377105F7
:10A8800054F46337710509F490C76537710511F009
:10A890000C9429649AC76837710511F40C94EA5C2A
:10A8A0006937710511F00C9429640C94EE5C21E079
:10A8B0006E32720711F40C94A86031E06F327307A6
:10A8C0000CF047C06D3C710511F40C94CB5E6E3CEE
:10A8D0007105FCF4693C710511F40C946A5E6A3CE4
:10A8E00071055CF46E3B710509F4D9C4683C7105CF
:10A8F00011F00C9429640C94EE5D6B3C710511F41D
:10A900000C948D5E6C3C710511F00C9429640C94D0
:10A91000AB5E6D3D710511F40C94565F6E3D710593
:10A9200064F46E3C710511F40C94295F6C3D710563
:10A9300011F00C9429640C94475F623E710511F488
:10A940000C947D5F6D52714011F00C9429640C944D
:10A95000D05F91E0653F790711F40C94FD60A1E0B0
:10A96000663F7A0724F5B1E06F357B0711F40C944C
:10A97000CE62E1E060367E076CF4F1E06F327F0773
:10A9800011F40C94B7606E55714011F00C94296469
:10A990000C948E6231E06039730711F40C94F76007
:10A9A000645F714011F00C9429640C94FA6093E098
:10A9B0006335790711F40C940661A3E064357A07D6
:10A9C0006CF4B1E0663F7B0711F40C940061675FA3
:10A9D000714011F00C9429640C940361F3E06C381D
:10A9E0007F0711F40C94756223E0673E720711F43F
:10A9F0000C9436636B58734011F00C9429640C94DA
:10AA00000B62E4EAF2E0F5C71798169815981498C7
:10AA10000C9429640E949891609392057093930519
:10AA2000809394059093950520918E0530918F0524
:10AA30004091900550919105621B730B840B950B0F
:10AA400028EE33E040E050E00E943399F22EE32EEE
:10AA5000D42EC52E8DB79EB708970FB6F8949EBF1B
:10AA60000FBE8DBF0DB71EB70F5F1F4FCE018F5B9F
:10AA70009F4FADB7BEB712969C938E9311978EECF5
:10AA80009DE0F80193838283622F732F842F952F8B
:10AA90002CE330E040E050E00E943399D801159655
:10AAA0003C932E9314976F2D7E2D8D2D9C2D2CE392
:10AAB00030E040E050E00E943399F80177836683EC
:10AAC0000E94CE0EE9E8FBE094912DB73EB7285FD7
:10AAD0003F4F0FB6F8943EBF0FBE2DBF08C0809108
:10AAE000C00085FFFCCF9093C600319694919923C6
:10AAF000B1F7FE01EF5BFF4F07C08091C00085FFFB
:10AB0000FCCF31969093C60090819923B1F7809144
:10AB1000C00085FFFCCF8AE08093C60080912B089F
:10AB2000882311F40C94296410922B0880918A05D3
:10AB3000082F10E0000F111F0659184FD8016D9112
:10AB40007C91882777FD8095982F0E94DD95209134
:10AB5000E0033091E1034091E2035091E3030E944E
:10AB60004997181614F00C942964F8011182108288
:10AB70000C94296483E50E941144882311F40C94F9
:10AB800029640E945B460E94AA957B018C016B019F
:10AB900080E50E941144882369F0F7FC0BC0FFEFA9
:10ABA000EF16F10409F034F40E945B460E94AA9566
:10ABB0008B0102C00DE010E0EFE2F4E080819181B2
:10ABC0008017910711F40C942964329624E0E7363B
:10ABD000F207A1F70830110529F4D0928C05C09234
:10ABE0008B0504C017FF02C00C942964802F61E01C
:10ABF0000E943F93802F6C2D0E94F293802FB6010C
:10AC00000E9461920C94296488E690E00E94644658
:10AC1000882311F00C94296483E50E941144882351
:10AC200079F00E945B462091A005022F10E0000FF2
:10AC3000111F0659184F0E94AA95D8016D937C9355
:10AC40000E94246B0C9429640E94C33D0C942964D7
:10AC500083E50E941144882311F40C9429640E9416
:10AC60005B460E94AA9570936D0760936C070C94E5
:10AC7000296489E690E00E946446882311F00C94D0
:10AC80002964E8ECFDE0949108C08091C00085FF44
:10AC9000FCCF9093C600319694919923B1F7E0913F
:10ACA000A005F0E0EE0FFF1FEE0FFF1FE059F84F79
:10ACB000408151816281738183E595E021E030E03C
:10ACC0000E946A1FE5ECFDE0949108C08091C000ED
:10ACD00085FFFCCF9093C600319694919923B1F7EC
:10ACE000E091A005F0E0EE0FFF1FE659F84F6081FC
:10ACF0007181882777FD8095982F0E94DD95AB01A3
:10AD0000BC0183E595E021E030E00E946A1FE1ECA0
:10AD1000FDE0949108C08091C00085FFFCCF909326
:10AD2000C600319694919923B1F7409176075091DE
:10AD30007707609178077091790783E595E021E0C6
:10AD400030E00E946A1FEEEBFDE0949108C0809114
:10AD5000C00085FFFCCF9093C60031969491992353
:10AD6000B1F760916C0770916D07882777FD80952A
:10AD7000982F0E94DD95AB01BC0183E595E021E0B1
:10AD800030E00E946A1FEBEBFDE0949108C08091D7
:10AD9000C00085FFFCCF9093C60031969491992313
:10ADA000B1F783E595E060E070E04AE050E00E9492
:10ADB000971EE9EBFDE0949108C08091C00085FFEB
:10ADC000FCCF9093C600319694919923B1F74091AE
:10ADD000700750917107609172077091730783E556
:10ADE00095E021E030E00E946A1FE6EBFDE09491DF
:10ADF00008C08091C00085FFFCCF9093C6003196BB
:10AE000094919923B1F760916A0770916B07882735
:10AE100077FD8095982F0E94DD95AB01BC0183E5FD
:10AE200095E021E030E00E946A1FE2EBFDE09491A2
:10AE300008C08091C00085FFFCCF9093C60031967A
:10AE400094919923B1F78091A0050E94696ABC0191
:10AE500083E595E04AE050E00E94971EEDEAFDE0B0
:10AE6000949108C08091C00085FFFCCF9093C600EC
:10AE7000319694919923B1F78FEF9FEF0E94696A01
:10AE8000BC0183E595E04AE050E00E94971EEDEB9F
:10AE9000F2E007C08091C00085FFFCCF319690930F
:10AEA000C60090819923B1F78091C00085FFFCCF47
:10AEB0008AE08093C6000C944C648DE690E00E947A
:10AEC0006446882311F00C94296410922B0883E5C2
:10AED0000E941144882399F00E945B462091A005AE
:10AEE000022F10E0000F111F0659184F0E94AA955B
:10AEF000F8017183608381E08093980316C082E536
:10AF00000E941144882389F00E945B462091A0058D
:10AF1000022F10E0000F111F0659184F0E94AA952A
:10AF2000D8016D937C931092980383E50E9411449D
:10AF3000882351F00E945B466093E0037093E10325
:10AF40008093E2039093E30382E40E9411448823F8
:10AF500051F00E945B466093DC037093DD038093A5
:10AF6000DE039093DF0386E40E941144882369F096
:10AF70000E945B466093E4037093E5038093E603CD
:10AF80009093E70381E080932B080E94246B0E943A
:10AF900098914B015C012091A005022F10E01092C6
:10AFA0009705000F111FF801E659F84F6081718174
:10AFB000882777FD8095982F0E94DD95000F111F3F
:10AFC0000059184FF80120813181428153810E943C
:10AFD000499718161CF481E08093970510928D050F
:10AFE000CC24CA94DC2C7601EAEAFDE05490E6EA2F
:10AFF000FDE06490E2EAFDE07490BAE04B2E1DC1E2
:10B00000952DEAEAFDE008C08091C00085FFFCCFE5
:10B010009093C600319694919923B1F7E091A005E1
:10B02000F0E0EE0FFF1FEE0FFF1FE059F84F4081D9
:10B0300051816281738183E595E021E030E00E94D7
:10B040006A1F962DE6EAFDE008C08091C00085FFEA
:10B05000FCCF9093C600319694919923B1F76091FB
:10B06000A00583E595E070E04AE050E00E94971E5D
:10B07000972DE2EAFDE008C08091C00085FFFCCF7B
:10B080009093C600319694919923B1F7F7FE03C0CF
:10B09000EEEBF2E02CC00E9498916C197D098E09AC
:10B0A0009F090E94DB959B01AC0160E070E08AEF94
:10B0B00093E40E94619420E030E04AE754E40E9467
:10B0C00042950E94AF95AB01BC0183E595E02AE073
:10B0D00030E00E94481E8091C00085FFFCCF0EC06A
:10B0E0008091C00085FFFCCF31969093C60090817F
:10B0F0009923B1F78091C00085FFFCCF4092C60034
:10B100000E9498914B015C010E94166F80E00E94A2
:10B11000104AFFEFCF16FFEFDF06FFEFEF06FFEF5E
:10B12000FF0609F052C080919705E091A0058823A1
:10B1300031F1F0E08F01000F111F000F111F0059B6
:10B14000184FEE0FFF1FE659F84F60817181882775
:10B1500077FD8095982F0E94DD9520E030E040E259
:10B1600051E40E9461949B01AC01D8016D917D91E5
:10B170008D919C910E94499787FF58C05EC0F0E076
:10B180008F01000F111F000F111F0059184FEE0FF4
:10B19000FF1FE659F84F60817181882777FD809500
:10B1A000982F0E94DD9520E030E040E251E40E94BB
:10B1B00062949B01AC01F80160817181828193816D
:10B1C0000E943B95181694F538C0F7FC36C0E09104
:10B1D000A005F0E08F01000F111F000F111F005993
:10B1E000184FEE0FFF1FE659F84F608171818827D5
:10B1F00077FD8095982F0E94DD959B01AC01D801C9
:10B200006D917D918D919C910E9461940E94AA956F
:10B2100097FF07C090958095709561957F4F8F4FF0
:10B220009F4F6B307105810591053CF00E9498910C
:10B23000AC01CB01DA016C017D0180918D05882381
:10B2400011F00C942C64BFEFCB16BFEFDB06BFEF01
:10B25000EB06BFEFFB06B1F0F7FE02C00C942C64C6
:10B260000E9498916C197D0980E090E00E94DB9526
:10B2700020E030E04AEF53E40E943B95882314F02D
:10B280000C942C640E949891681979098A099B0989
:10B29000695E73408040904008F0B2CE35CF83E5C0
:10B2A0000E941144882361F00E945B460E94AA9587
:10B2B00070936D0760936C0781E0809398030FC0D3
:10B2C00082E50E941144882351F00E945B460E944F
:10B2D000AA9570936D0760936C07109298030E9473
:10B2E00098917B018C0110928D05109297056091C9
:10B2F0006C0770916D07882777FD8095982F0E94C5
:10B30000DD9520917607309177074091780750912D
:10B3100079070E94499718160CF081C081E080934C
:10B3200097057DC00E9498916E197F09800B910B43
:10B33000695E73408040904008F46BC0E0918A05DC
:10B34000F0E0EE0FFF1FEE0FFF1FE059F84F4081B6
:10B350005181628173819B2DEFE9FDE008C08091EE
:10B36000C00085FFFCCF9093C6003196949199233D
:10B37000B1F783E595E022E030E00E946A1F9C2D42
:10B38000EBE9FDE008C08091C00085FFFCCF909301
:10B39000C600319694919923B1F760918A0583E5AF
:10B3A00095E070E04AE050E00E94971E9D2DE7E98D
:10B3B000FDE008C08091C00085FFFCCF9093C600DF
:10B3C000319694919923B1F7409176075091770780
:10B3D000609178077091790783E595E021E030E08E
:10B3E0000E946A1FEDEBF2E007C08091C00085FF6C
:10B3F000FCCF31969093C60090819923B1F780914C
:10B40000C00085FFFCCFA092C6000E9498917B01EE
:10B410008C010E94166F80E00E94104A0BC0EFE979
:10B42000FDE0B490EBE9FDE0C490E7E9FDE0D490E5
:10B430008AE0A82E809197058823E1F080918D0500
:10B440008823C1F460916C0770916D07882777FDA0
:10B450008095982F0E94DD9520917607309177078F
:10B4600040917807509179070E94499718160CF47B
:10B4700059CF1BC060916C0770916D07882777FDCD
:10B480008095982F0E94DD9520917607309177075F
:10B4900040917807509179070E943B9588232CF4BE
:10B4A00080919803882309F43DCF0E94989160937E
:10B4B000AB057093AC058093AD059093AE050C94ED
:10B4C000296484E50E9411448823C9F00E945B46E8
:10B4D0000E94AF957093A7006093A60083E50E9439
:10B4E0001144882311F40C9429640E945B460E9445
:10B4F000AA9570938C0560938B050C94296483E561
:10B500000E941144882321F10E945B4620E030E034
:10B5100040E050E00E943B9588231CF460E070E01E
:10B5200011C00E945B4620E030E04FE753E40E94E8
:10B53000499718161CF46FEF70E004C00E945B4638
:10B540000E94AA9570938C0560938B050C942964D6
:10B550008FEF90E090938C0580938B050C94296479
:10B5600010928C0510928B050C9429649D9AA598D5
:10B570000C9429640E94256B0E946D14149A0E94F9
:10B580007A1410928C0510928B0568EE73E080E0BF
:10B5900090E00E94A6919D9AA59A0C94296410921D
:10B5A00057050C94296481E0809357050C94296415
:10B5B00083E50E9411448823A1F00E945B4620E0AD
:10B5C00030E04AE754E40E941B980E94AF956093D4
:10B5D000990370939A0380939B0390939C030C941C
:10B5E000296488E50E941144882311F00C94416479
:10B5F00089E50E941144882311F00C9441648AE586
:10B600000E941144882311F00C94416485E40E9447
:10B610001144882311F00C9441640E946D14149A13
:10B620000E947A140C942964179A1092830589E574
:10B630000E941144882319F0169A109284058AE515
:10B640000E941144882319F0159A1092850585E40B
:10B650000E941144882311F40C942964149A0C94C8
:10B66000296483E50E941144882311F40C94296411
:10B670000E945B4620E030E04AE754E40E941B98B9
:10B680000E94AF956093AF057093B0058093B105AC
:10B690009093B2050C9429640FEC602E07E0702E95
:10B6A0001FEB212E17E0312EBBE04B2EB8E05B2EB6
:10B6B00088249924F401E55DFB4F80810E941144A8
:10B6C000882309F460C023E0821609F054C00E9468
:10B6D0005B465B016C0120E030E040EA51E40E94EF
:10B6E0003B9588230CF041C0D3016D917D918D91E4
:10B6F0009C91A60195010E9442957B018C0160916D
:10B700000308709104088091050890910608A8012B
:10B7100097010E941B98609303087093040880931C
:10B72000050890930608F1016081718182819381FF
:10B73000A80197010E941B98D1016D937D938D9371
:10B740009C931397F20160817181828193810E94A1
:10B75000DB95A80197010E941B980E94AF95D2012A
:10B760006D937D938D939C931397F301A082B18287
:10B77000C282D38208C00E945B46D3016D937D9341
:10B780008D939C9313970894811C911CE4E0F0E046
:10B790006E0E7F1E2E0E3F1E4E0E5F1EF4E08F16A5
:10B7A000910409F087CF0C942964E8ECFCE09491B3
:10B7B00008C08091C00085FFFCCF9093C6003196F1
:10B7C00094919923B1F70C9429648091D8059091B4
:10B7D000D90505966AE270E00E94AC0EFC01009764
:10B7E00011F40C94296410820C942964E5ECFCE0BB
:10B7F000949108C08091C00085FFFCCF9093C60053
:10B80000319694919923B1F740915B0550915C0575
:10B8100060915D0570915E0583E595E022E030E082
:10B820000E946A1FE1ECFCE0949108C08091C00086
:10B8300085FFFCCF9093C600319694919923B1F780
:10B8400040915F05509160056091610570916205BE
:10B8500083E595E022E030E00E946A1FEDEBFCE01A
:10B86000949108C08091C00085FFFCCF9093C600E2
:10B87000319694919923B1F74091630550916405F5
:10B88000609165057091660583E595E022E030E002
:10B890000E946A1FE9EBFCE0949108C08091C0000F
:10B8A00085FFFCCF9093C600319694919923B1F710
:10B8B00040916705509168056091690570916A052E
:10B8C00083E595E022E030E00E946A1FEEEAFCE0AA
:10B8D000949108C08091C00085FFFCCF9093C60072
:10B8E000319694919923B1F780E00E94BC110E9497
:10B8F000DD952091CF073091D0074091D10750912D
:10B90000D2070E944295AB01BC0183E595E022E09D
:10B9100030E00E946A1FEAEAFCE0949108C080913E
:10B92000C00085FFFCCF9093C60031969491992377
:10B93000B1F781E00E94BC110E94DD952091D307F0
:10B940003091D4074091D5075091D6070E94429577
:10B95000AB01BC0183E595E022E030E00E946A1F64
:10B96000E6EAFCE0949108C08091C00085FFFCCF1E
:10B970009093C600319694919923B1F782E00E948A
:10B98000BC110E94DD952091D7073091D8074091D6
:10B99000D9075091DA070E944295AB01BC0183E5BB
:10B9A00095E022E030E00E946A1FEDEBF2E007C074
:10B9B0008091C00085FFFCCF31969093C6009081A6
:10B9C0009923B1F78091C00085FFFCCF8AE0809376
:10B9D000C6003FC780E00E9468113BC781E00E941B
:10B9E000681137C78091C00085FFFCCF31969093D6
:10B9F000C60090819923B1F78091C00085FFFCCFEC
:10BA00008AE08093C600EEE9FCE0949108C0809142
:10BA1000C00085FFFCCF9093C60031969491992386
:10BA2000B1F71E9B03C0E0ECF2E00AC0E5ECF2E0E7
:10BA300007C08091C00085FFFCCF31969093C6006F
:10BA400090819923B1F78091C00085FFFCCF8AE0F7
:10BA50008093C600E6E9FCE0949108C08091C000A4
:10BA600085FFFCCF9093C600319694919923B1F74E
:10BA7000379B03C0E0ECF2E00AC0E5ECF2E007C05F
:10BA80008091C00085FFFCCF31969093C6009081D5
:10BA90009923B1F78091C00085FFFCCF8AE08093A5
:10BAA000C600EEE8FCE0949108C08091C00085FFDC
:10BAB000FCCF9093C600319694919923B1F71D9BCA
:10BAC00003C0E0ECF2E00AC0E5ECF2E007C08091D0
:10BAD000C00085FFFCCF31969093C60090819923DA
:10BAE000B1F78091C00085FFFCCF8AE08093C6004B
:10BAF000E6E8FCE0949108C08091C00085FFFCCF8F
:10BB00009093C600319694919923B1F7029B03C09C
:10BB1000E0ECF2E00AC0E5ECF2E007C08091C00082
:10BB200085FFFCCF31969093C60090819923B1F7A1
:10BB30008091C00085FFFCCF8AE08093C600EEE7CD
:10BB4000FCE0949108C08091C00085FFFCCF9093E9
:10BB5000C600319694919923B1F71C9B03C0E0EC89
:10BB6000F2E00AC0E5ECF2E007C08091C00085FF7A
:10BB7000FCCF31969093C60090819923B1F78091C4
:10BB8000C00085FFFCCF8AE08093C600E6E7FCE0BA
:10BB9000949108C08091C00085FFFCCF9093C600AF
:10BBA000319694919923B1F7019B03C0E0ECF2E048
:10BBB0000AC0E5ECF2E007C08091C00085FFFCCF31
:10BBC00031969093C60090819923B1F78091C0007F
:10BBD00085FFFCCF8AE08093C6003BC680918A0532
:10BBE0008093A00584E50E941144882321F10E94DE
:10BBF0005B460E94AF956093A0056623E1F0E9E8FB
:10BC0000FBE0949108C08091C00085FFFCCF909329
:10BC1000C600319694919923B1F7EFECF2E007C09A
:10BC20008091C00085FFFCCF31969093C600908133
:10BC30009923B1F70EC684E40E941144882309F4C5
:10BC400008C60E945B4620E030E040E050E00E94E1
:10BC50003B95882319F410925A0539C08091A005AC
:10BC6000082F10E00E945B46000F111F000F111FEC
:10BC70000C571C4FD8016D937D938D939C93139714
:10BC8000E0908403F0908503009186031091870370
:10BC9000C801B70120E030E040E050E00E943B9551
:10BCA000882351F40F2EF0E0EF2EF0E0FF2EF0E4A9
:10BCB0000F2FF0E41F2FF02DE0928403F092850304
:10BCC000009386031093870381E080935A050E94B6
:10BCD000733DBFC50BE214E0FFEDEF2EF7E0FF2E42
:10BCE000F80180810E941144882351F00E945B4634
:10BCF0000E94AF95D7016D937D938D939C9313977D
:10BD00000F5F1F4FE4E0F0E0EE0EFF1EF4E00F3295
:10BD10001F0731F70E94817B9CC50BE214E0EFEB1B
:10BD2000EE2EE7E0FE2ED8018C910E94114488236C
:10BD300039F00E945B46F7016083718382839383AD
:10BD40000F5F1F4F24E030E0E20EF31E34E00F32AD
:10BD5000130749F77EC583E50E941144882351F0FB
:10BD60000E945B466093F3077093F4078093F50796
:10BD70009093F60784E50E941144882309F469C56D
:10BD80000E945B466093F7077093F8078093F9076A
:10BD90009093FA075EC583E50E941144882351F011
:10BDA0000E945B466093EF077093F0078093F10762
:10BDB0009093F20784E50E941144882351F00E9479
:10BDC0005B46609307087093080880930908909376
:10BDD0000A0882E40E941144882361F00E945B46B5
:10BDE0000E94AF956093BB077093BC078093BD071B
:10BDF0009093BE0788E50E941144882351F00E9469
:10BE00005B466093FB077093FC078093FD0790935C
:10BE1000FE078AE50E941144882351F00E945B4688
:10BE20006093FF07709300088093010890930208C5
:10BE300085E40E941144882309F40BC50E945B46E7
:10BE40006093030870930408809305089093060894
:10BE500000C50BE214E07BE6E72E75E0F72ED80173
:10BE60008C910E941144882339F00E945B46F701AF
:10BE700060837183828393830F5F1F4F24E030E0E0
:10BE8000E20EF31E34E00E32130749F7E2C483E5F5
:10BE90000E941144882309F4DCC40E945B460E947E
:10BEA000AA9570937F0360937E03D3C483E50E94B9
:10BEB0001144882309F4CDC40E945B460E94AA95D0
:10BEC0007B018C0184E50E941144882389F08DED6B
:10BED00090E00E946446882309F0BBC4E091A0056D
:10BEE000F0E0EE0FFF1FEE57FC4FF182E082B1C48D
:10BEF000F0928103E0928003ACC480E50E9411447B
:10BF0000882309F4A6C40E945B460E94AA957B017F
:10BF100083E50E941144882319F40FEF1FEF05C039
:10BF20000E945B460E94AA958B01C8010196039767
:10BF300008F08FC4EFE2F4E0808191818E159F05B7
:10BF400009F487C4329684E0E736F807A9F7F7FCCE
:10BF500080C40E946D14DE2C8E2D60E00E943F9301
:10BF60009FEF0F3F190731F00130110551F000E04C
:10BF700010E00FC08E2D0E94249400E010E0892B69
:10BF800041F401E010E005C00E94166F80E00E94BD
:10BF9000104A8D2D0E94249480179107A9F759C447
:10BFA00080E50E941144882351F00E945B46609313
:10BFB000A2037093A3038093A4039093A50389E441
:10BFC0000E941144882361F00E945B460E94346BFA
:10BFD0006093A6037093A7038093A8039093A9038B
:10BFE00084E40E941144882361F00E945B460E9411
:10BFF000406B6093AA037093AB038093AC03909360
:10C00000AD0383E40E941144882351F00E945B46F3
:10C010006093AE037093AF038093B0039093B1032A
:10C020000E94526AE6EEF2E007C08091C00085FFF0
:10C03000FCCF31969093C60090819923B1F7E9EE39
:10C04000F2E007C08091C00085FFFCCF319690934D
:10C05000C60090819923B1F74091A2035091A303A8
:10C060006091A4037091A50383E595E022E030E0A0
:10C070000E946A1FEDEEF2E007C08091C00085FFCC
:10C08000FCCF31969093C60090819923B1F76091CF
:10C09000A6037091A7038091A8039091A9030E9421
:10C0A0003A6BAB01BC0183E595E022E030E00E94F1
:10C0B0006A1FE1EFF2E007C08091C00085FFFCCF6E
:10C0C00031969093C60090819923B1F76091AA03AD
:10C0D0007091AB038091AC039091AD030E94466BCD
:10C0E000AB01BC0183E595E022E030E00E946A1FCD
:10C0F000E5EFF2E007C08091C00085FFFCCF3196EC
:10C100009093C60090819923B1F74091AE0350916E
:10C11000AF036091B0037091B10383E595E022E035
:10C1200030E00E946A1FEDEBF2E007C08091C00092
:10C1300085FFFCCF31969093C60090819923B1F78B
:10C140008091C00085FFFCCF8AE08093C60081C348
:10C1500083E50E941144882329F460E070E080E0C8
:10C1600090E002C00E945B460E94787B72C385E427
:10C170000E941144882319F4CC24DD2412C00E94AB
:10C180005B460E94AA956B0177FF0BC00F2EF0E073
:10C19000EF2EF0E0FF2EFCE80F2FF2E41F2FF02D22
:10C1A0000AC00F2EF0E0EF2EF0E0FF2EF6E10F2F89
:10C1B000F3E41F2FF02D83E50E941144882321F022
:10C1C0000E945B467B018C0183E40E94114488231A
:10C1D00019F425E030E005C00E945B460E94AA9554
:10C1E0009B01C801B701A6010E94407132C30E94A1
:10C1F0006D142FC30E945E332CC30E94D73A29C30B
:10C200000E94F93526C30E94A13723C38AE50E9404
:10C210001144882309F4B8C00E945B467B018C015D
:10C2200020E030E040E050EC0E94499788230CF475
:10C230004EC0C801B70120E030E040EA50E40E945F
:10C240003B9518160CF443C0D801C701B058809331
:10C25000860590938705A0938805B0938905E9E842
:10C26000FBE0949108C08091C00085FFFCCF9093C3
:10C27000C600319694919923B1F7EAE6FCE09491D7
:10C2800008C08091C00085FFFCCF9093C600319616
:10C2900094919923B1F78091C00085FFFCCF8AE08B
:10C2A0008093C600EDEBF2E007C08091C00085FFEF
:10C2B000FCCF31969093C60090819923B1F780917D
:10C2C000C00085FFFCCF8AE08093C600C2C2E9E8C7
:10C2D000FBE0949108C08091C00085FFFCCF909353
:10C2E000C600319694919923B1F7E1E6FCE0949170
:10C2F00008C08091C00085FFFCCF9093C6003196A6
:10C3000094919923B1F7E9E5FCE0949108C08091FC
:10C31000C00085FFFCCF9093C6003196949199237D
:10C32000B1F783E595E06EEF7FEF4AE050E00E94C1
:10C33000971EE1E5FCE0949108C08091C00085FF64
:10C34000FCCF9093C600319694919923B1F783E581
:10C3500095E065E070E04AE050E00E94971EEDEB4A
:10C36000F2E007C08091C00085FFFCCF319690932A
:10C37000C60090819923B1F78091C00085FFFCCF62
:10C380008AE08093C60065C2E9E8FBE0949108C0AA
:10C390008091C00085FFFCCF9093C60031969491A8
:10C3A0009923B1F7E5E4FCE0949108C08091C000C6
:10C3B00085FFFCCF9093C600319694919923B1F7F5
:10C3C0008091C00085FFFCCF8AE08093C600409139
:10C3D0008605509187056091880570918905705890
:10C3E00083E595E022E030E00E946A1FEDEBF2E089
:10C3F00007C08091C00085FFFCCF31969093C600A6
:10C4000090819923B1F78091C00085FFFCCF8AE02D
:10C410008093C6001EC200E010E0F801E55DFB4F0E
:10C4200080810E941144882351F00E945B460E9443
:10C43000AA959B01AC01802FB9010E9475130F5F73
:10C440001F4F0430110549F782E40E9411448823EC
:10C4500051F00E945B460E94AA959B01AC0184E0CA
:10C46000B9010E94751383E50E941144882371F07D
:10C4700010E00E945B460E94AA959B01AC01812FAF
:10C48000B9010E9475131F5F153099F788E50E9466
:10C490001144882351F00E945B460E94AA959B019B
:10C4A000AC0180E0B9010E9475138AE50E94114435
:10C4B000882351F00E945B460E94AA959B01AC0123
:10C4C00081E0B9010E94751385E40E94114488231C
:10C4D00009F4BFC10E945B460E94AA959B01AC0172
:10C4E00082E0B9010E947513B4C180E50E94114435
:10C4F000882329F00E945B460E94AF95162F83E5A2
:10C500000E941144882321F00E945B460E94AF954F
:10C51000812F90E070E00E9423139BC183E50E946D
:10C520001144882319F400E010E00FC010E00E94CD
:10C530005B460E94AF959B01AC01812F622F0E9448
:10C5400007131F5F153099F7EECFF801E55DFB4F3C
:10C5500080810E941144882351F00E945B460E9412
:10C56000AF959B01AC01802F622F0E9407130F5FD4
:10C570001F4F0430110549F782E40E9411448823BB
:10C5800051F00E945B460E94AF959B01AC0184E094
:10C59000622F0E9407130E94ED115BC183E50E9488
:10C5A0001144882309F45FC00E945B460E94AA954B
:10C5B0006130710529F06230710509F054C029C05D
:10C5C00000E010E0F801E55DFB4F80810E9411441E
:10C5D000882359F00E945B460E94AA959B01AC01FA
:10C5E000802F622F4FEF0E94C9120F5F1F4F043040
:10C5F000110541F782E40E9411448823A1F10E94B1
:10C600005B460E94AA959B01AC0184E0622F4FEF2C
:10C6100028C000E010E0F801E55DFB4F80810E943A
:10C620001144882359F00E945B460E94AA959B0101
:10C63000AC01802F6FEF422F0E94C9120F5F1F4F76
:10C640000430110541F782E40E941144882359F017
:10C650000E945B460E94AA959B01AC0184E06FEFAB
:10C66000422F0E94C9120E94ED11F3C0109296054C
:10C670008091A5059091A605A091A705B091A80568
:10C680008093A1059093A205A093A305B093A40560
:10C690000E945E40DEC084E50E941144882309F4B4
:10C6A0008DC00E945B460E94AF95262F6093A00527
:10C6B0006623B9F1E9E8FBE0949108C08091C000DD
:10C6C00085FFFCCF9093C600319694919923B1F7E2
:10C6D000E9EFF2E007C08091C00085FFFCCF319602
:10C6E0009093C60090819923B1F783E595E0622F7E
:10C6F00040E050E00E94531EEBEFF2E007C0809153
:10C70000C00085FFFCCF31969093C600908199239D
:10C71000B1F78091C00085FFFCCF8AE08093C6000E
:10C7200098C086E40E9411448823E1F00E945B4691
:10C730007B018C016093D0057093D1058093D20565
:10C740009093D30520E030E040E050E00E9449970C
:10C75000181644F4E0929D03F0929E0300939F0309
:10C760001093A003E9E8FBE0949108C08091C00019
:10C7700085FFFCCF9093C600319694919923B1F731
:10C78000ECE0F3E007C08091C00085FFFCCF31965C
:10C790009093C60090819923B1F760918A0583E553
:10C7A00095E070E04AE050E00E94971E8091C00042
:10C7B00085FFFCCF8AE08093C6004BC0E9E8FBE030
:10C7C000949108C08091C00085FFFCCF9093C60073
:10C7D000319694919923B1F7E2E3FCE0949108C07B
:10C7E0008091C00085FFFCCF9093C6003196949154
:10C7F0009923B1F72091DA053091DB0580E690E0CE
:10C80000289FF001299FF00D389FF00D1124E4526C
:10C81000FA4F07C08091C00085FFFCCF31969093FE
:10C82000C60090819923B1F7E0E3FCE0949108C041
:10C830008091C00085FFFCCF9093C6003196949103
:10C840009923B1F78091C00085FFFCCF8AE08093E7
:10C85000C6000E940A3E20C00E94989160938E05F7
:10C8600070938F0580939005909391050E94989105
:10C870006093AB057093AC058093AD059093AE05C6
:10C88000E8CF0E946D1488E50E941144882311F0BE
:10C890000C94145B0C94175BC553DF4F0FB6F894E0
:10C8A000DEBF0FBECDBFCF91DF911F910F91FF90E3
:10C8B000EF90DF90CF90BF90AF909F908F907F9040
:10C8C0006F905F904F903F902F9008958091A905B1
:10C8D0009091AA05039714F40E94A8478091A90596
:10C8E0009091AA05892BC1F00E94824A8091A905E6
:10C8F0009091AA0501979093AA058093A90580912C
:10C90000DA059091DB05019664E070E00E942099C1
:10C910009093DB058093DA050E94166F80E00E94F9
:10C92000104A0C947D1CDF93CF930F920F92CDB7DA
:10C93000DEB79D9AA59883E595E040E052EC61E072
:10C9400070E00E94501DE2E8F0E1949108C08091EF
:10C95000C00085FFFCCF9093C60031969491992337
:10C96000B1F78091C00085FFFCCF8AE08093C600BC
:10C9700049E85BE0FA01949108C08091C00085FF0E
:10C98000FCCF9093C600319694919923B1F784B768
:10C99000282F80FF15C0EAE7F0E1949108C080914C
:10C9A000C00085FFFCCF9093C600319694919923E7
:10C9B000B1F78091C00085FFFCCF8AE08093C6006C
:10C9C00021FF15C0EAE6F0E1949108C08091C00013
:10C9D00085FFFCCF9093C600319694919923B1F7CF
:10C9E0008091C00085FFFCCF8AE08093C60022FFC3
:10C9F00015C0E9E5F0E1949108C08091C00085FF81
:10CA0000FCCF9093C600319694919923B1F7809111
:10CA1000C00085FFFCCF8AE08093C60023FF15C0CD
:10CA2000E9E4F0E1949108C08091C00085FFFCCF5B
:10CA30009093C600319694919923B1F78091C000EC
:10CA400085FFFCCF8AE08093C60025FF15C0E9E38F
:10CA5000F0E1949108C08091C00085FFFCCF9093D5
:10CA6000C600319694919923B1F78091C00085FF5B
:10CA7000FCCF8AE08093C60014BEE2E3F0E194911B
:10CA800008C08091C00085FFFCCF9093C60031960E
:10CA900094919923B1F7ECE2F0E1949108C0809170
:10CAA000C00085FFFCCF9093C600319694919923E6
:10CAB000B1F78091C00085FFFCCF8AE08093C6006B
:10CAC000FA019491E9E8FBE008C08091C00085FF7D
:10CAD000FCCF9093C600319694919923B1F7ECE185
:10CAE000F0E1949108C08091C00085FFFCCF909345
:10CAF000C600319694919923B1F7E7E0F0E1949163
:10CB000008C08091C00085FFFCCF9093C60031968D
:10CB100094919923B1F7EBEFFFE0949108C08091D5
:10CB2000C00085FFFCCF9093C60031969491992365
:10CB3000B1F7E4EEFFE0949108C08091C00085FF5A
:10CB4000FCCF9093C600319694919923B1F78091D0
:10CB5000C00085FFFCCF8AE08093C600E9EDFFE0CE
:10CB6000949108C08091C00085FFFCCF9093C600CF
:10CB7000319694919923B1F7EDECFFE0949108C0C0
:10CB80008091C00085FFFCCF9093C60031969491B0
:10CB90009923B1F78091C00085FFFCCF8AE0809394
:10CBA000C600FA019491E9E8FBE008C08091C0005A
:10CBB00085FFFCCF9093C600319694919923B1F7ED
:10CBC000EEEBFFE0949108C08091C00085FFFCCFA0
:10CBD0009093C600319694919923B1F72091E20D7C
:10CBE0003091E30DCE0101962115310519F4885ECF
:10CBF0009D4002C0821B930B9A83898369817A814D
:10CC000083E595E04AE050E00E94971EE7EAFFE0E6
:10CC1000949108C08091C00085FFFCCF9093C6001E
:10CC2000319694919923B1F783E595E060ED74E036
:10CC30004AE050E00E94971E8091C00085FFFCCF23
:10CC40008AE08093C60010926207109263071092E8
:10CC50006407109265070E94D73A0E94456E0E94B1
:10CC6000367F0E9402148091010188608093010147
:10CC700086E06FEF0E94F29386E06FEF7FEF0E94F5
:10CC8000619280E197E220E931E0F9013197F1F713
:10CC90000197D9F786E06AEC0E94F29386E06AEC8D
:10CCA00076E70E9461920F900F90CF91DF910895E7
:10CCB0002F923F924F925F926F927F928F929F92AC
:10CCC000AF92BF92CF92DF92EF92FF920F931F939A
:10CCD000DF93CF93CDB7DEB7CD56D0400FB6F894E3
:10CCE000DEBF0FBECDBF6F969FAF8EAF6F97A19681
:10CCF0007FAF6EAFA1972A01A2962FAFA297A396FE
:10CD00000FAFA397A496EFAEA497A896ACAEBDAE16
:10CD1000CEAEDFAEA897E22EFF24EE0CFF1CEE0C89
:10CD2000FF1CFC01EE0DFF1D2081318142815381EA
:10CD30006D962CAF3DAF4EAF5FAF6D97A2014E0D1C
:10CD40005F1D69965FAF4EAF6997DA016D907D9078
:10CD50008D909C906D966CAD7DAD8EAD9FAD6D97B9
:10CD6000A40193010E94629469AF7AAF8BAF9CAF2C
:10CD700010E0000F111F000F111F6F96EEADFFADF9
:10CD80006F97E00FF11F20813181428153816796B7
:10CD90002CAF3DAF4EAF5FAF6797A201400F511F61
:10CDA00063965FAF4EAF6397DA01AD90BD90CD90C3
:10CDB000DC9067966CAD7DAD8EAD9FAD6797A6019B
:10CDC00095010E9462946DAB7EAB8FAB98AFA49639
:10CDD000BFADA497EB2FF0E0EE0FFF1FEE0FFF1F8C
:10CDE0006F96AEADBFAD6F97AE0FBF1F2D913D914A
:10CDF0004D915C9161962CAF3DAF4EAF5FAF6197A7
:10CE0000A1964EAD5FADA197E40FF51F60817181D2
:10CE10008281938161962CAD3DAD4EAD5FAD619742
:10CE20000E94619469AB7AAB8BAB9CABA196AEAD23
:10CE3000BFADA1971C968D919D910D90BC91A02D99
:10CE40002D968CAF9DAFAEAFBFAF2D976F96AEADA9
:10CE5000BFAD6F971C962D913D914D915C911F97A1
:10CE600029962CAF3DAF4EAF5FAF2997A401930138
:10CE700050582DA73EA74FA758ABD601C501B058B3
:10CE800089A79AA7ABA7BCA7A196AEADBFADA19746
:10CE9000EA0EFB1ED7012D913D914D915C91259697
:10CEA0002CAF3DAF4EAF5FAF2597CA01B90129AD99
:10CEB0003AAD4BAD5CAD0E9461941B012C01A19673
:10CEC000EEADFFADA1970E0F1F1FD8012D913D9123
:10CED0004D915C9121962CAF3DAF4EAF5FAF219746
:10CEE000CA01B9012DA93EA94FA958AD0E9461946C
:10CEF0005B016C016DA57EA58FA598A9A601950182
:10CF00000E941B987B018C0169A57AA58BA59CA525
:10CF1000A20191010E941B989B01AC01C801B701BD
:10CF20000E9461943B014C016DA57EA58FA598A937
:10CF3000A20191010E941B987B018C0169A57AA531
:10CF40008BA59CA5A60195010E941B989B01AC0195
:10CF5000C801B7010E9462949B01AC01C401B301F6
:10CF60000E94D5945B016C0120E030E040E050E08D
:10CF70000E943B95882354F4C601B5012BED3FE098
:10CF800049EC50E40E9462945B016C01C957DF4F89
:10CF90008881C758D040882351F0C601B5012BEDD8
:10CFA0003FE049EC50E40E9461945B016C016D9696
:10CFB0006CAD7DAD8EAD9FAD6D9725962CAD3DAD25
:10CFC0004EAD5FAD25970E943B95882321F567966E
:10CFD0006CAD7DAD8EAD9FAD679721962CAD3DAD0F
:10CFE0004EAD5FAD21970E943B958823A1F4C60109
:10CFF000B50120E030E040E050E00E943B958823FE
:10D0000051F4C601B5012BED3FE049EC50E40E941C
:10D0100062945B016C01C601B501CD57DF4F2881D9
:10D0200039814A815B81C358D0400E941B9829A94D
:10D030003AA94BA95CA95F770E9456977B018C01A6
:10D040002FE632E143E85AE30E943B9587FD10C288
:10D05000C801B7010E9418960E94AF9578A76FA3E8
:10D06000672B21F4E1E0F0E0F8A7EFA32FA138A5AA
:10D07000B90180E090E00E94DB957B018C01C60144
:10D08000B501A80197010E9442956BA37CA38DA3D3
:10D090009EA369A97AA98BA99CA9A80197010E94BE
:10D0A00042956F8F78A389A39AA32D966CAD7DAD21
:10D0B0008EAD9FAD2D9729962CAD3DAD4EAD5FAD9C
:10D0C00029970E946194A80197010E9442956B8F55
:10D0D0007C8F8D8F9E8F6BA17CA18DA19EA120E066
:10D0E00030E040E05FEB0E941B982BA13CA14DA1DA
:10D0F0005EA10E941B9820E030E040E85FE30E94C0
:10D1000062946F8B788F898F9A8FA4963FADA49786
:10D11000E32FF0E0EE0FFF1FEE0FFF1F9E012F5FCA
:10D120003F4FE20FF31F61968CAD9DADAEADBFAD2D
:10D13000619780839183A283B3836F96AEADBFADB9
:10D140006F971C964D915D916D917C911F974D87C6
:10D150005E876F87788B41E050E05A8B498B66245D
:10D16000A2969FADA297892F90E0880F991F880FF4
:10D17000991FD901A80FB91FAA96BFAFAEAFAA9742
:10D18000A3963FADA397232F30E0220F331F220F2A
:10D19000331F4C0F5D1F420F531FAC965FAF4EAF56
:10D1A000AC97AE96FFAFEEAFAE9727C158E15615DC
:10D1B0000CF446C06DA57EA58FA598A92BA13CA116
:10D1C0004DA15EA10E941B987B018C0169A57AA5E7
:10D1D0008BA59CA52F89388D498D5A8D0E941B984F
:10D1E0009B01AC01C801B7010E9462947B018C01D4
:10D1F0006DA57EA58FA598A92F89388D498D5A8D4B
:10D200000E941B985B016C0169A57AA58BA59CA562
:10D210002BA13CA14DA15EA10E941B989B01AC01DA
:10D22000C601B5010E9461946DA77EA78FA798AB38
:10D230006394C701D80189A79AA7ABA7BCA765C00B
:10D24000A989BA89BD0180E090E00E94DB952BA1FD
:10D250003CA14DA15EA10E941B987B018C01C801DD
:10D260000E943F956B8B7C8B8D8B9E8BB701C80189
:10D270000E947E983B014C016996EEADFFAD699727
:10D28000E080F1800281138117FB109517F910954A
:10D290006396AEADBFAD63972D903D904D905C9081
:10D2A000C801B7012B893C894D895E890E941B9872
:10D2B0005B016C01C201B101A40193010E941B98A2
:10D2C0009B01AC01C601B5010E9462946DA77EA7C7
:10D2D0008FA798ABC801B701A40193010E941B98C6
:10D2E0007B018C01C201B1012B893C894D895E898A
:10D2F0000E941B989B01AC01C801B7010E94619478
:10D3000069A77AA78BA79CA7662469AD7AAD8BAD78
:10D310009CAD2DA53EA54FA558A90E946294AA9642
:10D32000EEADFFADAA9760837183828393836DA96D
:10D330007EA98FA998AD29A53AA54BA55CA50E9409
:10D340006294AC96AEADBFADAC976D937D938D936B
:10D350009C931397AE96EEADFFADAE976081718151
:10D36000828193812F8D38A149A15AA10E94629494
:10D37000AE96AEADBFADAE976D937D938D939C93FE
:10D3800013976D857E858F8598892B8D3C8D4D8D6E
:10D390005E8D0E9462946D877E878F87988BCE0109
:10D3A00001960E94CD3C0F920F9269817A818B8108
:10D3B0009C812D813E814F815885E984FA840B85BB
:10D3C0001C85A8E8B0E0AC0FBD1FEDB7FEB7B28377
:10D3D000A183EDE0CE2ED12CCC0EDD1EA8968CAC18
:10D3E0009DACAEACBFACA8970E94F381E989FA89E5
:10D3F0003196FA8BE98B0F900F9029893A894FA1CA
:10D4000058A52417350708F4D1CE0F920F92A19694
:10D41000AEADBFADA1976D917D918D919C9113970C
:10D4200014962D913D914D915C9117971896ED9022
:10D43000FD900D911C911B971C96A196BFAFAEAFAE
:10D44000A197FE01E857FF4FADB7BEB71296FC9308
:10D45000EE931197A196CEACDFACA197A8968CACB9
:10D460009DACAEACBFACA8970E94F3810F900F901B
:10D47000C359DF4F0FB6F894DEBF0FBECDBFCF91BB
:10D48000DF911F910F91FF90EF90DF90CF90BF90B1
:10D49000AF909F908F907F906F905F904F903F9054
:10D4A0002F90089560E070E08FE793E42091A60349
:10D4B0003091A7034091A8035091A9030E9442957F
:10D4C000609398077093990780939A0790939B07AE
:10D4D0000895FC0197FF03C080917A0703C0E558C7
:10D4E000F84F808190E008952F923F924F925F9283
:10D4F0006F927F928F929F92AF92BF92CF92DF9264
:10D50000EF92FF920F931F93CF93DF93EC0121E0F3
:10D5100030E0A901440F551F440F551FFA01ED5289
:10D52000FE4E85919491C817D9070CF059C0B901E6
:10D5300061507040660F771F660F771FCB018B52CB
:10D540009E4EFC01059114916D527E4EFB01C590DB
:10D55000D490FA01EB52FE4EE590F490FA01ED52B0
:10D56000FE4EA590B490B801882777FD8095982F3E
:10D570000E94DD951B012C01CC19DD09BE01882715
:10D5800077FD8095982F0E94DD953B014C01E01AB4
:10D59000F10A0027F7FC0095102FC801B7010E947F
:10D5A000DD959B01AC01C401B3010E941B987B0176
:10D5B0008C01AC18BD08CC24B7FCC094DC2CC6018F
:10D5C000B5010E94DD959B01AC01C801B7010E9425
:10D5D00042959B01AC01C201B1010E94629419C045
:10D5E000822F8F5F2F5F3F4F2A33310509F091CF94
:10D5F0008A3329F0E0E070E080E060E00CC0E9EB05
:10D60000F2E165917491882777FD8095982F0E94AB
:10D61000DD95E62F692F2E2F372F482F562FB90172
:10D62000CA01DF91CF911F910F91FF90EF90DF9092
:10D63000CF90BF90AF909F908F907F906F905F90B2
:10D640004F903F902F900895089510926B0710927D
:10D650006A0710927B07759810926D0710926C07FD
:10D6600010927A07A59808952DEB37E346E05EE324
:10D670000C941B982DEB37E346E05EE30C94429547
:10D680002DEB37E346E05EE30C9442952DEB37E358
:10D6900046E05EE30C941B98A5980E94CE3C88233C
:10D6A00019F5E2E8FBE0949108C08091C00085FF85
:10D6B000FCCF9093C600319694919923B1F7E2EA9A
:10D6C000F0E1949108C08091C00085FFFCCF909359
:10D6D000C600319694919923B1F78091C00085FFDF
:10D6E000FCCF8AE08093C6000C94853D1F93182FD1
:10D6F000ACDF0E94CE3C882391F5E2E8FBE09491F8
:10D7000008C08091C00085FFFCCF9093C600319681
:10D7100094919923B1F783E595E0612F70E04AE099
:10D7200050E00E94971E8091C00085FFFCCF8AE0E8
:10D730008093C600ECEDF0E1949108C08091C000A8
:10D7400085FFFCCF9093C600319694919923B1F751
:10D750008091C00085FFFCCF8AE08093C6000E94C4
:10D76000853D1F9108951F93182F6FDF0E94CE3CB7
:10D77000882391F5E2E8FBE0949108C08091C00015
:10D7800085FFFCCF9093C600319694919923B1F711
:10D7900083E595E0612F70E04AE050E00E94971E1B
:10D7A0008091C00085FFFCCF8AE08093C600E9E04D
:10D7B000F1E1949108C08091C00085FFFCCF909367
:10D7C000C600319694919923B1F78091C00085FFEE
:10D7D000FCCF8AE08093C6000E94853D1F9108958A
:10D7E0001F920F920FB60F920BB60F9211242F9328
:10D7F0003F934F935F936F937F938F939F93AF93D9
:10D80000BF93EF93FF939091B403992391F4809188
:10D810007B0780938207882311F0759A01C0759861
:10D8200080917A0780938107882311F0A59A01C01F
:10D83000A59880918207891708F4759880918107CF
:10D84000891708F4A5989F5F9F779093B403809100
:10D85000B503853009F485C0863090F4823009F430
:10D860004CC0833030F48823F1F0813009F0A5C03A
:10D8700026C0833009F44DC0843009F09EC065C0D5
:10D88000883009F48EC0893038F4863009F485C0B8
:10D89000873009F092C083C0893009F484C08A308F
:10D8A00009F08BC088C010927B0080E480937C00DC
:10D8B00080917A00806480937A0081E01BC080911F
:10D8C000780090917900A0E0B0E020918F0730912E
:10D8D00090074091910750919207280F391F4A1FD6
:10D8E0005B1F20938F0730939007409391075093CD
:10D8F000920782E08093B50360C010927B0082E4BF
:10D9000080937C0080917A00806480937A0083E029
:10D91000F1CF8091780090917900A0E0B0E0209163
:10D920008307309184074091850750918607280F1F
:10D93000391F4A1F5B1F209383073093840740934E
:10D9400085075093860784E0D5CF10927B0081E451
:10D9500080937C0080917A00806480937A0085E0D7
:10D96000C9CF8091780090917900A0E0B0E020913B
:10D970008B0730918C0740918D0750918E07280FAF
:10D98000391F4A1F5B1F20938B0730938C074093EE
:10D990008D0750938E0786E0ADCF87E0ABCF88E050
:10D9A000A9CF89E0A7CF1092B503809193078F5F2D
:10D9B0008093930702C01092B50380919307803142
:10D9C00008F463C080917C07882381F480918F07DD
:10D9D0009091900790936F0780936E0780918307D3
:10D9E00090918407909375078093740781E08093EA
:10D9F0007C071092930710928F0710929007109255
:10DA000091071092920710928B0710928C07109238
:10DA10008D0710928E071092870710928807109238
:10DA2000890710928A071092830710928407109238
:10DA300085071092860720916E0730916F078091BD
:10DA40007D0790917E078217930714F080E08BDEAC
:10DA500020916E0730916F078091B2039091B303CC
:10DA60002817390714F080E041DE209174073091C7
:10DA7000750780917F0790918007821793072CF09C
:10DA800010926D0710926C0707DEFF91EF91BF9126
:10DA9000AF919F918F917F916F915F914F913F9146
:10DAA0002F910F900BBE0F900FBE0F901F901895E7
:10DAB0002F923F924F925F926F927F928F929F929E
:10DAC000AF92BF92CF92DF92EF92FF920F931F938C
:10DAD000DF93CF930F92CDB7DEB74C01662389F168
:10DAE000E2E8FBE0949108C08091C00085FFFCCF84
:10DAF0009093C600319694919923B1F783E595E010
:10DB000070E04AE050E00E94971EE6E3F1E1949154
:10DB100008C08091C00085FFFCCF9093C60031966D
:10DB200094919923B1F78091C00085FFFCCF8AE0E2
:10DB30008093C6000E94C33DE0E070E080E060E0BA
:10DB40008AC021E030E06FC0A901F901EE0FFF1F8C
:10DB5000EE0FFF1FED5AFE4E859194912F5F3F4FC0
:10DB6000881699060CF05FC09A0121503040220FB0
:10DB7000331F220F331FC9018B5A9E4EFC010591A2
:10DB800014912D5A3E4EF901C590D490440F551F63
:10DB9000440F551FFA01EB5AFE4EE590F490FA013E
:10DBA000ED5AFE4EA590B490B801882777FD809578
:10DBB000982F0E94DD951B012C018C189D08B40143
:10DBC000882777FD8095982F0E94DD953B014C01B9
:10DBD000E01AF10A0027F7FC0095102FC801B701E1
:10DBE0000E94DD959B01AC01C401B3010E941B980A
:10DBF0007B018C01AC18BD08CC24B7FCC094DC2C94
:10DC0000C601B5010E94DD959B01AC01C801B701B9
:10DC10000E9442959B01AC01C201B1010E94629435
:10DC2000E62F692F09C029832032310509F08CCFF6
:10DC3000E0E070E080E060E0F981F03261F4E1ED75
:10DC4000F1E165917491882777FD8095982F0E9466
:10DC5000DD95E62F692F2E2F372F482F562FB9012C
:10DC6000CA010F90CF91DF911F910F91FF90EF901C
:10DC7000DF90CF90BF90AF909F908F907F906F90EC
:10DC80005F904F903F902F9008950F931F93CF93E5
:10DC9000DF9380E090E0A0E0B0E080939407909361
:10DCA0009507A0939607B093970760E070E08FE721
:10DCB00093E42091A6033091A7034091A8035091CB
:10DCC000A9030E94429560939807709399078093E7
:10DCD0009A0790939B076D9A8091010180618093D0
:10DCE00001019D9A8091010180628093010188E089
:10DCF00061E070E00E94D13C87ED80937A00109241
:10DD00007E0010927D0080917E00816080937E0075
:10DD100080917E00826080937E0080917E0084608E
:10DD200080937E0080E888BD80916E00846080933F
:10DD30006E006AEF70E080E090E00E94A69185E0BE
:10DD400090E090939D0780939C0709C08091B20357
:10DD50009091B30340979093B3038093B203809163
:10DD6000B2039091B30360E0A3DE20E030E040EA2C
:10DD700050E40E943B9587FDE9CF81E391E09093C9
:10DD8000B7038093B60309C080917D0790917E0709
:10DD9000409690937E0780937D0780917D079091B8
:10DDA0007E0760E085DE20E030E848E953E40E9429
:10DDB000499718164CF3C0917F07D09180071C2F0C
:10DDC0000D2FCE0191DB609620E030E046E153E478
:10DDD0000E94499718169CF310937F0700938007C1
:10DDE000DF91CF911F910F91089580916E079091CF
:10DDF0006F0760E05DDE609370077093710780933A
:10DE000072079093730780917407909175076CDB8C
:10DE100060937607709377078093780790937907DC
:10DE20008FB7F89410927C078FBF08952F923F927E
:10DE30004F925F926F927F928F929F92AF92BF921A
:10DE4000CF92DF92EF92FF920F931F93DF93CF93C6
:10DE5000CDB7DEB728970FB6F894DEBF0FBECDBFA3
:10DE600080917C07882309F4F2C1BFDF809170079D
:10DE700090917107A0917207B091730789839A837B
:10DE8000AB83BC8300916A0710916B07B8018827A8
:10DE900077FD8095982F0E94DD9529813A814B81ED
:10DEA0005C810E9461941B012C0160939E0770931A
:10DEB0009F078093A0079093A10720E030E040E8FF
:10DEC00051E40E944997181624F481E08093A20738
:10DED000F2C0C201B10120E030E040E851EC0E9404
:10DEE0003B9587FD02C0012B21F481E08093A207BE
:10DEF0000FC18091A207882371F080E090E0A0E03C
:10DF0000B0E08093A3079093A407A093A507B093D4
:10DF1000A6071092A207C201B1012091A20330917D
:10DF2000A3034091A4035091A5030E941B986D8305
:10DF30007E838F8398876093A7077093A807809349
:10DF4000A9079093AA07C201B1012091A3073091BC
:10DF5000A4074091A5075091A6070E9462947B01F7
:10DF60008C01609094077090950780909607909030
:10DF70009707A40193010E943B9587FD12C0609012
:10DF800098077090990780909A0790909B07C80116
:10DF9000B701A40193010E944997181614F03701A4
:10DFA00048016092A3077092A4078092A5079092FF
:10DFB000A607C401B3012091A6033091A7034091A5
:10DFC000A8035091A9030E941B985B016C01609308
:10DFD000AB077093AC078093AD079093AE07698150
:10DFE0007A818B819C812091AF073091B00740915D
:10DFF000B1075091B2070E9461942091AA03309119
:10E00000AB034091AC035091AD030E941B9820EDEF
:10E010003CEC4CE45DE30E941B987B018C01609119
:10E02000B3077091B4078091B5079091B60723E3C9
:10E0300033E343E75FE30E941B989B01AC01C801F7
:10E04000B7010E9462947B018C016093B3077093C7
:10E05000B4078093B5079093B6076D817E818F8159
:10E060009885A60195010E946294A80197010E94DB
:10E0700061947B018C0120E030E04FE753E40E9483
:10E08000499718161CF5C201B10120E030E040E0CC
:10E0900050E00E944997181674F4C401B301A2011C
:10E0A00091010E9461946093A3077093A4078093E9
:10E0B000A5079093A6070F2EF0E0EF2EF0E0FF2EBD
:10E0C000FFE70F2FF3E41F2FF02D2CC0C801B7017D
:10E0D00020E030E040E050E00E943B95882314F5BA
:10E0E000C201B10120E030E040E050E00E943B95E9
:10E0F00087FF0EC0C401B301A20191010E94619487
:10E100006093A3077093A4078093A5079093A60735
:10E110000F2EF0E0EF2EF0E0FF2EF0E00F2FF0E0FA
:10E120001F2FF02D89819A81AB81BC818093AF072D
:10E130009093B007A093B107B093B20760919C078A
:10E1400070919D07882777FD8095982F0E94DD9517
:10E150009B01AC0169817A818B819C810E944997E6
:10E160001816ECF46091B6037091B703882777FD19
:10E170008095982F0E94DD959B01AC0169817A8181
:10E180008B819C810E943B9588234CF4C801B70188
:10E190000E94AA957595679560937B0702C01092BF
:10E1A0007B070E9498912091B7073091B807409162
:10E1B000B9075091BA07621B730B840B950B685813
:10E1C00073418040904008F442C00E94989160934F
:10E1D000B7077093B8078093B9079093BA07E09098
:10E1E0007607F09077070091780710917907C801BA
:10E1F000B70120E030E040EA50E40E944997181649
:10E200001CF5C801B70120E030E046E153E40E946C
:10E210003B958823CCF460916C0770916D0788273B
:10E2200077FD8095982F0E94DD959B01AC01C80178
:10E23000B7010E94499788231CF010927A0707C003
:10E240008FE780937A0703C010927A07A5982896E3
:10E250000FB6F894DEBF0FBECDBFCF91DF911F91F7
:10E260000F91FF90EF90DF90CF90BF90AF909F9075
:10E270008F907F906F905F904F903F902F90089578
:10E280002F923F924F925F926F927F928F929F92C6
:10E29000AF92BF92CF92DF92EF92FF920F931F93B4
:10E2A000DF93CF93CDB7DEB7E3970FB6F894DEBF19
:10E2B0000FBECDBF6C8F7D8F8E8F9F8F5BAB4AABB8
:10E2C00039A328A30E949891698B7A8B8B8B9C8BA6
:10E2D0002AA93BA9121613061CF0EEE1F3E019C0BF
:10E2E000E1E3F3E007C08091C00085FFFCCF3196E9
:10E2F0009093C60090819923B1F78091C00085FF6B
:10E30000FCCFFBC38091C00085FFFCCF319690937A
:10E31000C60090819923B1F78091C00085FFFCCFA2
:10E320008AE08093C60091D94AA95BA9452B21F0C8
:10E330008FE780937A0703C08FE780937B078989F3
:10E340009A89AB89BC898D879E87AF87B88B89876F
:10E350009A87AB87BC871EA61FA618AA19AA1F8A70
:10E360001E8A91E09D8B1D821E821F821886AFE758
:10E37000AA2EB12CC12CD12CFFE72F2E312C412CF1
:10E38000512C20E030E040E050E029833A834B8379
:10E390005C830F2EF0E06F2EF0E47F2EFCE18F2ED9
:10E3A000F6E49F2EF02DEDEAF3E134913AA3E8EA8A
:10E3B000F3E144914BA3E1EAF3E154915CA3EAE970
:10E3C000F3E184918DA3E4E9F3E194919EA3EEE857
:10E3D000F3E1A491AFA3E0E8F3E1B491B8A7EAE7D1
:10E3E000F3E1249129A7E4E7F3E134913AA7EEE6BB
:10E3F000F3E144914BA7E4E3F3E154915CA7E8E334
:10E40000F3E184918DA780917C07882309F49BC256
:10E41000ECDCAAA9BBA9AB2B69F0B0917607BEA72B
:10E42000E0917707EFA7F0917807F8AB2091790793
:10E4300029AB0CC0309170073EA7409171074FA7E0
:10E440005091720758AB8091730789AB69817A81CB
:10E450008B819C812EA53FA548A959A90E94499767
:10E46000181644F08EA59FA5A8A9B9A989839A83F7
:10E47000AB83BC83C401B3012EA53FA548A959A90C
:10E480000E943B9587FD06C08EA59FA5A8A9B9A9A6
:10E490003C014D019D89992309F450C06EA57FA5CB
:10E4A00088A999A92C8D3D8D4E8D5F8D0E9449972D
:10E4B00018160CF048C20E94989129853A854B8520
:10E4C0005C85621B730B840B950B6958734180400C
:10E4D000904008F438C2D601C50182199309A409F5
:10E4E000B5094AA95BA9452B39F0B595A79597952C
:10E4F000879580937A0706C0B595A79597958795D8
:10E5000080937B070E9498916D877E878F87988B79
:10E51000DC01CB0129853A854B855C85821B930BF9
:10E52000A40BB50B8D839E83AF83B8878C8D9D8D97
:10E53000AE8DBF8D89839A83AB83BC836EA57FA587
:10E5400088A999A92C8D3D8D4E8D5F8D0E943B959C
:10E5500088230CF0F7C10E9498912D853E854F8548
:10E560005889621B730B840B950B6958734180406B
:10E57000904008F4E7C10E94989169877A878B8759
:10E580009C874E895F89452B09F4B8C1DC01CB011A
:10E590002D853E854F855889821B930BA40BB50BA7
:10E5A0002D813E814F815885280F391F4A1F5B1FDF
:10E5B000288F398F4A8F5B8F2D813E814F815885FF
:10E5C000281B390B4A0B5B0BCA01B901A20191014F
:10E5D0000E94ED98288D398D4A8D5B8D0E9455994A
:10E5E0002A0D3B1D4C1D5D1D243131054105510592
:10E5F0005CF464E1262E312C412C512C54E1A52EE3
:10E60000B12CC12CD12C1FC059016A013CEEA316BC
:10E61000B104C104D1042CF04BEEA42EB12CC12CBA
:10E62000D12C40E8A416B104C104D1041CF4150196
:10E63000260109C03EEF232E312C412C512C2A18E3
:10E640003B084C085D089AA1EDEAF3E108C080910F
:10E65000C00085FFFCCF9093C6003196949199231A
:10E66000B1F783E595E0B601A5012AE030E00E940C
:10E67000641E9BA1E8EAF3E108C08091C00085FF19
:10E68000FCCF9093C600319694919923B1F783E51E
:10E6900095E0B201A1012AE030E00E94641E9CA135
:10E6A000E1EAF3E108C08091C00085FFFCCF9093C0
:10E6B000C600319694919923B1F783E595E0B401B2
:10E6C000A30122E030E00E946A1F9DA1EAE9F3E184
:10E6D00008C08091C00085FFFCCF9093C6003196A2
:10E6E00094919923B1F783E595E049815A816B8133
:10E6F0007C8122E030E00E946A1F8091C00085FF8B
:10E70000FCCF8AE08093C6008E899F8903970CF422
:10E71000F5C0C201B1010E94DD9520E030E040E883
:10E7200050E40E941B987B018C0169817A818B8166
:10E730009C81A40193010E94619420ED3FE049E493
:10E7400050E40E941B9820E030E040E05FE30E942C
:10E750001B989B01AC01C801B7010E9442957B0147
:10E760008C01688D798D8A8D9B8D0E94DD9520E0CE
:10E7700030E04AE754E40E9442953B014C019EA1DF
:10E78000E4E9F3E108C08091C00085FFFCCF9093DD
:10E79000C600319694919923B1F783E595E0B801CD
:10E7A000A70122E030E00E946A1F9FA1EEE8F3E19A
:10E7B00008C08091C00085FFFCCF9093C6003196C1
:10E7C00094919923B1F783E595E0B401A30122E088
:10E7D00030E00E946A1F8091C00085FFFCCF8AE074
:10E7E0008093C600C801B7012AE939E949E15FE32E
:10E7F0000E941B987B018C0198A5E0E8F3E108C01A
:10E800008091C00085FFFCCF9093C6003196949113
:10E810009923B1F78091C00085FFFCCF8AE08093F7
:10E82000C60099A5EAE7F3E108C08091C00085FF22
:10E83000FCCF9093C600319694919923B1F783E56C
:10E8400095E0B801A70122E030E00E946A1F8091A4
:10E85000C00085FFFCCF8AE08093C6009AA5E4E75C
:10E86000F3E108C08091C00085FFFCCF9093C60003
:10E87000319694919923B1F7C801B701A801970186
:10E880000E946294A40193010E944295AB01BC01D5
:10E8900083E595E022E030E00E946A1F8091C0008D
:10E8A00085FFFCCF8AE08093C6009BA5EEE6F3E1EE
:10E8B00008C08091C00085FFFCCF9093C6003196C0
:10E8C00094919923B1F7C801B701A40193010E9463
:10E8D0001B9820E030E040E05EE30E941B98AB0113
:10E8E000BC0183E595E022E030E00E946A1F809140
:10E8F000C00085FFFCCF8AE08093C600D201C10131
:10E900008A0D9B1DAC1DBD1DEAA9FBA9EF2B39F09B
:10E91000B595A7959795879580937A0706C0B59585
:10E92000A7959795879580937B072E893F892F5FC1
:10E930003F4F3F8B2E8B6C8C7D8C8E8C9F8C31E06F
:10E940003D8B01C01D8A6C8D7D8D8E8D9F8D20E04D
:10E9500030E040EA51E40E9462949B01AC016EA554
:10E960007FA588A999A90E94499718169CF4E4E408
:10E97000F3E1949108C08091C00085FFFCCF909393
:10E98000C600319694919923B1F78091C00085FF1C
:10E99000FCCFB3C00E94989129893A894B895C8940
:10E9A000621B730B840B950B615D77408040904038
:10E9B00008F453C04AA95BA9452B89F060917A07F6
:10E9C000EEE3F3E1949108C08091C00085FFFCCF95
:10E9D0009093C600319694919923B1F710C060913D
:10E9E0007B079DA5E8E3F3E108C08091C00085FFA7
:10E9F000FCCF9093C600319694919923B1F7162FCE
:10EA000083E595E04EA55FA568A979A922E030E0ED
:10EA10000E946A1F9CA5E4E3F3E108C08091C00056
:10EA200085FFFCCF9093C600319694919923B1F75E
:10EA300083E595E0612F70E04AE050E00E94971E68
:10EA40008091C00085FFFCCF8AE08093C6000E94C1
:10EA50009891698B7A8B8B8B9C8B0E9498917B0110
:10EA60008C010E9498912D853E854F855889E21A28
:10EA7000F30A040B150B29853A854B855C85E21A50
:10EA8000F30A040B150BE60EF71E081F191F31E8D9
:10EA9000E3163FE4F30632E1030730E0130798F092
:10EAA000E7E1F3E1949108C08091C00085FFFCCFBD
:10EAB0009093C600319694919923B1F78091C0004C
:10EAC00085FFFCCF1AC04E895F8988A199A1841760
:10EAD00095070CF098CCEBEBF2E1949108C0809193
:10EAE000C00085FFFCCF9093C60031969491992386
:10EAF000B1F78091C00085FFFCCF8AE08093C6000B
:10EB0000E3960FB6F894DEBF0FBECDBFCF91DF9175
:10EB10001F910F91FF90EF90DF90CF90BF90AF903B
:10EB20009F908F907F906F905F904F903F902F902D
:10EB30000895CF92DF92EF92FF920F931F93FC0103
:10EB400040835183628373830483158326833783D1
:10EB5000C086D186E286F3861F910F91FF90EF90D9
:10EB6000DF90CF9008952F923F924F925F926F92D5
:10EB70007F928F929F92AF92BF92CF92DF92EF924D
:10EB8000FF920F931F93DF93CF93CDB7DEB72A97F2
:10EB90000FB6F894DEBF0FBECDBF9A878987DC0120
:10EBA0002D903D904D905C90139714968D919D9172
:10EBB0000D90BC91A02D8D839E83AF83B887A985CE
:10EBC000BA8518968D919D910D90BC91A02D898349
:10EBD0009A83AB83BC83C201B1012CA13DA14EA19C
:10EBE0005FA10E941B987B018C016D817E818F81CA
:10EBF000988528A939A94AA95BA90E941B989B015D
:10EC0000AC01C801B7010E9462947B018C0169814B
:10EC10007A818B819C812CAD3DAD4EAD5FAD0E9464
:10EC20001B989B01AC01C801B7010E9462943B0193
:10EC30004C01C201B10128A539A54AA55BA50E94D6
:10EC40001B987B018C016D817E818F8198852CA919
:10EC50003DA94EA95FA90E941B989B01AC01C80168
:10EC6000B7010E9462947B018C0169817A818B815A
:10EC70009C8124962CAD3DAD4EAD5FAD24970E9496
:10EC80001B989B01AC01C801B7010E9462945B0113
:10EC90006C01C201B10128A139A14AA15BA10E9466
:10ECA0001B987B018C016D817E818F8198852CA5BD
:10ECB0003DA54EA55FA50E941B989B01AC01C80114
:10ECC000B7010E9462947B018C0169817A818B81FA
:10ECD0009C8128AD39AD4AAD5BAD0E941B989B016C
:10ECE000AC01C801B7010E946294E985FA8560838E
:10ECF000718382839383C301D40184839583A68324
:10ED0000B783C501D60180879187A287B3872A96EA
:10ED10000FB6F894DEBF0FBECDBFCF91DF911F912C
:10ED20000F91FF90EF90DF90CF90BF90AF909F90AA
:10ED30008F907F906F905F904F903F902F900895AD
:10ED4000EF92FF920F931F93DF93CF93CDB7DEB770
:10ED50002C970FB6F894DEBF0FBECDBFECADFDAD66
:10ED600080819181A281B381EEADFFADE080F18021
:10ED700002811381EAADFBAD208131814281538153
:10ED800029833A834B835C838D839E83AF83B887CB
:10ED9000E986FA860B871C878DB79EB784970FB6D6
:10EDA000F8949EBF0FBE8DBFADB7BEB71196FE01E2
:10EDB000769684E201900D928150E1F7CE010196A2
:10EDC000D2DE89819A81AB81BC81EAADFBAD8083C3
:10EDD0009183A283B3838D819E81AF81B885ECAD91
:10EDE000FDAD80839183A283B38389859A85AB85AA
:10EDF000BC85EEADFFAD80839183A283B3838DB7D5
:10EE00009EB784960FB6F8949EBF0FBE8DBF2C960A
:10EE10000FB6F894DEBF0FBECDBFCF91DF911F912B
:10EE20000F91FF90EF900895FC0120E030E040E862
:10EE30005FE3208331834283538380E090E0A0E04E
:10EE4000B0E084839583A683B78380879187A28768
:10EE5000B38784879587A687B787208B318B428BB2
:10EE6000538B848B958BA68BB78B808F918FA28FC2
:10EE7000B38F848F958FA68FB78F20A331A342A322
:10EE800053A308952F923F924F925F926F927F9279
:10EE90008F929F92AF92BF92CF92DF92EF92FF92AA
:10EEA0000F931F93DF93CF93CDB7DEB72C970FB699
:10EEB000F894DEBF0FBECDBFFC012EA53FA548A92B
:10EEC00059A9EAACFBAC0CAD1DADAEA0BFA0C8A467
:10EED000D9A46AA87BA88CA89DA822962CAC3DAC8E
:10EEE0004EAC5FAC22978AA59BA5ACA5BDA5898732
:10EEF0009A87AB87BC878EA99FA9A8ADB9AD8D8332
:10EF00009E83AF83B88726968CAD9DADAEADBFAD69
:10EF1000269789839A83AB83BC838AA19BA1ACA1EA
:10EF2000BDA180839183A283B383248335834683E9
:10EF30005783E086F18602871387A486B586C68646
:10EF4000D786608A718A828A938A248A358A468A19
:10EF5000578A89859A85AB85BC85808F918FA28FD2
:10EF6000B38F8D819E81AF81B885848F958FA68F59
:10EF7000B78F89819A81AB81BC8180A391A3A2A321
:10EF8000B3A3CF012C960FB6F894DEBF0FBECDBF52
:10EF9000CF91DF911F910F91FF90EF90DF90CF9075
:10EFA000BF90AF909F908F907F906F905F904F90A9
:10EFB0003F902F900895CF93DF93EC01FB0107C0A2
:10EFC0008091C00085FFFCCF31969093C600908160
:10EFD0009923B1F7E5ECF3E1949108C08091C0006A
:10EFE00085FFFCCF9093C600319694919923B1F799
:10EFF000488159816A817B8183E595E022E030E098
:10F000000E946A1FE0ECF3E1949108C08091C00077
:10F0100085FFFCCF9093C600319694919923B1F768
:10F020004C815D816E817F8183E595E022E030E057
:10F030000E946A1FEBEBF3E1949108C08091C0003D
:10F0400085FFFCCF9093C600319694919923B1F738
:10F05000488559856A857B8583E595E022E030E027
:10F060000E946A1FE9EBF3E1949108C08091C0000F
:10F0700085FFFCCF9093C600319694919923B1F708
:10F08000DF91CF9108956F927F928F929F92AF926E
:10F09000BF92CF92DF92EF92FF920F931F93FC01EA
:10F0A0002081318142815381E480F580068117817E
:10F0B0006084718482849384CA01B9010E941B9880
:10F0C0005B016C01C801B701A80197010E941B9860
:10F0D0009B01AC01C601B5010E9462947B018C01C9
:10F0E000C401B301A40193010E941B989B01AC01D0
:10F0F000C801B7010E9462940E9488981F910F91E5
:10F10000FF90EF90DF90CF90BF90AF909F908F9047
:10F110007F906F900895CF92DF92EF92FF920F93BE
:10F120001F938C01B0DF6B017C01F801608171815C
:10F1300082819381A70196010E944295F801608324
:10F140007183828393836481758186819781A7010E
:10F1500096010E944295F8016483758386839783A4
:10F160006085718582859385A70196010E944295ED
:10F17000F80160877187828793871F910F91FF90B5
:10F18000EF90DF90CF900895CF92DF92EF92FF92B1
:10F190000F931F938C01FB01248135814681578198
:10F1A000C084D184E284F38480819181A281B3817F
:10F1B000F80180839183A283B383248335834683BC
:10F1C0005783C086D186E286F386C801A4DFC801D2
:10F1D0001F910F91FF90EF90DF90CF9008952F92A5
:10F1E0003F924F925F926F927F928F929F92AF92D7
:10F1F000BF92CF92DF92EF92FF920F931F93DF9314
:10F20000CF93CDB7DEB7C655D0400FB6F894DEBF6A
:10F210000FBECDBF67969FAF8EAF6797CDAEDEAE08
:10F22000EFAEFE01E05CFF4FF082FE01EF5BFF4FAF
:10F230000083FE01EE5BFF4F1083FE01ED5BFF4F8D
:10F240002083FE01EC5BFF4F308395E4E92EF12C27
:10F25000EC0EFD1ED7014C93FE01EA5BFF4F50837D
:10F26000FE01E95BFF4F6083FE01E85BFF4F7083A7
:10F270008E01035C1F4FCE010196B80185DFF801B6
:10F2800060817181828193819058D7012D913D9148
:10F290004D915C910E94429520E030E040E85FE3B0
:10F2A000298F3A8F4B8F5C8F20E030E040E050E0B8
:10F2B0002D8F3E8F4F8F58A3AC01CB01DA0189A36C
:10F2C0009AA3ABA3BCA3CE010D96BE01675E7F4F90
:10F2D0005BDF8D819E81AF81B88565968CAF9DAFD8
:10F2E000AEAFBFAF659789859A85AB85BC856196C2
:10F2F0008CAF9DAFAEAFBFAF619789819A81AB8173
:10F30000BC812D968CAF9DAFAEAFBFAF2D972D8832
:10F310003E884F88588C69887A888B889C88AD8411
:10F32000BE84CF84D88865966CAD7DAD8EAD9FAD23
:10F330006597A20191010E941B987B018C01619647
:10F340006CAD7DAD8EAD9FAD6197A40193010E9420
:10F350001B989B01AC01C801B7010E94619469AB85
:10F360007AAB8BAB9CAB61966CAD7DAD8EAD9FAD3A
:10F370006197A60195010E941B987B018C012D9637
:10F380006CAD7DAD8EAD9FAD2D97A20191010E9418
:10F390001B989B01AC01C801B7010E9461946DAB41
:10F3A0007EAB8FAB98AF2D966CAD7DAD8EAD9FAD26
:10F3B0002D97A40193010E941B987B018C016596F7
:10F3C0006CAD7DAD8EAD9FAD6597A60195010E9498
:10F3D0001B989B01AC01C801B7010E94619469AF01
:10F3E0007AAF8BAF9CAFCE018596BE016F5C7F4F2D
:10F3F000CBDE8DA19EA1AFA1B8A529A53AA54BA5AD
:10F400005CA5EDA4FEA40FA518A96796EEADFFAD0F
:10F410006797A082B182C282D3826482758286821B
:10F420009782208631864286538684879587A68771
:10F43000B787208B318B428B538BE48AF58A068BFE
:10F44000178B2D968CAD9DADAEADBFAD2D97808F3A
:10F45000918FA28FB38F65968CAD9DADAEADBFADD4
:10F460006597848F958FA68FB78F61968CAD9DAD74
:10F47000AEADBFAD619780A391A3A2A3B3A3CF010B
:10F48000CA5ADF4F0FB6F894DEBF0FBECDBFCF9183
:10F49000DF911F910F91FF90EF90DF90CF90BF9081
:10F4A000AF909F908F907F906F905F904F903F9024
:10F4B0002F9008953F924F925F926F927F928F921A
:10F4C0009F92AF92BF92CF92DF92EF92FF920F93F3
:10F4D0001F93CF93DF9380912B08882309F4F6C004
:10F4E0008090E0039090E103A090E203B090E303EA
:10F4F00060916A0770916B07882777FD8095982F38
:10F500000E94DD9520E030E040E050E40E946294EB
:10F51000A50194010E943B9587FDD8C03090FD0C59
:10F520000F2EF0E04F2EF0E05F2EF0E06F2EF0E0B7
:10F530007F2EF02DCDE4D0E058C0232D30E02C9F5D
:10F54000F0012D9FF00D3C9FF00D1124E45DF74F6D
:10F5500080819181A281B3810097A105B10581F4D9
:10F5600084819581A681B7810097A105B10541F4F9
:10F5700080859185A285B3850097A105B10591F19C
:10F580002C9F60012D9FD00C3C9FD00C11248CE24D
:10F5900098E0C80ED91EF601648575858685978525
:10F5A0000E94DD957B018C01F60160897189828959
:10F5B00093890E94DB959B01AC01C801B7010E94B1
:10F5C0004295F60122A133A144A155A10E941B98A6
:10F5D0007B018C01A30192010E944997181614F433
:10F5E000270138013394FFE03F228091FC0C38164C
:10F5F00009F0A3CFC301B2012091E4033091E503E8
:10F600004091E6035091E7030E941B989B01AC01D7
:10F61000C501B4010E9462947B018C01A501940193
:10F620000E943B9587FD02C0470158011091DC0301
:10F630000091DD03F090DE03E090DF03C501B4012B
:10F64000212F302F4F2D5E2D0E944997181634F42C
:10F65000812F902FAF2DBE2D4C015D014090160DD6
:10F660005090170D6090180D7090190DC301B201E4
:10F67000A50194010E9449971816C4F4C501B4016C
:10F6800020E037ED43EA5CE30E941B987B018C018C
:10F69000C301B20128E431EE4AE75FE30E941B9800
:10F6A000A80197010E9462944B015C018092160DA3
:10F6B0009092170DA092180DB092190DC501B401CA
:10F6C0000E94AA9570936B0760936A07DF91CF91B0
:10F6D0001F910F91FF90EF90DF90CF90BF90AF9070
:10F6E0009F908F907F906F905F904F903F90089584
:10F6F0006093E8037093E9038093EA039093EB032C
:10F7000008950F931F93CF93DF93C0E0D0E08E0155
:10F71000055F174FFE01E152F84F608171818281D0
:10F7200093810E94DB95FE01E153F84F20813181E6
:10F73000428153810E941B980E94AF95F80160831B
:10F740007183828393832496C031D10501F7DF91C1
:10F75000CF911F910F910895FC0160817181828189
:10F7600093812091DB073091DC074091DD075091B8
:10F77000DE070E941B980E94EB9760932708709306
:10F7800028088093290890932A0887E298E00C942F
:10F79000AB11AF92BF92CF92DF92EF92FF920F9395
:10F7A0001F93DF93CF93CDB7DEB72C970FB6F894A6
:10F7B000DEBF0FBECDBF69837A838B839C832D838D
:10F7C0003E834F835887E986FA860B871C8756014C
:10F7D0008DB79EB78A970FB6F8949EBF0FBE8DBFA8
:10F7E000EDB7FEB731969F0148EB53E084E2DA01B2
:10F7F0000D90AD01D9010D929D018150C1F7CE014F
:10F80000019695A384A3CE01059697A386A3CE0166
:10F81000099691A780A794DAEDB7FEB7BA960FB60E
:10F82000F894FEBF0FBEEDBF69817A818B819C8108
:10F830002091CF073091D0074091D1075091D20746
:10F840000E941B980E94EB973BE1C32E38E0D32E19
:10F8500060931B0870931C0880931D0890931E08EA
:10F860006D817E818F8198852091D3073091D40757
:10F870004091D5075091D6070E941B980E94EB97A4
:10F8800024E0E22EF12CEC0CFD1C60931F08D70144
:10F8900011967C93119712968C93129713969C93C2
:10F8A00069857A858B859C852091D7073091D8070B
:10F8B0004091D9075091DA070E941B980E94EB975C
:10F8C0008601085F1F4F60932308F80171838283CC
:10F8D0009383D5016D917D918D919C912091DB0752
:10F8E0003091DC074091DD075091DE070E941B98A4
:10F8F0000E94EB97F6013C96609327087183828300
:10F900009383C601B701A8019F010E94711180E095
:10F9100090E0A0E0B0E08093FE0C9093FF0CA093E9
:10F92000000DB093010D8093020D9093030DA093F1
:10F93000040DB093050D8093060D9093070DA093D1
:10F94000080DB093090D80930A0D90930B0DA093B1
:10F950000C0DB0930D0D80930E0D90930F0DA09391
:10F96000100DB093110D2C960FB6F894DEBF0FBE9C
:10F97000CDBFCF91DF911F910F91FF90EF90DF905E
:10F98000CF90BF90AF9008952F923F924F925F9289
:10F990006F927F928F929F92AF92BF92CF92DF929F
:10F9A000EF92FF920F931F93DF93CF93CDB7DEB704
:10F9B000A4970FB6F894DEBF0FBECDBF1C0180E048
:10F9C0000E94CE112B013C0181E00E94CE114B011F
:10F9D0005C0182E00E94CE116B017C01C101B30188
:10F9E000A20195018401A5D88DB79EB784970FB663
:10F9F000F8949EBF0FBE8DBFADB7BEB71196E8EBB2
:10FA0000F3E084E201900D928150E1F78E010F5FE7
:10FA10001F4FC80137DA8DB79EB784960FB6F8949A
:10FA20009EBF0FBE8DBF84970FB6F8949EBF0FBECA
:10FA30008DBFADB7BEB71196F80184E201900D926B
:10FA40008150E1F7C1018FD88DB79EB784960FB66C
:10FA5000F8949EBF0FBE8DBFC101A4960FB6F89457
:10FA6000DEBF0FBECDBFCF91DF911F910F91FF90F1
:10FA7000EF90DF90CF90BF90AF909F908F907F904E
:10FA80006F905F904F903F902F9008958F929F922C
:10FA9000AF92BF92CF92DF92EF92FF920F931F939C
:10FAA000CF93DF93EC016B01009709F45CC08FA941
:10FAB000882309F058C0EEA0FFA008A519A5FB01F6
:10FAC000B6A0A7A090A481A4C801B7012B2D3A2D00
:10FAD000492D582D0E943B9588230CF044C0C80145
:10FAE000B701A80197010E941B987B018C016AA9AC
:10FAF0007BA98CA99DA9905820E030E040E050EC13
:10FB00000E941B982EA53FA548A959A90E941B98A1
:10FB10009B01AC01C801B7010E9462940E948898C1
:10FB20007B018C016B2D7A2D892D982D9701A801D1
:10FB30000E943B95882324F4EB2CFA2C092D182DD8
:10FB40006B2D7A2D892D982D9701A8010E943B9548
:10FB5000882349F0C701D801F60186A397A3A0A77F
:10FB6000B1A781E086ABDF91CF911F910F91FF90FC
:10FB7000EF90DF90CF90BF90AF909F908F900895BF
:10FB8000EF92FF920F931F93CF93DF93F090FD0CB2
:10FB900000E010E020E030E04DE4E42E11C0FE9CD7
:10FBA000E0011124C45DD74FC901B801AE016EDF79
:10FBB0008F2D8F5F803109F480E0F82E98018E013F
:10FBC0008091FC0CF81659F7C901B80140E050E0EB
:10FBD0005DDFDF91CF911F910F91FF90EF9008951E
:10FBE000AF92BF92CF92DF92EF92FF920F931F934B
:10FBF000CF93DF93EB018A016115710509F466C0AB
:10FC00004115510509F462C0DAA4CBA4BCA4ADA48B
:10FC10006EA17FA188A599A52D2D3C2D4B2D5A2D88
:10FC20000E943B95882309F451C08FA9882309F0CD
:10FC300043C0F801E6A0F7A000A511A56D2D7C2D0D
:10FC40008B2D9A2DA80197010E9449971816A4F5AB
:10FC5000C801B701A80197010E941B987B018C0184
:10FC60006AA97BA98CA99DA9905820E030E040E0CA
:10FC700050EC0E941B982EA53FA548A959A90E94A7
:10FC80001B989B01AC01C801B7010E9462940E94BD
:10FC900088987B018C016D2D7C2D8B2D9A2D9701E1
:10FCA000A8010E943B95882324F4ED2CFC2C0B2DFD
:10FCB0001A2DC701D80104C08D2D9C2DAB2DBA2D56
:10FCC0008EA39FA3A8A7B9A781E08EABDF91CF91A8
:10FCD0001F910F91FF90EF90DF90CF90BF90AF906A
:10FCE0000895CF92DF92EF92FF920F93DF93CF931D
:10FCF0000F920F92CDB7DEB78091FC0C8FB7F894BE
:10FD0000F090FD0C8FBF8091FC0C90E040968F1915
:10FD100091098F7090700497FCF00091FC0C0350D7
:10FD20000F70CC24DD2440E050E06DE4E62E12C0DC
:10FD3000802F002309F480E1082F01500E9DC0019F
:10FD40001124845D974F9A838983B60149DFA60108
:10FD5000C980DA800F1561F70F900F90CF91DF9176
:10FD60000F91FF90EF90DF90CF900895EF92FF9268
:10FD70000F931F93CF93DF9320918B0530918C05C8
:10FD80009091FD0C8091FC0C981711F4E9011BC0B7
:10FD90004091FD0C242F30E08DE490E0289FF0018D
:10FDA000299FF00D389FF00D1124EC58F74F00817A
:10FDB00011812281338102C04F5F4F708091FC0C12
:10FDC0004817D1F7E801C634D10530F1E090120DA3
:10FDD000F090130D0091140D1091150DE114F10424
:10FDE0000105110579F40E94989166507F4F8F4F5D
:10FDF0009F4F6093120D7093130D8093140D909389
:10FE0000150D07C00E9498916E157F058007910718
:10FE1000B8F4C4ECD0E014C01092120D1092130D7F
:10FE20001092140D1092150D88E060E00E94F2937C
:10FE300041DBDF91CF911F910F91FF90EF900895DB
:10FE40008091A00088608093A00080ED90E09C01EC
:10FE5000C29FC001C39F900DD29F900D1124815E5F
:10FE60009B4F9093AD008093AC00E2CF1092FC0CBE
:10FE70001092FD0C80E1EBE1F8E0DF011D928A9524
:10FE8000E9F780E090E0A0E0B0E08093020D90936D
:10FE9000030DA093040DB093050D8093060D909370
:10FEA000070DA093080DB093090D80930A0D909350
:10FEB0000B0DA0930C0DB0930D0D80930E0D909330
:10FEC0000F0DA093100DB093110D8093FE0C909325
:10FED000FF0CA093000DB093010D08952F923F9257
:10FEE0004F925F926F927F928F929F92AF92BF924A
:10FEF000CF92DF92EF92FF920F931F93DF93CF93F6
:10FF0000CDB7DEB766970FB6F894DEBF0FBECDBF94
:10FF10009E8B8D8B6A017B0148015901DC01D896CB
:10FF20006D917D918D919C91DB970E94DB95698B02
:10FF30007A8B8B8B9C8BA70196010E941B980E9449
:10FF400028950E94AF956D837E838F8398876989FA
:10FF50007A898B899C89A50194010E941B980E9433
:10FF600028950E94AF9569837A838B839C832D812A
:10FF70003E814F815885283731054105510540F4B0
:10FF800048E750E060E070E04D835E836F837887E0
:10FF900069817A818B819C81683771058105910522
:10FFA00040F488E790E0A0E0B0E089839A83AB83D7
:10FFB000BC83AD89BE89AC5BBF4FAD90BD90CD9089
:10FFC000DC901397A454B040BE8BAD8B6D817E81C5
:10FFD0008F8198850E94DB956D877E878F87988BB0
:10FFE000C601B5010E94DD951B012C0120E030E027
:10FFF00040E050E00E943B95882321F4E0E070E06F
:020000021000EC
:1000000060E028C069897A898B899C899B01AC0151
:100010000E941B987B018C016D857E858F85988958
:100020009B01AC010E941B989B01AC01C801B70168
:100030000E9461947B018C01C201B101A201910176
:100040000E9462949B01AC01C801B7010E944295D5
:10005000E62F692F2E2F372F482F562FB901CA01AF
:100060000E9428950E94AA953B014C0169817A81E2
:100070008B819C810E94DB9569877A878B879C871F
:1000800066277727CB016A197B098C099D090E9495
:10009000DD955B016C0120E030E040E050E00E9423
:1000A0003B95882321F4E0E070E060E028C069859A
:1000B0007A858B859C859B01AC010E941B987B01F6
:1000C0008C0169897A898B899C899B01AC010E948A
:1000D0001B989B01AC01C801B7010E9461947B0190
:1000E0008C01C601B501A60195010E9462949B0195
:1000F000AC01C801B7010E944295E62F692F2E2F4F
:10010000372F482F562FB901CA010E941896ED8942
:10011000FE89A088B188C288D38886017501E61857
:10012000F708080919090E94AA95A8019701261B3A
:10013000370B480B590B57FF71C0C201B10120E0CA
:1001400030E040E050E00E943B95882321F4E0E05D
:1001500070E060E044C0C201B101A20191010E94BF
:1001600062947B018C01C601B5010E94DB959B0165
:10017000AC01C801B7010E941B987B018C016D8501
:100180007E858F8598899B01AC010E941B989B01FD
:10019000AC01C801B7010E9461947B018C016985A3
:1001A0007A858B859C859B01AC010E941B989B01E5
:1001B000AC01C801B7010E9462947B018C01C201AD
:1001C000B10120E030E040E850E40E941B989B0120
:1001D000AC01C801B7010E944295E62F692F2E2F6E
:1001E000372F482F562FB901CA010E9428950E9427
:1001F000AA95AC01CB01DA013C014D0197FE03C089
:100200006624772443016A147B048C049D0410F057
:100210003501460120E030E040E050E09FB7F8941F
:100220006D897E89645B7F4FDB018C91AC54B0405B
:10023000BE8BAD8B882321F5FD01648A758A868A81
:10024000978A260D371D481D591D58962D933D93AD
:100250004D935C935B972D813E814F815885DC9651
:100260002D933D934D935C93DF97A05CBF4F298105
:100270003A814B815C812D933D934D935C93139711
:100280009FBF66960FB6F894DEBF0FBECDBFCF916D
:10029000DF911F910F91FF90EF90DF90CF90BF9073
:1002A000AF909F908F907F906F905F904F903F9016
:1002B0002F9008954F925F927F928F929F92AF926C
:1002C000BF92CF92DF92EF92FF920F931F93CF9343
:1002D000DF937090FD0CC0E0D0E07DE4472E512C00
:1002E00045C02097A9F18EA9882361F4849CF00170
:1002F000859CF00D949CF00D1124E45DF74F86A9C8
:10030000882331F1EAA0FBA00CA11DA16EA17FA161
:1003100088A599A5A80197010E9442955B016C01EF
:10032000849CF001859CF00D949CF00D1124E45DFB
:10033000F74F66A177A180A591A5A80197010E941A
:1003400042958B019C01CE01B601A501C7DD1EAA15
:10035000739480E1781609F47724849CE001859CED
:10036000D00D949CD00D1124C45DD74F872C9924B7
:1003700087FC90948091FC0C90E08816990609F017
:10038000B0CF2097E9F0EAA0FBA00CA11DA16EA1BF
:100390007FA188A599A5A80197010E9442955B01BC
:1003A0006C016DEC7CEC8CE49DE3A80197010E944C
:1003B00042958B019C01CE01B601A5018FDD1EAADD
:1003C000DF91CF911F910F91FF90EF90DF90CF9031
:1003D000BF90AF909F908F907F905F904F900895C7
:1003E00080DCCEDB67CF2F923F924F925F926F926D
:1003F0007F928F929F92AF92BF92CF92DF92EF92B5
:10040000FF920F931F93DF93CF93CDB7DEB7CA5AF6
:10041000D0400FB6F894DEBF0FBECDBF69A37AA35C
:100420008BA39CA32DA33EA34FA358A7E9A6FAA68E
:100430000BA71CA78601C955DF4F8882C75AD04039
:10044000C855DF4F9882C85AD040C755DF4FA882A1
:10045000C95AD040C655DF4FB882CA5AD0408091A1
:10046000FC0C8F5F803109F480E0282F332727FDB3
:1004700030953CAF2BAF05C00E94166F80E00E9404
:10048000104A8091FD0C90E04BAD5CAD8417950750
:1004900099F36DB77EB76A5270400FB6F8947EBF7D
:1004A0000FBE6DBFEDB7FEB731969F0148EB53E02D
:1004B00084E2DA010D90AD01D9010D929D018150C8
:1004C000C1F7CE01819695A384A3CE01859697A30B
:1004D00086A3CE01899691A780A70E94A07620913D
:1004E000CF073091D0074091D1075091D207CF5715
:1004F000DF4F288339834A835B83C158D0404DB78F
:100500005EB7465D5F4F0FB6F8945EBF0FBE4DBF3E
:10051000CF57DF4F688179818A819B81C158D04054
:1005200029A13AA14BA15CA10E941B980E94EB97C4
:10053000CF56DF4F6883C159D040CE56DF4F788306
:10054000C259D040CD56DF4F8883C359D040CC56D6
:10055000DF4F9883C459D0406091D3077091D4077E
:100560008091D5079091D607C358DF4F6883798370
:100570008A839B83CD57D0402DA13EA14FA158A582
:100580000E941B980E94EB97CB56DF4F6883C5599A
:10059000D040CA56DF4F7883C659D040C956DF4F86
:1005A0008883C759D040C856DF4F9883C859D04078
:1005B0008091D7079091D807A091D907B091DA0719
:1005C000ED968CAF9DAFAEAFBFAFED97BC01CD0147
:1005D00029A53AA54BA55CA50E941B980E94EB9704
:1005E000C756DF4F6883C959D040C656DF4F78835E
:1005F000CA59D040C556DF4F8883CB59D040C45626
:10060000DF4F9883CC59D0402091DB073091DC0735
:100610004091DD075091DE07E9962CAF3DAF4EAF1C
:100620005FAFE997CA01B901D8012D913D914D9174
:100630005C910E941B980E94EB97C356DF4F688322
:10064000CD59D040C256DF4F7883CE59D040C156E5
:10065000DF4F8883CF59D040C056DF4F9883C05AB0
:10066000D0408091270890912808A0912908B09146
:100670002A08C356DF4F288139814A815B81CD59D1
:10068000D040281739074A075B0709F4B8C0E09142
:100690008A05F0E0EE0FFF1FEE0FFF1FE059F84F45
:1006A00060817181828193812091E8033091E90317
:1006B0004091EA035091EB030E943B9588230CF094
:1006C00033C0C356DF4F488159816A817B81CD5940
:1006D000D0404093270850932808609329087093CE
:1006E0002A08E9E8FBE0949108C08091C00085FFEA
:1006F000FCCF9093C600319694919923B1F7E8EE20
:10070000F3E1949108C08091C00085FFFCCF9093E5
:10071000C600319694919923B1F78091C00085FF6E
:10072000FCCF8AE08093C60080912708909128082A
:10073000A0912908B0912A08C356DF4F288139813A
:100740004A815B81CD59D040281B390B4A0B5B0B8A
:10075000CA01B90157FF07C09095809570956195C2
:100760007F4F8F4F9F4F0E94DD957B018C01E99653
:100770006CAD7DAD8EAD9FADE99720E030E04FEAE6
:1007800053E40E941B989B01AC01C801B7010E9471
:10079000499718160CF033C0C356DF4F4881598172
:1007A0006A817B81CD59D040409327085093280817
:1007B0006093290870932A08E9E8FBE0949108C047
:1007C0008091C00085FFFCCF9093C6003196949134
:1007D0009923B1F7EAECF3E1949108C08091C0004D
:1007E00085FFFCCF9093C600319694919923B1F781
:1007F0008091C00085FFFCCF8AE08093C600809185
:10080000FC0C682F70E0E5967FAF6EAFE5978DE446
:1008100090E0689FF001699FF00D789FF00D112422
:10082000E45DF74FE45BFF4F1082EC54F0408091A1
:100830001B0890911C08A0911D08B0911E08E3961A
:100840008CAF9DAFAEAFBFAFE397CF56DF4F2881E0
:1008500039814A815B81C159D040281B390B4A0B31
:100860005B0BAF962CAF3DAF4EAF5FAFAF97208322
:1008700031834283538357FF0DC0DA01C901B0951C
:10088000A095909581959F4FAF4FBF4F80839183E7
:10089000A283B38340911F085091200860912108E2
:1008A00070912208AB964CAF5DAF6EAF7FAFAB9748
:1008B000CB56DF4F88819981AA81BB81C559D04031
:1008C000841B950BA60BB70BA7968CAF9DAFAEAF55
:1008D000BFAFA7978DE490E0E596AEADBFADE597CD
:1008E000A89FF001A99FF00DB89FF00D1124E45DC1
:1008F000F74FA7962CAD3DAD4EAD5FADA7972483C6
:1009000035834683578357FF0DC0DA01C901B0957F
:10091000A095909581959F4FAF4FBF4F848395834E
:10092000A683B7834091230850912408609125083D
:1009300070912608A3964CAF5DAF6EAF7FAFA397C3
:10094000C756DF4F88819981AA81BB81C959D040A0
:10095000841B950BA60BB70B6F968CAF9DAFAEAFFC
:10096000BFAF6F978DE490E0E596AEADBFADE59774
:10097000A89FF001A99FF00DB89FF00D1124E45D30
:10098000F74F6F962CAD3DAD4EAD5FAD6F972087A5
:1009900031874287538757FF0DC0DA01C901B095EF
:1009A000A095909581959F4FAF4FBF4F80879187BE
:1009B000A287B387409127085091280860912908A1
:1009C00070912A084DAB5EAB6FAB78AFC356DF4F6B
:1009D00088819981AA81BB81CD59D040841B950B18
:1009E000A60BB70B89AB9AABABABBCABE0918A055E
:1009F000F0E0EE0FFF1FEE0FFF1FE857FC4F2081C6
:100A00003181428153816B962CAF3DAF4EAF5FAFCA
:100A10006B97409180035091810367965FAF4EAF13
:100A20006797BC01CD0197FF07C0909580957095A1
:100A300061957F4F8F4F9F4F0E94DD956B962CAD38
:100A40003DAD4EAD5FAD6B970E941B980E94AA957D
:100A50006796AEADBFAD67979D01442737FD4095C2
:100A6000542F0E94ED9824E630E040E050E00E94D0
:100A700055998DE490E0E5966EAD7FADE597689F62
:100A8000F001699FF00D789FF00D1124E45DF74FA0
:100A9000DF011C96248711963C93119712964C9374
:100AA000129713965C934080518062807380A4807B
:100AB000B580C680D780E084F18402851385C901A2
:100AC000DA018E159F05A007B10714F4D801C701FC
:100AD0008A159B05AC05BD0514F4D601C5019C0122
:100AE000AD0184159505A605B70514F4A30192017F
:100AF0008DE490E0E596AEADBFADE597A89FB0015F
:100B0000A99F700DB89F700D1124645D774FFB0194
:100B1000208B318B428B538B26303105410551059B
:100B200010F40C94CE8EE85BFF4F80918B05909172
:100B30008C05AA2797FDA095BA2F80839183A28365
:100B4000B383DB0190961C92CF56DF4F2881398109
:100B50004A815B81C159D040E3968CAD9DADAEAD6D
:100B6000BFADE397281739074A075B0724F481E0F4
:100B7000DB0190968C93CB56DF4F288139814A81D7
:100B80005B81C559D040AB966CAD7DAD8EAD9FAD50
:100B9000AB97261737074807590794F48DE490E080
:100BA000E596AEADBFADE597A89FF001A99FF00D0A
:100BB000B89FF00D1124E45DF74F80A1826080A3FF
:100BC000C756DF4F288139814A815B81C959D0409E
:100BD000A3966CAD7DAD8EAD9FADA397261737075D
:100BE0004807590794F48DE490E0E596AEADBFADAB
:100BF000E597A89FF001A99FF00DB89FF00D112473
:100C0000E45DF74F80A1846080A3C356DF4F288145
:100C100039814A815B81CD59D0406DA97EA98FA9C8
:100C200098AD261737074807590794F48DE490E0EC
:100C3000E596AEADBFADE597A89FF001A99FF00D79
:100C4000B89FF00D1124E45DF74F80A1886080A368
:100C50008DE490E0E5962EAD3FADE597289FF0013D
:100C6000299FF00D389FF00D1124E45DF74FC0541B
:100C7000DF4FA881B981C05CD0408C9181A34081B5
:100C800051816281738165964CAF5DAF6EAF7FAF6E
:100C90006597411551056105710509F017988DE4B7
:100CA00090E0E5966EAD7FADE597689FF001699F96
:100CB000F00D789FF00D1124E45DF74F648075808E
:100CC00086809780611471048104910409F016985C
:100CD0008DE490E0E596AEADBFADE597A89FF0013D
:100CE000A99FF00DB89FF00D1124E45DF74FA0848B
:100CF000B184C284D384A114B104C104D10409F025
:100D000015988DE490E0E5962EAD3FADE597289FD0
:100D1000F001299FF00D389FF00D1124E45DF74F8D
:100D200084859585A685B7850097A105B10551F005
:100D300014982090EF073090F0074090F107509002
:100D4000F20708C020900708309008084090090872
:100D500050900A08C955DF4F6881C75AD040C8551E
:100D6000DF4F7881C85AD040C755DF4F8881C95AB4
:100D7000D040C655DF4F9881CA5AD040A201910198
:100D80000E943B9587FD16C0C955DF4F8881C75A21
:100D9000D040C855DF4F9881C85AD040C755DF4F63
:100DA000A881C95AD040C655DF4FB881CA5AD04031
:100DB0001C012D01AF966CAD7DAD8EAD9FADAF9793
:100DC0000E94DD95CF57DF4F288139814A815B81B1
:100DD000C158D0400E944295C357DF4F6883CD5819
:100DE000D040C257DF4F7883CE58D040C157DF4F35
:100DF0008883CF58D040C057DF4F9883C059D04028
:100E0000AC01CB01DA0189839A83AB83BC83A796BB
:100E10006CAD7DAD8EAD9FADA7970E94DD95C3589B
:100E2000DF4F288139814A815B81CD57D0400E94B4
:100E30004295C757DF4F6883C958D040C657DF4F28
:100E40007883CA58D040C557DF4F8883CB58D040ED
:100E5000C457DF4F9883CC58D040AC01CB01DA01A6
:100E60008D839E83AF83B8876F966CAD7DAD8EAD5D
:100E70009FAD6F970E94DD95ED962CAD3DAD4EADCB
:100E80005FADED970E944295CB57DF4F6883C55801
:100E9000D040CA57DF4F7883C658D040C957DF4F7C
:100EA0008883C758D040C857DF4F9883C858D04070
:100EB000AC01CB01DA0189879A87AB87BC8769A926
:100EC0007AA98BA99CA90E94DD95E9962CAD3DAD30
:100ED0004EAD5FADE9970E9442956B962CAD3DAD4E
:100EE0004EAD5FAD6B970E941B987B018C0167969E
:100EF0004EAD5FAD6797BA01882777FD8095982F33
:100F00000E94DD959B01AC01C801B7010E941B98AE
:100F100020E030E048EC52E40E9442959B01AC0195
:100F20006D877E878F87988B65966CAD7DAD8EAD16
:100F30009FAD659766307105810591051CF576E0DA
:100F40006716710481049104ECF486E0A816B104DC
:100F5000C104D104BCF48DE490E0E596AEADBFAD24
:100F6000E597A89FF001A99FF00DB89FF00D1124FF
:100F7000E45DF74FDA01C901BF7786A797A7A0AB59
:100F8000B1AB6DC0C357DF4F2881CD58D040C25799
:100F9000DF4F3881CE58D040C157DF4F4881CF58FE
:100FA000D040C057DF4F5881C059D040B901CA0165
:100FB0000E94D2983B014C01C757DF4F2881C95886
:100FC000D040C657DF4F3881CA58D040C557DF4F91
:100FD0004881CB58D040C457DF4F5881CC58D040BF
:100FE000B901CA010E94D2985B016C01CB57DF4F57
:100FF0002881C558D040CA57DF4F3881C658D040E5
:10100000C957DF4F4881C758D040C857DF4F588174
:10101000C858D040B901CA010E94D2987B018C0106
:10102000C401B301A60195010E946294A801970131
:101030000E9462940E9488982DE430E0E5964EADBF
:101040005FADE597429FF001439FF00D529FF00D79
:101050001124E45DF74F66A777A780AB91AB8DE4D1
:1010600090E0E5966EAD7FADE597689FF001699FD2
:10107000F00D789FF00D1124E45DF74F86A597A53C
:10108000A0A9B1A961968CAF9DAFAEAFBFAF61977C
:1010900060E070E080E89FE361962CAD3DAD4EAD21
:1010A0005FAD61970E9442959B01AC01C201B10105
:1010B0000E941B982B013C018091FC0C9091FD0C2F
:1010C000A82FB0E05096A91BB109AF70B070BAAFAD
:1010D000A9AFA230B1050CF451C05D01CC24B7FC1E
:1010E000C094DC2CC601B5010E94DD9520E030E003
:1010F00040E051E40E943B9588230CF03FC060E043
:1011000074E284E799E4A30192010E9442950E944F
:10111000EB977B018C016091BB077091BC078091BC
:10112000BD079091BE07E616F7060807190730F5C8
:101130006E197F09800B910B660F771F881F991F0F
:10114000A60195010E943399CA01B9010E94DB955D
:101150000E94EB979B01AC012E0D3F1D401F511FBC
:10116000CA01B9010E94DB959B01AC0160E074E209
:1011700084E799E40E9442952B013C018DE490E0C4
:10118000E596EEADFFADE597E89F8001E99F100D74
:10119000F89F100D1124045D174F61966CAD7DAD65
:1011A0008EAD9FAD6197A30192010E941B98D8015B
:1011B00092966D937D938D939C93959750966D9198
:1011C0007D918D919C9153970E94DB95A301920193
:1011D0000E941B980E9428950E94AF95F80160AF6D
:1011E00071AF82AF93AFCF55DF4F1882C15AD04055
:1011F000CE55DF4F1882C25AD04020E8222E9FE3FE
:10120000392E88249924E1E0F0E0EC0FFD1FE80D71
:10121000F91DC301B20120813181428153810E94B5
:101220001B98E1E1F0E0EC0FFD1FE80DF91D608374
:101230007183828393835B016C01E894D7F8F40196
:10124000E154F84FE080F18002811381C601B501BD
:10125000A80197010E9449971816CCF4C801B7015C
:10126000A60195010E9442956B017C01CF55DF4F8D
:101270006881C15AD040CE55DF4F7881C25AD040E4
:10128000C101A70196010E943B9588236CF4CF55BC
:10129000DF4F8881C15AD040CE55DF4F9881C25A66
:1012A000D040D1016C017D0124E030E0820E931E1C
:1012B00030E18316910471F0D701C601CF55DF4F9D
:1012C000C882C15AD040CE55DF4F9883C25AD04011
:1012D0001D0199CFC701B60120E030E040E85FE38F
:1012E0000E943B9588230CF04CC08E010F5E1F4F6F
:1012F00081E2A82EB12CAC0EBD1ED8016D917D915E
:101300008D919C91A70196010E941B98F801619311
:101310007193819391938F01EA15FB0571F78DE429
:1013200090E0E5962EAD3FADE597289F8001299F7F
:10133000100D389F100D1124045D174FD80192969F
:101340006D917D918D919C919597A70196010E9439
:101350001B98F80162A373A384A395A360AD71AD3C
:1013600082AD93AD0E94DB95A70196010E941B9868
:101370000E94AF95D801D8966D937D938D939C93E1
:10138000DB978DE490E0E596EEADFFADE597E89F45
:101390008001E99F100DF89F100D1124045D174F77
:1013A000D80150966D917D918D919C9153970E949B
:1013B000DB95F80126A537A540A951A90E944295C1
:1013C0001B012C01F80180819181A281B3810097DA
:1013D000A105B10549F584819581A681B781009762
:1013E000A105B10509F580859185A285B385009792
:1013F000A105B105C9F4C201B1012091F7073091EF
:10140000F8074091F9075091FA070E941B980E9433
:1014100028950C5B1F4F0E94AF95D8016D937D936B
:101420008D939C93139771C1C201B1012091F30771
:101430003091F4074091F5075091F6070E941B98F0
:101440000E9428950E94AF952DE430E0E596EEAD20
:10145000FFADE597E29F6001E39FD00CF29FD00CB7
:1014600011242CE238E0C20ED31EB4E46B2E712C92
:101470006C0C7D1CD3016D937D938D939C9313977E
:1014800080900B0890900C08A0900D08B0900E086A
:101490000E94DB957B018C01F60160817181828164
:1014A00093810E94DD959B01AC01C801B7010E94A8
:1014B0001B987B018C01D60150966D917D918D9189
:1014C0009C9153970E94DB959B01AC01C801B70129
:1014D0000E9442957B018C01C501B4010E94DB95FD
:1014E0009B01AC01C801B7010E94499718162CF462
:1014F000F30180829182A282B38280900F08909043
:101500001008A0901108B09012088DE490E0E596C4
:101510002EAD3FADE597289F6001299FD00C389FE5
:10152000D00C11244CE258E0C40ED51EA4E46A2E5F
:10153000712C6C0C7D1CD3016D917D918D919C91D2
:101540000E94DB957B018C01F601648175818681A7
:1015500097810E94DD959B01AC01C801B7010E94F3
:101560001B987B018C01D60150966D917D918D91D8
:101570009C9153970E94DB959B01AC01C801B70178
:101580000E9442957B018C01C501B4010E94DB954C
:101590009B01AC01C801B7010E94499718162CF4B1
:1015A000F30180829182A282B3828090170890908A
:1015B0001808A0901908B0901A088DE490E0E596FC
:1015C0002EAD3FADE597289F6001299FD00C389F35
:1015D000D00C11244CE258E0C40ED51EF4E46F2E5A
:1015E000712C6C0C7D1CD3016D917D918D919C9122
:1015F0000E94DB957B018C01F601648575858685EB
:1016000097850E94DD959B01AC01C801B7010E943E
:101610001B987B018C01D60150966D917D918D9127
:101620009C9153970E94DB959B01AC01C801B701C7
:101630000E9442957B018C01C501B4010E94DB959B
:101640009B01AC01C801B7010E94499718162CF400
:10165000F30180829182A282B382809013089090DD
:101660001408A0901508B09016088DE490E0E59657
:101670002EAD3FADE597289F6001299FD00C389F84
:10168000D00C11244CE258E0C40ED51EE4E46E2EBA
:10169000712C6C0C7D1CD3016D917D918D919C9171
:1016A0000E94DB957B018C01F60160857185828546
:1016B00093850E94DD959B01AC01C801B7010E9492
:1016C0001B987B018C01D60150966D917D918D9177
:1016D0009C9153970E94DB959B01AC01C801B70117
:1016E0000E9442957B018C01C501B4010E94DB95EB
:1016F0009B01AC01C801B7010E94499718162CF450
:10170000F30180829182A282B3828DE490E0E5961B
:101710002EAD3FADE597289F6001299FD00C389FE3
:10172000D00C11244CE258E0C40ED51EF601EC5B3F
:10173000FF4F60817181828193810E94DB957B01E3
:101740008C01A20191010E944295D601D2966D931F
:101750007D938D939C93D597C801B7012DEB37E30B
:1017600046E051E40E941B980E94AA95F601648FFE
:10177000758F868F978F6090FB077090FC07809025
:10178000FD079090FE07C401B30120E030E040E087
:101790005FE30E941B985B016C01298D3A8D4B8D94
:1017A0005C8D2D962CAF3DAF4EAF5FAF2D97409126
:1017B000FF07509100086091010870910208299676
:1017C0004CAF5DAF6EAF7FAF2997CB01BA0120E080
:1017D00030E040E05FE30E941B987B018C012D9676
:1017E0006CAD7DAD8EAD9FAD2D979F77A801970114
:1017F0000E944997181644F4C601B501A801970143
:101800000E943B95882314F4860175016D8D7E8DB1
:101810008F8D98A125966CAF7DAF8EAF9FAF25972A
:101820008091030890910408A0910508B0910608E2
:1018300021968CAF9DAFAEAFBFAF2197BC01CD015C
:1018400020E030E040E05FE30E941B981B012C0188
:1018500025966CAD7DAD8EAD9FAD25979F77A2018E
:1018600091010E944997181644F4C801B701A201DA
:1018700091010E943B95882314F4170128018DE4FF
:1018800090E0E596AEADBFADE597A89FF001A99FAA
:10189000F00DB89FF00D1124E45DF74F22A133A1A4
:1018A00044A155A12DA73EA74FA758ABC201B10136
:1018B0000E943B9587FD04C02DA43EA44FA458A8C8
:1018C00049AD5AAD423051050CF40AC15091FE0C9D
:1018D000CD55DF4F5883C35AD0406091FF0CCC5593
:1018E000DF4F6883C45AD0407091000DCB55DF4F55
:1018F0007883C55AD0408091010DCA55DF4F888347
:10190000C65AD040652FCC55DF4F7881C45AD0409D
:10191000CB55DF4F8881C55AD040CA55DF4F9881DB
:10192000C65AD04027E137EB41ED58E30E94499772
:1019300018160CF0D5C069897A898B899C89209109
:10194000020D3091030D4091040D5091050DB9D752
:101950009B01AC010E941B987B018C016D897E89E3
:101960008F89988D2091060D3091070D4091080DBB
:101970005091090DA6D79B01AC010E941B989B01B9
:10198000AC01C801B7019ED70E9488987B018C01E9
:10199000A40193010E94499718165CF00F2EF0E005
:1019A0006F2EF0E07F2EF0E88F2EFFE39F2EF02DBC
:1019B00008C0C401B301A80197010E9442953B01F0
:1019C0004C012D966CAD7DAD8EAD9FAD2D972091C8
:1019D0000A0D30910B0D40910C0D50910D0D71D7EA
:1019E0007B018C01E89417F9C801B70129962CAD49
:1019F0003DAD4EAD5FAD29970E9449971816A4F4EE
:101A000029966CAD7DAD8EAD9FAD2997A80197014C
:101A10000E9442955B016C01C401B301A6019501CE
:101A20000E943B95882314F46401530125966CAD04
:101A30007DAD8EAD9FAD259720910E0D30910F0D90
:101A40004091100D5091110D3CD77B018C01E89411
:101A500017F9C801B70121962CAD3DAD4EAD5FAD74
:101A600021970E94499718169CF421966CAD7DAD84
:101A70008EAD9FAD2197A80197010E9442957B01F1
:101A80008C01C601B501A8019701F5D7882314F48C
:101A9000860175016DA57EA58FA598A9A80197015E
:101AA0000E941B987B018C01CD55DF4F6881C35A82
:101AB000D040CC55DF4F7881C45AD040CB55DF4F52
:101AC0008881C55AD040CA55DF4F9881C65AD04048
:101AD000A8019701D0D787FD19C0D801C70102C05E
:101AE000D201C101CD55DF4F8883C35AD040CC55B8
:101AF000DF4F9883C45AD040CB55DF4FA883C55AD7
:101B0000D040CA55DF4FB883C65AD0408DE490E02C
:101B1000E596AEADBFADE597A89F8001A99F100DDA
:101B2000B89F100D1124045D174FCD55DF4F8881EC
:101B3000C35AD040CC55DF4F9881C45AD040CB55C2
:101B4000DF4FA881C55AD040CA55DF4FB881C65A69
:101B5000D040F80182A793A7A4A7B5A762A973A94B
:101B600084A995A9905820E030E040E050EC0E9414
:101B70001B98D8019E962D913D914D915C91D197E6
:101B80000E941B982BE037ED43E25BE39BD60E945B
:101B90008898F62EE72ED82EC92ECD55DF4F6881B6
:101BA000C35AD040CC55DF4F7881C45AD040CB5572
:101BB000DF4F8881C55AD040CA55DF4F9881C65A39
:101BC000D0402F2D3E2D4D2D5C2D55D787FD14C0B7
:101BD000CD55DF4FF882C35AD040CC55DF4FE88255
:101BE000C45AD040CB55DF4FD882C55AD040CA55D1
:101BF000DF4FC882C65AD0408DE490E0E596EEAD46
:101C0000FFADE597E89F8001E99F100DF89F100D4B
